:020000041000EA
:1000000000B5324B212058609868022188439860DF
:10001000D860186158612E4B002199600221596106
:100020000121F02299502B49196001219960352056
:1000300000F044F80222904214D00621196600F024
:1000400034F8196E01211966002018661A6600F04E
:100050002CF8196E196E196E052000F02FF8012189
:100060000842F9D1002199601B49196000215960AB
:100070001A491B48016001219960EB211966A021F2
:10008000196600F012F800219960164914480160C1
:100090000121996001BC002800D000471248134993
:1000A000086003C880F30888084703B5996A0420EC
:1000B0000142FBD001200142F8D103BD02B5186610
:1000C0001866FFF7F2FF186E186E02BD00000240BE
:1000D000000000180000070000035F00212200005C
:1000E000F4000018222000A00001001008ED00E03C
:1000F00000000000000000000000000074B24E7A12
:1001000000200420F7010010C3010010C5010010F9
:10011000C1010010C1010010C1010010C101001097
:10012000C1010010C1010010C1010010C701001081
:10013000C1010010C1010010C9010010CB01001065
:10014000CD010010CD010010CD010010CD01001037
:10015000CD010010CD010010CD010010CD01001027
:10016000CD010010CD010010CD010010CD01001017
:10017000CD010010CD010010CD010010CD01001007
:10018000CD010010CD010010CD010010CD010010F7
:10019000CD010010CD010010CD010010CD010010E7
:1001A000CD010010CD010010CD010010CD010010D7
:1001B000CD010010CD010010CD010010CD010010C7
:1001C00000BE00BE00BE00BE00BE00BEEFF3058054
:1001D000103800BEF2EB8871246C04104C6C0410D3
:1001E0003802001090A31AE71E481F49086006C88D
:1001F00081F3088810471D480068002801D019487D
:10020000F3E70DA40ECC002902D000F012F8F9E7B4
:100210001749184A002000E001C19142FCD116495B
:100220008847164988471649884700BEFDE701C937
:1002300001C29A42FBD370474C6C0410C0000020EE
:10024000A81C0020348804100000042000000420B2
:100250003488041000100420001004200000000066
:10026000704700000000000008ED00E0000000D032
:10027000A81C002064370020093E00105D04001017
:10028000CD3D0010F8B5C0460448054B10B583427B
:1002900003D0044B002B00D0984710BDA81C0020B1
:1002A000A81C00200000000006480749091A8B100E
:1002B000C90FC91810B5491003D0044B002B00D04A
:1002C000984710BDA81C0020A81C002000000000BA
:1002D00010B5074C2378002B09D1FFF7D5FF054B4C
:1002E000002B02D0044800E000BF0123237010BDA2
:1002F0002820002000000000ACC60310054B10B5FC
:10030000002B03D00449054800E000BFFFF7CCFFF5
:1003100010BDC046000000002C200020ACC6031019
:1003200010B50C490C4804F0CDF80121022000F072
:10033000A5F80121032000F0A1F80121042000F01C
:100340009DF8052000F0B4F8D02320221B065A6245
:100350005A6110BD40420F0000C00340F0B5DE46B8
:100360004E46454657468346E0B5254E85B0B36AAE
:1003700024480193150001F0ADF95B460090002B75
:1003800037D02B0000240500984603AF09E0012375
:100390009C46009BE0449C460134A4B26544A345BE
:1003A00027D0194AB36A02AB1A80002302AA9370BD
:1003B000D0231B06994620239A464B4652461348A3
:1003C0009A6102A903233A003CF012F94B465246C7
:1003D0005A6142467B789B079B0F1370B36AB06AE1
:1003E000019B181A40190028D1D0002100F09AFD75
:1003F000CDE705B0F0BCBB46B246A946A046F0BD6D
:100400000040054040420F000180FFFF00C0034054
:10041000F8B500AF03F07CFEFFF782FF0A4B002423
:100420009C46E5446E460949094803F04DFF6A467B
:1004300008490648FFF792FF074D315D2800013457
:1004400003F042FFE4B2F8E70000FFFFFFFF000007
:10045000B0C6031028230000C4C6031010B5FFF770
:100460005FFF03F055FEFFF7D3FFC04610B502480B
:1004700004F0CEFA10BDC046F836002010B5402476
:10048000084A83009A181268C0005440C0222240D3
:10049000054CA44663441A60044B9C46604441608A
:1004A00010BDC04604C0014004D0014000400140DE
:1004B0000123D02283404021120693629361094AAE
:1004C00083009A181268C0005140C0220A400649B1
:1004D0008C4663441A60054B9C4605236044436088
:1004E0007047C04604C0014004D0014000400140B4
:1004F0000FB400B5084883B003F05CFE049B002BEA
:1005000007D005A91800019103F0F0FB034803F0A0
:1005100051FE012003F002FCD4C60310E4C6031010
:1005200070B5EFF3108C72B60D4D2B68002BFCD01C
:10053000BFF35F8F0724CB08C618C05C01230C40B3
:10054000A3401C000440034207D103433370BFF3B0
:100550005F8F2C608CF3108870BD1000FFF7C8FF10
:100560002C0100D0044A1078431CDBB2172B00D9B1
:10057000102313707047C0465C1100200021044B0B
:10058000044ABFF35F8F02C39342FAD17047C0465B
:10059000000100D0800100D0054B064A1360064AD6
:1005A000136053609360D36013615361936170472C
:1005B0008080808000E400E004E400E01F23184015
:1005C0001E3B8340002905D0C021044A49005350F6
:1005D00013607047802201498B50FAE700E100E088
:1005E00070B50D00EFF3108672B60F4A1368002B3A
:1005F000FCD0BFF35F8F0D4B10309B6884001B59FC
:100600000B4A934203D09D4201D000F085FF074B77
:100610009B681D51BFF35F8FBFF35F8F0022024BBA
:100620001A6086F3108870BD240100D000ED00E050
:10063000CD010010F0B5DE4657464E464546E0B5C2
:100640000C0083B0EFF3108972B65F4A1368002B79
:10065000FCD0BFF35F8F5D4B9A68030010339F009F
:10066000D5595B4A904695423DD0A5424ED0594E51
:10067000AA1B2F2A37D8584A93461268944601225B
:1006800061469246824011401F22104052468240ED
:10069000924601918022514658468150BFF35F8FA8
:1006A000EFF305829346002A32D101232A009A43B0
:1006B0009068844208D17CE04B005B189B00F318E3
:1006C000986884422ED01A00062151560029F3DA88
:1006D00084424DD0019B002B1FD0C02251463E4B7F
:1006E000520099501960394B9B68DD51BFF35F8F01
:1006F000BFF35F8F0022344B1A6089F3108803B078
:10070000F0BCBB46B246A946A046F0BD1500EAE7DC
:100710009342CAD000F000FFC7E7802351462E4A1B
:10072000D150E0E706215956002922DB4A00501833
:10073000800034188046A0689860E079D87106205F
:1007400020569871002825DBA488F01A640524152A
:1007500044440019E0240005400D24022043988001
:1007600052181E4B9200B6181A781970B271B1E780
:100770001300594600290FD1FF319171184991801A
:1007800016490A789A71174A9B1B5B415A43120D0E
:100790000A709FE71448E2E7144A1549D21A083A4A
:1007A0005002400D01439980124952080A43DA80F1
:1007B00090E70621515613000029B7DA5A46002A5D
:1007C000EAD14546DCE7C046240100D000ED00E058
:1007D000CD0100106011002000E100E06037002032
:1007E00001BDFFFFAAAA000001BD00009A11002070
:1007F00000F0FFFF00F8FFFF70B501240443EFF3A2
:100800000581EFF3108C72B6214A1368002BFCD0DF
:10081000BFF35F8F1F4B05001F4AED1A6D416A43FE
:10082000120D1E4D8900AE6852B27658A6421CD0F9
:100830000621595691421CD012215956914222D07C
:100840001E215956914220D02A2159560324914203
:1008500010D0134B19781A708171BFF35F8F00228B
:100860000B4B1A608CF3108870BDAB680D4C5C505C
:10087000EFE700246100091989005B18FF219971D5
:1008800009499980E5E70124F4E70224F2E7C0462C
:10089000240100D060110020AAAA000000ED00E0B1
:1008A00060370020CD01001001BDFFFF024B9C46C8
:1008B000614489000160704740000034F8B5134D71
:1008C000134E2C00FF27B5421ED22368002B0FD0F9
:1008D000FFF748FE01002800FFF7E8FFA780BFF3FD
:1008E0005F8F0834B4420FD223682500002BEFD16C
:1008F000FFF738FE01002800FFF7D8FF2771BFF38C
:100900005F8F0834B442EFD3F8BDC046A01C00206E
:10091000A81C00200A4B1968EFF3108072B60A6811
:10092000002AFCD0BFF35F8F1B68BFF35F8F0022EC
:100930001A6080F3108840BF002000217047C04635
:1009400054370020F0B5DE4657464E464546E0B5E2
:1009500085B0EFF30582032313409A001100039240
:10096000B64A5258904601229A40B54B91461A60B9
:1009700031E043469B881BB2002B00DB9DE04346E1
:100980009B79002B00D0EFE0434608241C5F002C2D
:1009900000DA17E142465269630094461B19DB00F6
:1009A00063449C68DD68631C00D113E1A54B039987
:1009B0009C4661449A6A0B69A01A9B1A984200D21D
:1009C0000C61A04800F03AFB241A8D41002D00DD97
:1009D000F8E000D12EE14B469A4843634346082293
:1009E0009B5E9A46002BC4DB424652695B009346ED
:1009F0005344DB009B445B469E68DF6800F01EFBAF
:100A0000801BB9410029B4DB002F00DAEDE05B4622
:100A10008D4A1B69934200D1E0E041465A460820C6
:100A2000085E5288000410435A46516998470400F2
:100A30000D0023002B4300D1D7E0002D00DBF0E0B8
:100A4000361BAF4134003D005B469C60DD600021F9
:100A5000595E00298DDB43465B6922009C462B00D2
:100A600048004018C00060448668C768921BBB41BC
:100A7000002B00DA7DE743466646020000940195AC
:100A800019810CE07B00DB19DB00F3180098019959
:100A90009C68DD68001BA941002904DB1A000023C3
:100AA000D75E002FEEDA5B461F8053461380434625
:100AB0009B881BB2002B00DA61E743461A69EFF30B
:100AC000108172B61368002BFCD0BFF35F8F4346D2
:100AD0009B8842461BB29A4601235B42938013696E
:100AE000BFF35F8F00221A6081F310885346002BFA
:100AF00000DA44E743465B699C46082343449B462F
:100B000053465F0043465744FF0008229A5E6744FD
:100B10005E46BC68FD68002A19DB3B000094019525
:100B200067469C4604E01E000023F25E002A0BDBB1
:100B30000098019953009B18DB00FB189C68DD6846
:100B4000001BA9410029EEDA6346BC461F0053464C
:100B5000338000217B5E3A809A46002BD0DA4346F0
:100B60009B79002B00D10FE7002342469371434647
:100B700046460821595E08364B1C23D047468C4612
:100B8000556902E006004B1C17D04B005B18DB00D8
:100B9000E8180A00E95E43881BB2002BF2DA012351
:100BA0005B42DC178360C4606245ECD031803B89D6
:100BB000944603803A814B1CE7D16446B846002C2A
:100BC00000DBE7E640BF05B0F0BCBB46B246A94635
:100BD000A046F0BD6B1C00D0E8E6F2E65B465C691F
:100BE000200023699847002821D15B4642461B8894
:100BF00013811269EFF3108372B611680029FCD0DB
:100C0000BFF35F8F4246594652880A80424651469A
:100C100051801269BFF35F8F0021116083F3108848
:100C2000A7E6084800F00AFA24184D410CE7656869
:100C30002468FEE6002C00D1CDE6C3E74037002053
:100C40003C700540004005404509001070B52E4C31
:100C50002569002D04D00A212C48FFF727FE70BD1E
:100C60002B4E0321300000F0DFF9E660FFF77AFC3D
:100C7000284B03229C46D02322701B061B680121AF
:100C80006370254B6044A3600F2380002061022025
:100C9000638063694942A180198002311986473116
:100CA0001D83585218315A5275325C399952183294
:100CB0000131995218320131995218320131995249
:100CC000083518329D5202311832995218320131CA
:100CD0009952183201319952183201319952183211
:100CE000013199521832013199520C4B0C49DC6098
:100CF00001303562FFF774FC01210320FFF75EFC31
:100D0000084B1D60A7E7C046A811002054370020FB
:100D10000040054040000034FFFF10004037002035
:100D2000450900103860054070B5C646010000B5A1
:100D30000469EFF3108C72B620680028FCD0BFF372
:100D40005F8F02200D5E48696C0080466419E400E4
:100D50004444002D01DB208848800869BFF35F8F81
:100D6000002606608CF31088002D30DBE36063887A
:100D70000598013320615B0406985B0CA2606061FA
:100D80001A1C002B21D090B22B04628018430A69F0
:100D9000EFF3108672B61368002BFCD0BFF35F8FA1
:100DA0008B8823808D800B69BFF35F8F00221A60D0
:100DB00086F310880B7801329A40CB6805498C463F
:100DC00063441A6040BCB04670BD0122DBE70120DD
:100DD0004042F7E73C20000010B543890A149342D3
:100DE00033DD53009B184269DB0094460469634479
:100DF000EFF3108C72B62268002AFCD0BFF35F8F2D
:100E00005A88090494B2090C8A4208D00369BFF3D6
:100E10005F8F00221A608CF31088002010BD8022A2
:100E2000120214435C80012302698371BFF35F8F58
:100E3000002111608CF31088054902788C4693409C
:100E4000C268012062441360E8E70020E6E7C0467C
:100E50003C200000F0B504000D0006267642F7178E
:100E6000C64636196F4100B582B08F4214D811D0F2
:100E700000F0ECF832003B00121A8B41002B15DC1D
:100E8000002B44D02000290000F014F902B080BCEF
:100E9000B846F0BD8642EBD90026002700F0D6F810
:100EA00032003B00121A8B41002BE9DD00F0CEF836
:100EB00032003B00121A8B41002B0ADB0023019306
:100EC000144B3200009314483B00FFF72DFF00281D
:100ED000D8DBB0460026BC46104A114F7B6A9C45C1
:100EE00004D8B96A8845CDD99C45CBD11168EFF3B8
:100EF000108072B60B68002BFCD0BFF35F8F1368B5
:100F0000BFF35F8F1E6080F3108820BFE6E7002AE2
:100F1000B8D0CBE715090010A811002054370020E5
:100F20000040054070B504000D0000F08FF8001976
:100F30006941002902DBFFF78DFF70BD01200149E7
:100F40004042F8E7FFFFFF7FF0B5CE46474680B549
:100F500004000D0083B0EFF30587002F3BD12F4E27
:100F600081463378F26804339B00916A9B58421A99
:100F70005B1A9A420ED320BF294A0020536AAB4223
:100F800003D3926A013091453CD803B0C0BCB94646
:100F9000B046F0BD00F05AF822002B00121A8B4127
:100FA000002B26DB1F4B2200009330002B00019703
:100FB000FFF7BAFE011E1CDD194BA8465A6A95427E
:100FC00025D920BF3000FFF707FF154A0020536ADC
:100FD0009845DAD8D5E7124A0020536A8B42D4D319
:100FE000926A0130A242D0D2581A421E9041C0B239
:100FF000CBE70B4A0020536AAB42C6D3926A01206A
:101000009145C2D9E81A421E9041C0B2BDE79B6A21
:101010009C42D7D99542D5D1D3E7C046A81100202C
:10102000004005401509001010B5024A0248FFF7BC
:1010300077FA10BDF0C60310043700200300416AA0
:101040000A00986A596A8A42FAD17047034B596A72
:101050000A00986A596A9142FAD1704700400540E7
:1010600070B504000D00124A536A1900966A536A5B
:101070008B42FAD13000190024184D41AB4211D8EF
:101080000ED02B000A494A6A9A42FCD307D1084A7B
:1010900002E0516A994202D1916AA142F9D370BD2E
:1010A000A642EED9012301246442E5175B42E9E739
:1010B00000400540064A536A9942FCD807D1044BC8
:1010C00002E05A6A914202D19A6A8242F9D3704789
:1010D00000400540F8B5040006200D0000F076F948
:1010E000002842D0364B3749E21853425A418023F8
:1010F000DB039C469205344B62441A60334B1A6002
:1011000010000B689843FBD12D4B8021E3185A4205
:1011100053412F4A5B0049009952062000F056F9CE
:101120002900C00000F0FEFA0130C3091ED140279B
:1011300001226262A362266BF30722D4E36A254B85
:101140000620E51800232B60266300F03FF93900E4
:10115000800000F0E7FA7022E36A5A407E231340D1
:101160002B601D4B23630323A364F8BD1B4A9342EA
:101170001ED900231A4A1B4F6262A362266BF30733
:10118000DCD5194B144AE3181A60656AA26A062076
:10119000AD01AD1800F01AF9144900F0C3FAAD0220
:1011A0000100280000F0BEFA0021FFF759FFC5E753
:1011B0004006800E9F011A003F180300B9E7C046A1
:1011C0000080FCBF08C0004000E0004000F000408C
:1011D000583700202C10000001030000FEFF000023
:1011E000FFFF0000C0FF3F00303000004E0E000047
:1011F000F8B5DE464E4657464546E0B58B460500F7
:101200000A991800160000F08DFA0A9B6C001F0264
:10121000324B64199C46A4006444636881469F4233
:1012200000D967602B1FDBB29846012B30D9C02351
:1012300080229B01E31812011A60294BAD00595915
:101240009A4600291BD1226876017240E02680234D
:10125000164042465B01E3181E60012A30D9802304
:1012600080229B01E31812011A6053464A466760C8
:101270005A51F0BCBB46B246A946A046F8BD5869D3
:1012800000F050FA431C5800C0180338FDD2DAE7CA
:101290005B46012BCBD1C02303229B01E3181A60CC
:1012A000023AA3681A42FCD0E02322687601564035
:1012B0001E4080230A4A5B019246E3181E60AD007F
:1012C0005A462168514003220A401A6001225B46B7
:1012D0009A40A3681A42FCD0C1E7C0460080004093
:1012E00008370020F0B546464F46D646C0B51F0029
:1012F000344B44009C462418A40064446368884628
:101300001600FF2B02D880235B006360031FDBB253
:101310009A46012B30D9C02380229B01E318120189
:101320001A60294B85005959994600291BD122681A
:1013300076017240E0268023164052465B01E31896
:101340001E60012A30D9802380229B01E3181201FC
:101350001A6080235B0063604B465F51E0BCBA4675
:10136000B146A846F0BD586900F0DCF9431C5800AE
:10137000C0180338FDD2DAE74346012BCBD1C02396
:1013800003229B01E3181A60023AA3681A42FCD0B8
:10139000E0232268760156401E4080230A4A5B0102
:1013A0009146E3181E6085004246216851400322A1
:1013B0000A401A60012342469340A2681342FCD0BF
:1013C000C1E7C0460080004008370020014B800084
:1013D000C058704708370020F8B5040020481D00A9
:1013E00017000E0000F09EF90100380000F09AF995
:1013F000069B29041B0319432368002B1EDB194B92
:10140000194DE21853425A4180235B019C46120356
:10141000164B62441A60164B1A6017002B689F43E4
:10142000FBD1144B2660E2182123A06013602368CF
:10143000002BFCDA0823E1601360F8BD3F2322682B
:101440001340B342DBD1A3681B051B0D8342D6D1E9
:10145000EE22E368D20213408B42D0D1EDE7C046C2
:10146000001BB7000040FDBF08C0004000E0004086
:1014700000F00040043000008023024A9B000B4330
:10148000D362704700800540142310B5010018880E
:1014900004331B88984710BD162310B50100188827
:1014A00002331B88984710BDF8B54746CE4680B535
:1014B0000F1E19D014239946043304000025012679
:1014C00098464B461888434621681B88984701C4B4
:1014D000431E9841013540420640AF42F1D13000F1
:1014E000C0BCB946B046F8BD0126F8E7AA23064AB3
:1014F0001B0113602F230549D360054B1960536806
:10150000002BFCDA7047C0460040024000B0FA00F1
:10151000006002407047C04610B50148FEF7E8FF82
:1015200014C7031070B5074D074EB54209D2002409
:10153000013E761BB60808CD984723000134B3421C
:10154000F9D170BD50C603108CC60310054B064A76
:1015500006491A60064A074B1A6010000B68984348
:10156000FBD1704700E00040BFCDFBFE08C000404B
:10157000FE7F3C0000F00040044BDB6C002B03D1ED
:101580008022034BD2021A607047C04600001150FF
:101590004C201150044A054B1A60054A1368DB01C0
:1015A0008033FBD17047C046FFFFFF0100F00040D1
:1015B00008C000404022034B9A675A671A67DA66F0
:1015C0007047C04600F0014010B5FEF7D7FF10BDD0
:1015D00070B5044D044C2800C022A16801F05CF8ED
:1015E000A56070BD0000002000ED00E0002310B5F4
:1015F000294C82B0A367FFF779FF0122274B1A60BD
:10160000636C012BFCD10322254B1A60224A936B99
:10161000012BFCD1013300930121224A22480433DB
:10162000FFF7DAFE052301210093204A2048FFF747
:10163000D3FE0022022104201E4BFFF753FE00229E
:10164000012105201C4BFFF74DFE00220021072041
:101650001A4BFFF747FE002200210820174BFFF727
:1016600041FE8023DB000093002200210920134B60
:10167000FFF7BEFD0022104B00210620FFF732FECF
:101680000420FFF7A3FE0E4900F04CF801000020F3
:10169000FFF7F2FE02B010BD008000403CB00040F9
:1016A00030B00040002F685900800240008C86470F
:1016B00000C00240001BB70040597307006CDC02F9
:1016C00040420F0001480421014B1847C01100207F
:1016D000A9140010124A936F9B0815D29066D16628
:1016E000002905D0FFE7FFE7FFE7516F106F704754
:1016F00004B580210906C2175140002800D0C84314
:101700003AF056FF002104BDF0B5146E556E576FC8
:10171000166FFFF7E3FF1466556657671667F0BD4F
:10172000000000D0114A936F9B0813D210665166D7
:10173000002905D0FFE7FFE7FFE7516F106F704703
:1017400004B5002801D00020C0433AF031FF002149
:1017500004BDC046F0B5146E556E576F166FFFF797
:10176000E5FF1466556657671667F0BD000000D0A8
:1017700094464A4A926F9208624601D228E0C046D7
:10178000F0B5464E346E756E776F366F00F020F808
:101790009446424A14665566576716676246F0BD1E
:1017A00094463E4A926F9208624601D254E0C04687
:1017B000F0B53A4E346E756E776F366F00F04CF8B8
:1017C0009446364A14665566576716676246F0BDFA
:1017D000002B24DB11D000293EDA00B5C94340427A
:1017E00000D1013100F038F8C943404200D1013145
:1017F000DB43524200D1013300BD002AEBD1002867
:1018000001D1002905D00020C90FC90701D1C0436B
:10181000410800B53AF0A4FE0022002300BD00B547
:1018200000290ADBDB43524200D1013300F014F8F7
:10183000C943404200D1013100BDC943404200D1FB
:101840000131DB43524200D1013300F005F8DB43A4
:10185000524200D1013300BD002923D1002B18D101
:10186000002A0CD0BC460D4F38667A660021002352
:10187000FFE7FFE7FFE77A6F386F6746704700289A
:1018800001D00748010000B53AF06AFE00220023AB
:1018900000BD02000B00002000217047000000D0B6
:1018A000FFFFFFFF002B00D0BFE0130C28D1002A60
:1018B000E7D080B4114F39667A66FFE7FFE730B4AE
:1018C000040C7B6F396F1B0423433B667A66FFE78A
:1018D000FFE7FFE7C04684B27B6F3D6F1B042343E5
:1018E0003B667A66FFE7FFE7C04600232C042D0C19
:1018F0007A6F386F00196941B0BC7047000000D0A2
:10190000F0B594460025140E01D112020835140FCB
:1019100001D112010435940F01D192000235D40F88
:1019200001D152000135D40B0134254F7C66254C82
:101930003C660E0C93B2FFE7FFE7FFE73C6F6643A0
:10194000360C7703BE467343DF0B5B04C01AB94104
:10195000130C7343DB18C91ACE086643360CB64421
:1019600093B273431F0F1B01C01AB941130C734389
:101970001F0B1B05C01AB941860D8F023E436643FB
:10198000360C092D24DB520A7243801A7703460A6B
:101990006643360C16235B1BDE40DF40BF196446EE
:1019A0006643821B7046043506330100D940A840C7
:1019B000C01900D30131A24206D20023F0BD0000BD
:1019C000000000D0FFFFFFFF121B0130F3D3F1E74F
:1019D00009277F1BFE406446A2B27243801A00D2E0
:1019E0000139220C7243130C1204821A99410B0024
:1019F0007046043513370100F940A840801900D320
:101A00000131002B02D1A2420AD2F0BD013000D335
:101A10000131121BFAD2013BF8D1A24200D2F0BD33
:101A2000013000D30131121BF7E7F0B51C0C00D0D8
:101A300080E00CB400251C0A04D11B02160E3343AF
:101A4000120208351C0B04D11B01160F334312017F
:101A500004359C0B04D19B00960F33439200023552
:101A6000DC0B02D192185B4101351C0097186441D0
:101A70000134464F7C66464C3C660E0CFFE7FFE7A0
:101A8000FFE7C0463C6F6643360C7703BE4697B20D
:101A90007743C01B00D20139C01B00D201399FB26D
:101AA0007743C91BC91B170C77437E04FF0B801BB0
:101AB000B941CE086643360C0C2D33DBB644120B0D
:101AC0001F053A431B0B97B27743C01B00D2013965
:101AD0009FB27743C91B170C77433E043F0C801B12
:101AE000B941860D8F023E43664329277F1BFE4086
:101AF0000C3D7746AF40BF1930BCA2B2ABB27243C7
:101B00007343801A9941220C7243130C1204801AF9
:101B1000994102000B000137001BA941F9D2781E40
:101B20000021F0BD0C277F1BFE4077467F0BAF40A6
:101B3000FF19E0E700245D1C07D0144F7D6639666D
:101B4000FFE7FFE7FFE7FFE73C6F95B29EB2654313
:101B50006643401BB141150C1E0C654366433604B9
:101B60002F0C3E432D04401BB141994204D2020088
:101B70000B0020000021F0BD01D19042F7D3801A64
:101B8000994101349942F2D3F6E70000000000D0F9
:101B9000FFFFFFFF48404140484018B41B4B5B68C3
:101BA000FC46019308BD04DFD31E001018B4174B88
:101BB0001B68FC46019308BD00DFDD1E0010944643
:101BC000134A926F920809D2624618B40F4BDB6831
:101BD000FC46019308BD0CDF952100100C4AF0B5BE
:101BE000146E556E576F166F6246FFF7EEFF084A88
:101BF0001466556657671667F0BD18B4034B9B68AB
:101C0000FC46019308BD08DF39200010281E002083
:101C1000000000D0FFB550404240504059404B407A
:101C2000594000E0FFB5154F4C00640D03D0BC4295
:101C300004D10C0314D80020090D09055C00640DC3
:101C400003D0BC4204D11C030AD800221B0D1B0583
:101C500001264B4009D44B4003D58B4200D1824230
:101C6000FFBD9942FCD19042FFBD0B43DB180343FB
:101C70001343F5D0C9434918FFBD0000FF0700001A
:101C800000B5FFF7CFFF01D0002000BD012000BD4F
:101C900000B5FFF7C7FF804100BDC04600B5FFF7A4
:101CA000C1FF01D9002000BD012000BD00B5FFF734
:101CB000B1FF01D9002000BD012000BD00B5FFF734
:101CC000A9FF804100BD012040054A00121804D838
:101CD0005A00121801D800207047012070470000F8
:101CE0000021002805D17047C1174840401AFAD09A
:101CF000C90713B5064B1B6898470CBC441CA2408F
:101D00001005120B0349091B09051943114310BDA6
:101D1000503700201F04000010B54C00620D8023D6
:101D2000D218DB00D21A5B057E2A10DD9E3A13DA48
:101D3000CC170903490819435242D14064000134C9
:101D40001532202A05DAD0400843604310BD002038
:101D500010BD0846604310BDC80FC018013810BD43
:101D600018B4044B5B6AFC46019308BD24DF45238D
:101D700000100000281E002018B4044BDB6DFC4648
:101D8000019308BD5CDF512400100000281E0020D4
:101D9000C94211D300B549004908002200F018F8E3
:101DA000002904D4002240428A41114600BD80210E
:101DB0000906002000BD000018B4044BDB6EFC4691
:101DC000019308BD6CDF532300100000281E002083
:101DD00018B4044B9B6FFC46019308BD78DF6F235A
:101DE00000100000281E002018B4044BDB6FFC46D6
:101DF000019308BD7CDFDD2300100000281E0020B9
:101E0000132370B51D78012D19D014DD1E48FFF77E
:101E100043FB06001D48FFF73FFB1D4C80223100AD
:101E2000200000F039FC022D06D01A48FFF72CFBE9
:101E3000194B186070BD164C184BA364F5E7174B8F
:101E4000134C23606360A360E36023616361A3615B
:101E5000E36123626362A362E36223636363A36358
:101E6000E36323646364A364E36423656365A36538
:101E7000E36523666366A366E36623676367A36718
:101E8000E367A364D1E7C046534400005346000013
:101E9000281E00204C33000050370020A11E0010E7
:101EA00007B5604601880A0A0230DF2AFAD1C9B2B2
:101EB000820804D3028840880004104300E00068D0
:101EC000014A5050039007BD281E00200FB403BCE8
:101ED0000CBCF0B50124E407634000E0F0B50C0D44
:101EE000CF0F661E3605891B640503D3C9434042E4
:101EF00000D30131640D03D0661CF60A07D0E41B41
:101F000000207F00791C89078912803C24031D0D65
:101F1000DF0F6E1E36059B1B6D0503D3DB4352425C
:101F200000D301336D0D03D06E1CF60A07D0ED1BF4
:101F300000227F007B1C9B079B12803D2D032F1BE3
:101F4000661B58D4A446202E46DA20371400BC4025
:101F50001D00BD40F24033412A4380185941CB0F48
:101F600005D0C943C04300226442504151416246FA
:101F70004D0D28D10D0D07D100281FD02419404147
:101F80004941013A0D0DF9D0640006D3013000D368
:101F90000131002C01D140084000013A0BD4941CBF
:101FA000E40A04D112051144DB071944F0BDD90736
:101FB000204B194300E0D9070020F0BD0029DDD1F6
:101FC000002CDBD1F0BD0132C6074008CD07284305
:101FD0004908002EE1D0D9E73C2E29DA203E4037CF
:101FE0001400BC4000D00124F24014431A00BB404E
:101FF0001C43D317ACE7AC46202F08DA2036040088
:10200000B4400D00B540F84039412843A5E73C2FC6
:102010000CDA203F40360400B44000D00124F840E0
:1020200004430800B1400C43C117EAE7100019004F
:10203000002494E70000F07FF0B50C0D661E360515
:10204000891BE60A6405640D02D0651CED0A04D004
:10205000002001210905803C2403A4461C0D671EB5
:102060003F05DB1BE70A6405640D02D0651CED0A21
:1020700004D0002201231B05803C240377406444E4
:1020800097B484B296B27443070C7E43150C6F4329
:1020900080B26843361802D3012000043F18300490
:1020A000350C00197D41844688B29AB250430C0C1D
:1020B00062431F0C7C438EB27E43921902D30126E9
:1020C0003604A4191604170C3618674101BC81B2F6
:1020D0009AB25143040C62431B0C5C4380B25843D8
:1020E000121802D30120000424181004130C401805
:1020F00063412D185E410020474106BC88B293B26F
:1021000058430C0C6343120C544389B251435B187F
:1021100002D301210904641819041A0C0918624138
:102120006D1856410020474118BCF902720D114349
:10213000F0026A0D1043ED020A0D03D16D19404102
:102140004941013B124E9B1B7600B3420ED26D00FB
:1021500007D30130002671416646354301D140085E
:1021600040001B05C918E4072144F0BD0BDA013318
:1021700006D1013004D101314F0D01D04908F2E7F9
:10218000E1070020F0BD013631050020EBE700003B
:10219000FF030000F0B51C0D671E3F05DB1BE70ABF
:1021A0006405640D02D0661CF60A04D000220123E7
:1021B0001B05803C2403D0252D060026F6432E6601
:1021C0001E096E66CE0FF619B44649004F0D02D0B7
:1021D0007E1CF60A03D000200021403F3F033E1B37
:1021E000B600B444013F7F05C91B49082E6F013674
:1021F00076089C02950D25437543ED137543AD1389
:1022000001356D10F603761B0CB4CC02450D2C4342
:10221000A2B2B3B25A43270C7B43350C6F43A4B22E
:102220006C431B1902D3012424043F191C041D0C08
:10223000A4187D4124196D41009A91B2ACB261435A
:10224000170C7C432B0C5F4392B25A43A41802D361
:1022500001221204BF182204230C52187B41019C56
:102260006C431B19520ED9010A434401A01A81B2D2
:10227000B2B2514303145A43360C734387B27743C7
:10228000D617D21900277E4136049B191704160C65
:102290007F185E417316ED18F301002680337541F7
:1022A000A90F06D16400690AE8055B0A184309D240
:1022B0002FE00422944480337541A90AA8059B0AA3
:1022C000184326D3404149412404009A019B0D0044
:1022D0005543641B4343E41A95B286B27543170C09
:1022E0007E43030C5F4392B25A43B61802D30122D5
:1022F0001204BF183204330C52197B4152429C41E4
:10230000002C02D40022013051414008CA0710437A
:10231000490802B06246D7079210084BD218084B02
:102320009A4203D212058918C919F0BD0020002A6B
:1023300001DC3900F0BD01331905F5E7FD030000AC
:10234000FE070000002200B5203200F010F808005F
:1023500000BD002200B500F00CF8CA179A4200D167
:1023600000BDD8430121C907414000BD00220B1523
:102370000AD410B5944600F0A7F81414013400DA1A
:102380000021CB17144C20470020002170476244E5
:10239000343A0CD40C2A07DA04009140904052429F
:1023A0002032D440214310BDD843D94310BD203240
:1023B00007D40C469440524220321141D040204371
:1023C00010BD0800C917203203D4524220321041F8
:1023D00010BD1800190010BD8F2300104A00520DC7
:1023E000144BD21A13DDFF2A1EDAD205CB0FDB07FE
:1023F0001A43C300400F0903490A084310435B0016
:1024000001D301D0013070474308FBD2704702D09E
:10241000C80FC00770470A0312130132F8D1420FE8
:10242000072AF5D1012200E0FF22C80F0002801820
:10243000C00570478003000000210A00002104E06D
:1024400000210A00C11704E00022002306E0C04674
:102450000022CB1758405940C01A994130B5184C4A
:10246000A21A002903D1010010D00020203A4C15F7
:1024700012D104D2013A001849414C0DFAD3114C43
:10248000A24204D212058918DB07C91830BDD24315
:10249000520D00200021F5E703D4013A001849410C
:1024A000FBD50B324405C00A4D052843C90A640018
:1024B00003D0002460416141E1E7E0D34408F8E73C
:1024C00032040000FE0700000A0DCC0F531E1B054E
:1024D000C91A520503D3C943404200D30131520DFA
:1024E00003D0531CDB0A07D0121B00206400611CC0
:1024F00089078912803A1203014BD21A70470000F3
:10250000FF03000051434343C9188C46110C83B2AA
:102510004B4310B4040C614392B280B25043624307
:102520001C041B0C001910BC59411304120CC018D8
:10253000514161447047000007B548404140484060
:1025400001E0C04607B54200120E03D0FF2A03D1B6
:10255000420218D8C00DC0054A00120E03D0FF2A4F
:1025600003D14A020FD8C90DC9050122414005D443
:10257000414001D5814207BD884207BD014349184A
:1025800001D0C043001807BD00B5FFF7DBFF01D045
:10259000002000BD012000BD00B5FFF7D3FF01D929
:1025A000002000BD012000BD01231B064200D218FF
:1025B00004D84A00D21801D8002070470120704783
:1025C000132310B512481C78FEF766FF0100012C9A
:1025D0000AD003DD80220F4800F05EF80E48FEF7B7
:1025E00053FF0E4B186010BD0A4C5422200000F01F
:1025F00053F80B4B6365A365E36523666366A366C7
:10260000E36623676367A367E3672362E361E5E744
:1026100053460000281F00204C3300005037002094
:102620002526001007B5604601880A0A0230DF2A15
:10263000FAD1C9B2820804D302884088000410434A
:1026400000E00068014A5050039007BD281F002099
:1026500010B504002DF0D2FB002804D0034B041960
:102660009C4200D810BD0248FDF742FF0000042044
:1026700020C7031010B52DF0CBFB10BD014804217D
:10268000014B1847D0110020A9140010014B1B6802
:1026900018470000D0110020014B5B68184700006C
:1026A000D011002010B5FFF7D3FF10BD10B5FFF714
:1026B000CFFF10BD10B5FFF7DDFF10BD10B5FFF760
:1026C000D9FF10BD10B5FFF7D5FF10BD9A4200D25B
:1026D000885470477047C046F8B557464E46454641
:1026E000DE46E0B599460A9B07009A460D9B884650
:1026F000934615000B9E9B0710D10C9B9E420DD25A
:102700009D1B14000E005D4422004B460134310035
:102710002020B847A542F7D1B0460B9E002E27D007
:10272000444675195346AA1B013E985D21004B464D
:10273000B847002EF6D123002C0098460D9B9B072E
:102740000FD55B46E51A0C9BAB420AD94646984624
:1027500022004B46310020200135B8470134A845FE
:10276000F6D82000F0BCBB46B246A946A046F8BD4C
:102770002C00E3E7F0B54F464646D646C0B584B0D8
:1027800098460EAB1B78129F994694460D9C109B61
:10279000119EBA0725D4002E4BD19C4200D3BFE036
:1027A00001223A4092461F2C00D9B8E00C9A551EDF
:1027B000302201E0202C03D001342A55A342F9D85D
:1027C0005246002A0DD0A6420BD9202C44D00C9A98
:1027D000551E302201E0202C3ED001342A55B4424F
:1027E000F9D1FA064DD57A053FD4002C39D10F9B8B
:1027F000102B00D179E00F9B022B00D18AE030230F
:102800000C9A012413704B46002B3FD02D230C9AB9
:10281000135501340C9B624600930397434602967E
:102820000194FFF759FF04B0E0BCBA46B146A84690
:10283000F0BD012215003D40AA463A422FD04A463B
:10284000002A02D10C323A4200D0013E9C42BAD258
:102850001F2CABD9202E27D92024FA06DAD57A05E9
:1028600003D4A3422DD0A6422BD00F9B102B32D0E5
:10287000022B20D0202CCDD030220C9B1B191A709B
:102880000134202CC6D04B46002BBFD17B070DD482
:102890003B07BFD520230C9A13550134BAE79C425D
:1028A0009FD21F2C00D881E720249AE72B230C9A73
:1028B00013550134AEE7202CACD00C9B1B1901340E
:1028C0003AE0631E012C92D00F9A102A2AD0022AD5
:1028D0002FD01C00D0E7BB060ED4202C9AD00C9B26
:1028E0001A19013478231370C4E7BB060DD478237A
:1028F0000C9A01241370BFE7202C00D18AE75822DC
:102900000C9B1B191A700134B4E758230C9A01244C
:102910001370B1E70C9A603301241370ACE72024E4
:1029200000265EE7023CBA06E9D40C9A12191C0094
:10293000D8E70C9A9246534462221A709AE7C0462E
:1029400010B5002800D110BD01F0E8FBFBE7C04640
:102950000B0010B5002802D049681B68984710BDCD
:10296000F0B5DE4657464E464546E0B59BB09B4621
:10297000249B89469846259B0B900C9240464246E4
:1029800019009A46FFF79FF9002800D0D8E00122ED
:1029900040465146774B5242FFF790F9002800D04D
:1029A000CEE0012240465146734B5242FFF770F988
:1029B000002800D0C4E00022002340465146FFF723
:1029C00067F9002800D0B9E1424653460A920993BC
:1029D0008023289ADB001A400E92289A1A4201D1CD
:1029E000062326930A9A099B1600134300D0C7E0DA
:1029F000289B002500261B0500D49BE100230D9396
:102A0000269A0D9B9A4200DC9FE1D01A431E269322
:102A10008023289ADB001A430023002728920D9375
:102A2000279B0024BB4200D9DC1B0223289A1A40B2
:102A30000E92289A134203D07B427B415B421C409A
:102A40000D9B002B07D00A9809992A003300FFF745
:102A5000B6F80A9009910022002340465146FFF73C
:102A600017F9002805D080200006844609996144A2
:102A70000991289A414B0B9D13400493269B0A9A77
:102A80000293099B03940092019349465B462800F8
:102A90000C9A00F08BF90400002F62D0289B2200D2
:102AA00098061F23C0179843631C984649465B4607
:102AB0006530A8470D9B0025DA179C18DB0F9A4656
:102AC0005440013F01E0202D13D00AAA94461F2351
:102AD000200063440A2101355E19FEF723FE3031E0
:102AE000317020000A21FEF71DFE26000400092E89
:102AF000E9D805230693002304930A33039353462E
:102B000005970B9F029312AB009342465B464946E2
:102B100038000195FFF72EFE0E9B0400002B20D0FD
:102B20000C9BC51A279BAB421BD91E0022005B469B
:102B3000494620200135B8470134AE42F6D810E0AE
:102B4000289B42460493279B49460393269B0B9858
:102B500002935346009201935B460C9A00F026F9CB
:102B6000040020001BB0F0BCBB46B246A946A046FC
:102B7000F0BDC046FFFFEF7FFFFFEFFFFFF7FFFF56
:102B8000734B099F9C467800400D6044FFF7ACF8FA
:102B9000704A714BFFF731F8704A714BFFF706F836
:102BA0003B03704A1B0B1A4304000D003000110058
:102BB0006D4B0022FEF7F1FF6C4A6D4BFFF71DF8DD
:102BC00002000B0020002900FEF7F0FFFFF7A4F839
:102BD0000D90FFF789F8674A674B04000D00FFF777
:102BE0000CF80022654BFEF7E1FFFFF795F8644A09
:102BF0000600644B20002900FEF7FFFF04003000B0
:102C00000D000F96FFF770F85F4A604BFEF7F5FF77
:102C100002000B0020002900FEF7BFFF02000B009E
:102C200006000F00FEF7E9FF320004000D003B0034
:102C300030003900FEF7BAFF002210901191544B7A
:102C400020002900FEF7BBFF0022524BFEF7AEFF2B
:102C500002000B0020002900FEF7B1FF00224E4BBE
:102C6000FEF7A4FF02000B0020002900FEF7A7FFDB
:102C70000D008021040032003B000020C905FEF752
:102C80008CFF02000B0020002900FEF78FFF0200DE
:102C90000B0010981199FEF792FF0022314BFEF7BE
:102CA00085FF3E4B0F9C9C46644400222305FEF7A3
:102CB000A4FF05000E0002000B000A980999FEF718
:102CC000E7FF00280AD00D9B2800013B31000D933F
:102CD0000022304BFEF773FF05000E00C6270D994A
:102CE0002B0063318F42BF4128997F420437090589
:102CF00000D495E6334300D182E6099C284A21009E
:102D0000284B0A98FEF7D2FF002808D000222100A5
:102D1000254B0A98FEF7BCFF002800D070E6269BE2
:102D2000002B00D17CE60E9B5A1E9341269AD31AA3
:102D3000269375E6002304270D9371E643460A9314
:102D400080231B065344099342E6002326935FE643
:102D500001FCFFFFFB799F501344D33FB3C8608B46
:102D6000288AC63F0000F03F0000F83F61436F63D0
:102D7000A787D23F71A379094F930A400000E03F33
:102D80001655B5BBB16B0240EF39FAFE422EE63F55
:102D900000002C400000244000001840FF03000009
:102DA0002D431CEBE2361A3F80842E41F0B54E468F
:102DB000DE4657464546E0B597B09946209E219F8E
:102DC000229B8346984607910C923B0032003000CC
:102DD0003900FEF778FF002800D0A9E10122300079
:102DE0003900CA4B5242FEF753FF002800D0E1E001
:102DF000012230003900C64B5242FEF75FFF002827
:102E000000D0B7E0002230003900C24BFEF756FF79
:102E1000002800D099E0002230003900BE4BFEF7B8
:102E200037FF002800D090E0002200233000390056
:102E3000FEF72EFF002800D0B1E000230D93249B65
:102E40005B0501D40623984608AB9C461722002454
:102E500030234146624404E0013413550139202CEB
:102E600001D00929F8D8884630003900FEF754FF10
:102E70004346DA00A94B05009B181A685B68089264
:102E80000993FEF731FF02000B0030003900FEF716
:102E900084FE089A099BFEF7B0FE0A900B91FEF79C
:102EA0005FFF8246FEF71CFF02000B000A980B9999
:102EB000FEF773FE00229A4B0A900B91FEF7FEFE7E
:102EC000002800D1C0E001239C46E2445046FEF7B2
:102ED00007FF02000B0008980999FEF7DFFE0028A3
:102EE00002D000239A4601354346002B6AD008AB36
:102EF00017269C4608956644554614E001235B421C
:102F000043440A2128009A46FEF70CFC0134303174
:102F10003719397028000A21FEF704FC092D00D862
:102F2000D0E0D0460500202CE8D10EAB9846032314
:102F3000249A1340012B00D196E02023249A019378
:102F40000392239A434602921EE0249B5846049320
:102F5000239B00960197039343460C9A029307998B
:102F60004B46FFF7FDFC17B0F0BCBB46B246A94686
:102F7000A046F0BD249B5B070ED40322694B249925
:102F80000192039123990291009358464B460C9A63
:102F90000799FFF7A1FBE6E70422634BEFE73B004D
:102FA000320000200021FEF7F8FD012306000F008B
:102FB0000D9344E7249B0393239B029304230193E3
:102FC0005A4BE1E72800FEF78FFE02000B003000AD
:102FD0003900FEF7E2FD524B002206000F00FEF71B
:102FE00057FE0EAB984600280AD100223000390067
:102FF0004B4BFEF763FE002802D1EB0700D50135ED
:10300000202C94D008AA94461723280063440A2150
:1030100001341E19FEF75EFB3031280031700A21A1
:10302000FEF758FB051EEBD10323249A1340012B16
:103030001BD0202C00D180E70D9B002B35D02D22FA
:103040004146631C0A5579E700220A980B99344BD4
:10305000FEF71EFE002800D046E75346002B51D154
:1030600001239C46E2443FE72024239B002BE0D031
:103070000D9B002B03D1249A0C33134202D0239BC7
:10308000013B2393239BA342D3D908AB9C46172231
:1030900030236244202C00D14FE72399013413558B
:1030A0008C42C6D0202CF8D147E7249B5B0724D460
:1030B000249A2300120700D440E72022414601331E
:1030C0000A553BE75746089D202C00D12DE72200EA
:1030D00030214046002F09D00132B154202A00D1BE
:1030E00023E7D3431B191B18002BF5D10EAB9846D1
:1030F0002E234146541C8B5482E72B224146631CED
:103100000A551BE7DB0700D4EEE6A9E7FFFFEFFF58
:10311000FFFFEF7F65CDCD4165CDCDC1C0C90310A7
:103120000000E03FC4C70310C8C70310D4C7031092
:10313000249B0393239B029303230193004B23E7D8
:10314000D0C70310F0B5DE464E4657464546E0B5BB
:103150009FB01C00289B91460993C94AC94B8B46D6
:1031600008901A60002900D118E2002320789A46BE
:10317000002800D11AE226001D005C460AE02A0061
:103180006F1C4B46089D2100A8473D000136307852
:10319000002870D02528F2D110239B46083B9A4680
:1031A000043B9846023B00219C46721C1078160096
:1031B0000300203BDBB2102B03D8B34F9B00FB581E
:1031C0009F460300303B092B32D900230A932A285B
:1031D00068D0002398462E283ED00300683BDBB21F
:1031E000122B1CD8A94A9B00D3589F4601230132B9
:1031F0001943DBE7634601321943D7E743460132FF
:103200001943D3E75B4601321943CFE753460132F6
:103210001943CBE780235B00707819430136030024
:10322000253BDBB2532BAAD8994A9B00D3589F4623
:1032300000270300B800C01901364000C0183378D9
:1032400030381A00303A0700092AF3D90A901800DA
:10325000002398462E28C0D180237078DB001943C4
:103260000300303B721C092B00D8A1E12A2800D1B1
:10327000B2E11600B1E7A346AA462C00D14503D817
:1032800001235B424B449A464B4652465946002026
:10329000089DA84720001FB0F0BCBB46B246A94617
:1032A000A046F0BD099B40CB0A96002E03DB507868
:1032B0000993561C8DE72838014370420A90099300
:1032C0005078561C85E7782800D1DFE1582800D1D6
:1032D0004CE26F2800D14FE3622801D100F030FCAE
:1032E00010230A009A430B92692801D000F0A9FC30
:1032F0000A230C934B0500D5D0E10B9A80231100D3
:103300009B0019408B461A4200D0A1E28023110095
:103310005B0019408A461A4200D0B6E313005B06F0
:1033200000D5EDE2130009991B0601D400F076FCEC
:1033300008C91BB2D8171A18424092B20991934695
:10334000DA0F1292002B09D1802310220B99DB0097
:103350000B4091430B91002B00D0E4E20B9A6123C8
:10336000920600D541230EA91F228C46DBB262448F
:103370000A3B5F461395A34655460C9CB2460D93F7
:1033800016000AE03033DBB201357355A74200D294
:10339000EDE2202D00D1EAE2070021003800FEF71F
:1033A000C1F9CBB20929EDD90D9A94466344DBB239
:1033B000EAE780239B007078194301362FE7707885
:1033C000682800D1CDE180230136194327E77078C2
:1033D0006C2800D1BFE180235B00194301361EE752
:1033E000462800D19BE10722099B049107339343B0
:1033F0000A9A19000392424602920CC90898009258
:10340000019309912A004B462100FFF7CFFC0136BA
:103410000500BCE62A006F1C4B46089D21002520B4
:10342000A84701363D00B2E68B0700D4ADE1099B09
:103430002A009A466B1C9846534601CB21009A46B7
:10344000089F4B46C0B2B8470A9B9C466544012B77
:1034500000D886E2089B4746B04626004C4699466F
:103460003A002300013731002020C847AF42F7D18E
:10347000A1465346340046460993013687E6C046C6
:10348000453100103C370020DCC7031020C8031072
:103490006CC80310099B04CB9B4643460992002B42
:1034A00000D1C6E013789C46002B00D1BDE3434613
:1034B000013B099A0133D0180A9F130001E08342AF
:1034C00003D05A780133002AF9D1099A0A979B1A36
:1034D0000B9380230A00DB001A400C92194204D09F
:1034E0000B9B434501D943460B9302231A000A4024
:1034F0000D920B4200D187E16046002800D168E1BF
:103500000C9B002B00D10DE1A844C246099B5746F5
:103510005B1B9846089BB2462A0026004C469946FB
:1035200009E023003100551CC8474346585D002878
:1035300000D126E12A009742F3D1A1463D00340094
:1035400056460D9B002B00D043E15B4601360993A4
:103550001DE6099B1A0008CA9246002B48D021227A
:1035600011438B460EA884461F2161440995002211
:103570000F27A4460D0002E0202A0CD00B003C00CF
:103580001C4020003730092C00D807380132A854DD
:1035900019090F2BF0D86446099D32E0DC4B2078E6
:1035A000089300239A46002800D0E4E5002465E64D
:1035B000434606000A9F9800C01801324000801957
:1035C0001678030030003038303B0928F3D930003A
:1035D000984616000A9700E6099B023604CB9046EF
:1035E000D2434046D2171040804609933078F4E524
:1035F00010220800904311321043834600224905EF
:10360000B0D55B46069308230593434604931023E5
:1036100003930023029316AB019200932A004B46BA
:1036200021000898FFF7A6F85346050001360993D4
:10363000ADE513789C46002B00D1F7E202235B42F4
:1036400037E7202302009A43472A04D180231B0135
:10365000194302239843452801D120231943072207
:10366000099B0491073393430A9A19000392424637
:1036700002920CC908980092019309912A004B46C6
:103680002100FFF76DF90136050080E510230C934A
:103690000C230A009A430B924B0503D501230B9A86
:1036A0009A430B92692800D127E6642800D124E6CA
:1036B0000B9A802311009B0019408B461A4200D0C0
:1036C00066E1802311005B0019408A461A4200D04F
:1036D00039E213005B0600D53CE113001B0600D461
:1036E000A6E2099B04CB1204120C934609935B4695
:1036F000002B00D09AE10B9A1033110099430B91E3
:10370000520500D492E100239A460B9B06930A9B34
:103710000593434604930C9B039300230CE1202361
:10372000194360E6099B0A9A5B1B98464B469146F3
:103730001F00B2462600089C2A003B003100A0472B
:1037400043460135585D0028F6D14A463400B94653
:1037500056460A92F5E6C0239B00B078194302361C
:103760005DE5C023B0781943023658E50C230A0002
:103770009A4314331A43103B0B920C934B058DD490
:1037800096E7A14634005646DBE60A9A012A00D89D
:1037900053E26B1E9F18089BB04626004C46994684
:1037A0002A002300013531002020C847BD42F7D14F
:1037B000A14634004646099B3A0001CB21009846B9
:1037C0007D1C4B46089FC0B2B8474346013609935B
:1037D000DDE40B9B0A9AA8469A4200D8B5E69446C7
:1037E0006544ED1A089B4746B04626004C4699466C
:1037F0003A002300013731002020C847AF42F7D1FB
:10380000A14634004646A0E60B9A0A99531C914201
:1038100000D814E24B199B1A1F00089BB2462600E1
:103820004C4699462A002300013531002020C84724
:10383000BD42F7D10A9BA14601330B93099B34008B
:103840001B7856469C466046002800D058E67CE629
:103850000722099B07339343013294469C446246F6
:103860005F6809921A68FB171093119310981199C9
:10387000030053400E930B007B400F9394460E9A27
:103880000F9B121A8B410E920F93FB0F62461293FD
:1038900000233A439B463DD00B9A6123920600D504
:1038A00041230022DBB20EA90A3B8C4692460D93BF
:1038B00043461F3262441395159655460E9E0F9F40
:1038C000A24690460C9C14930CE03032D2B2434690
:1038D00001355A55BB4500D18AE1202D00D18AE13E
:1038E00006000F002200002330003900FDF758FFCA
:1038F000D2B2092AE9D90D9B9C466244D2B2E6E7CE
:10390000FF23099904C913401A00099117E5C0461D
:10391000D52600100B9A1033110099430B915205D4
:10392000BAD500239A460B9B06930A9B0593434600
:1039300004930C9B0393129B02935346019316AB83
:103940002A00009321004B460898FEF713FF01362A
:1039500005001CE4FF22099B02CB11408B46099312
:10396000C5E65346454609930136FFF710FC564617
:103970005C46AA46139DD6E708230C930B910B993E
:10398000642800D084E60B9B5B0500D586E6B4E492
:103990000722099B07339343013294469C446246B5
:1039A00009921A685B6810009B4613005A4613433D
:1039B00007D10B9A1033110099430B91520500D592
:1039C000A1E60B9A6123920600D541230022DBB2C7
:1039D0000EA90A3B8C4692460D9343461F32624421
:1039E0005F461295A34655460400B24690460C9E8B
:1039F00013930DE03032D2B2434601355A550023BD
:103A0000BB4200D100E1202D00D100E104000F00F5
:103A10003200002320003900FDF7C2FED2B2092A8D
:103A2000E8D90D9B9C466244D2B2E5E70B9A61232C
:103A3000920600D54123DBB20EA90A3B1F228C4619
:103A40000D93230062445C461295170055469B4631
:103A5000B2460C9E08E03033DBB201357B55B442F0
:103A60000ED3202D0CD0040031002000FDF75AFEAB
:103A7000CBB20929EFD90D9A94466344DBB2ECE747
:103A800056465C46AA46129D3FE6099B1A0008CAA4
:103A9000D91713925A184A409246DA0F1292002B05
:103AA00008D1802310220B99DB000B4091430B912E
:103AB000002B2BD10B9A6123920600D541230EAA2D
:103AC0001F279446DBB20A3B0D9567445D46099378
:103AD000A3465446B2460C9E08E03033DBB20135B3
:103AE0007B55B4420ED3202D0CD0040031002000B1
:103AF000FDF718FECBB20929EFD9099A9446634421
:103B0000DBB2ECE756465C46AB460D9D0B9B2A00AC
:103B100006930A9B21000593434604930C9B089847
:103B20000393129B013602935B46019316AB0093FD
:103B30004B46FEF71FFE139B05000993FFF727FB7B
:103B400002230C931AE7099B04CB92461293002A96
:103B500008D1802310220B99DB000B4091430B917D
:103B6000002B2BD10B9A6123920600D541230EAA7C
:103B70001F279446DBB20A3B0D9567445D460993C7
:103B8000A3465446B2460C9E08E03033DBB2013502
:103B90007B55B4420ED3202D0CD004003100200000
:103BA000FDF7C0FDCBB20929EFD9099A94466344C9
:103BB000DBB2ECE756465C46AB460D9D0B9B2A00FC
:103BC00006930A9B21000593434604930C9B089897
:103BD0000393002302935B46019316AB00934B467D
:103BE000FEF7C8FD129B050009930136FFF7CFFAD7
:103BF000B44200D871E6149B54460E960F97AA461D
:103C00009846159E139D8EE6A64200D8FBE6139BB0
:103C100056469846AA465C46129D76E508C9D817CE
:103C20001A1842400991FFF78AFB00230B9350E4D6
:103C3000099B04CB9346099359E52F00BBE50B93F1
:103C400001E6063B0C939AE60EB4012210B585B04E
:103C500007AC08CC01000094524204480394FFF7DB
:103C600071FA05B010BC08BC03B01847CD2600108F
:103C700000B583B0009313000A0001000248FFF76B
:103C800061FA03B000BDC046CD26001000B585B076
:103C90000391012102900093034813004A4202A9B4
:103CA000FFF750FA05B000BD512900100FB410B550
:103CB0000C4984B006AA08CA0C680392002C0BD0E9
:103CC000009201220848524202A9A047012004B0F4
:103CD00010BC08BC04B01847180000F06BFA0020B4
:103CE000F5E7C0463C3700204129001010B5094ACD
:103CF0000300146884B0002C08D00122009106480B
:103D0000524203A9A047012004B010BD00F052FAAE
:103D10000020F9E73C3700204129001000BEFDE7F4
:103D2000094A03001068002805D00849C3188B42CF
:103D300007D81360704706480449C31810608B42C7
:103D4000F7D901204042F5E7383700200000042071
:103D50006437002000207047012040427047C04671
:103D6000030010B508001100002B05D1044B1A68A0
:103D70005B6800F073F910BD01204042FBE7C046CC
:103D8000E8C603100300013B10B508001400012B26
:103D900006D801230022210000F0E0F8200010BD29
:103DA00001204042FBE7C046012040427047C04628
:103DB000012040427047C046012040427047C04643
:103DC0000300022200209A424041704710B5FFF7DD
:103DD000A5FFC04610B50C0082B01900002A0AD019
:103DE000064B01920093020023000548FFF75EFF97
:103DF0000120FFF793FF034B1A00F2E710CA0310EC
:103E000020CA0310C0C6031070B5FDF78BFB074D29
:103E1000074EB54209D20024013E761BB60808CDF4
:103E2000984723000134B342F9D170BD8CC603100A
:103E3000ACC60310030010B5080011001B689847BA
:103E400010BDC046F0B546464F46D646C0B5437D88
:103E500080460E001700002B46D0002A3FDD4B1E87
:103E60009946244B0125002400209A460DE04B463C
:103E70001B5D0D3B5A425341325DDBB20A2A0BD027
:103E80002B00013401359F421ADD002CEFD143464F
:103E9000325D1B7D0A2AF3D1002BF1D1A04204DA56
:103EA0004346211A1B6830189847434650461B6802
:103EB00002219847013428002B0001359F42E4DCA1
:103EC000874204DD4346391A1B6830189847F619B3
:103ED000013E33780D3B5A42534142461375E0BCD4
:103EE000BA46B146A846F0BD0368110030009847B5
:103EF000F5E7C04650CA0310F0B5C6460C00096885
:103F0000060000B5802906D04B1C2360641826717A
:103F100080BCB846F0BD0F4B1D68002D16D0231D88
:103F200098460D4F02E02D69002D0FD02B68002B15
:103F3000F9D03B68002B01D0AB42F4D128004146B8
:103F40002268FFF77FFF2D69002DEFD101230021AB
:103F5000DBE7C0463037002034370020F0B5DE46BE
:103F600057464E464546E0B585B017001C00060092
:103F70000D00FDF76BF80023314A12184B41002B5E
:103F800059DB304908008A4638F03AFB01906B1C37
:103F900003D130002DF0DAFF0500002C26D12A4B8A
:103FA00098462A4B1C68002C15D0002F21D1284F91
:103FB00002E02469002C0ED02368002BF9D03B6866
:103FC000002B01D0A342F4D120002A003100C047C9
:103FD0002469002CF0D1019B002B28D1280005B0CA
:103FE000F0BCBB46B246A946A046F0BD194B984668
:103FF000D7E7174B994602ABDF1D0A239B4602E029
:104000002469002CE7D02368002BF9D04B461B68AD
:10401000002B01D0A342F3D12A0031002000C04779
:104020005B460122390020003B70C047E8E750465C
:1040300038F08EFAD2E70122074B5242A1E7C04680
:1040400040420F00A01C0020353E001030370020F9
:1040500034370020453E0010FFFFFF7FF8B557467C
:104060004E464546DE4698461A4BE0B59A461A4BF0
:1040700007000E0093469946184D53461C68002CC5
:1040800003D115E02469002C12D02B68002B01D03D
:10409000A342F7D1A368002BF4D031003800984731
:1040A0000028EFDDF0BCBB46B246A946A046F8BDED
:1040B0004B465B6A984508D84A46926A5A4501D2EF
:1040C000984502D002204042ECE701200021FCF795
:1040D000C7FFD2E7303700200040054034370020CA
:1040E0000A4A1368002B05D10CE01A001B69103234
:1040F000002B07D09842F8D1002902D10369136040
:10410000016170470029FCD01060FAE730370020C9
:1041100010B500F0AFF9012010BDC046F0B5CE4695
:10412000474680B583B06B460600DD1D2870FCF75E
:104130008DFF00231A4A12184B41002B2BDB194923
:104140000800884638F05CFA174B81461C68002C42
:1041500014D0164F02E02469002C0FD02368002BE6
:10416000F9D03B68002B01D0A342F4D120000122FA
:104170002900FFF767FE2469002CEFD14B46002B86
:1041800005D1300003B0C0BCB946B046F0BD4046D2
:1041900038F0DEF9F5E70122054B5242CFE7C04681
:1041A00040420F00A01C0020303700203437002090
:1041B000FFFFFF7F70B504002DF0C8FE0123010052
:1041C000050001222000FFF7C9FE084B1C68002CE7
:1041D00006D06368002B05D098472469002CF8D1DD
:1041E000280070BD2469002CF3D1F9E73037002096
:1041F000F0B5CE46474680B5A5B004000D00FCF7EB
:1042000025FF00232A4A12184B41002B49DB294E77
:10421000300038F0F5F900230700039322002B004B
:10422000254803A9FFF732FD039B8046002B14D1DC
:10423000224B1C68002C06D06368002B0BD09847DB
:104240002469002CF8D1002F27D1404625B0C0BCEE
:10425000B946B046F0BD2469ECE7184B1D68994695
:10426000002D22D0164C02E02D69002D11D02B68B4
:10427000002BF9D02368002B01D09D42F4D1039B81
:1042800028001A0004A90193FFF7DCFD2D69002D19
:10429000EDD14B4603951C68CCE7300038F058F957
:1042A000D3E70122074B5242B1E70395CBE7C04663
:1042B00040420F00A01C0020F93E001030370020C3
:1042C00034370020FFFFFF7F0FB400B583B004A98F
:1042D00001C90191FFF78CFF03B008BC04B0184777
:1042E000F0B50D1E15DD0E4B0D271A680D4B451947
:1042F000D31859424B410C495B005E5E2021047883
:10430000A64207D093691942FCD101301460A8423B
:10431000F5D1F0BD93691942FCD11760F2E7C046B0
:104320005C3700200080FCBF5837002030B5040007
:104330000D1E24DD002010211A4B013C1A689369E0
:10434000194217D1013093691942FCD113682354E3
:104350008542F4D1144B1B68002B0AD05023936381
:10436000516B183B0B4011498C4662441360002886
:1043700014D030BD0C4B1B68002BEFD1F7E70A4B74
:104380001B68002B0AD05022064B1B689A63596B9E
:10439000183A0A4005498C4663441A60032040429B
:1043A000E7E7C0465C370020FC36002034100000F0
:1043B000064B10B51B68002B06D00021044A12687A
:1043C0009163044A1068984710BDC046FC3600202F
:1043D0005C370020003700200822034B19688B69E6
:1043E0001A42FCD17047C0465C37002070B51B4EA6
:1043F0001B4B32680500D3185842434114331C004C
:10440000002D04D0174B1A68002A11D070BD154E2C
:104410003368002BFAD0002120009563FCF7CEF81A
:1044200020001149FCF706F9104B35601D60EDE7DF
:104430001D600E4B200019600B49FCF7D1F80121DB
:104440002000FCF7BBF8502233689A63596B183A86
:104450000A4007498C4663441A60D7E75C3700205E
:104460000080FCBFFC360020B14300100037002064
:10447000341000000D4B10B51B780D4B0D4C1B7804
:104480000D4B02211B780D4B00202360FBF7F6FF3C
:1044900002210120FBF7F2FFE12120684902FCF72D
:1044A00019FE01210648FFF71BFE10BD406C0410E9
:1044B000446C04105C370020486C0410004003403A
:1044C000E0110020F0B557468246454B454653441F
:1044D0005A4253418022DE464E46920294465B4247
:1044E000E0B51B0C3F4A1B04634413603E4A0D00B9
:1044F0003E4985B0136018000A689043FBD181469D
:104500000620FCF763FF53465A6802231A400192C3
:104510005246802104320292354AEF0D52446E0217
:10452000136003923B0032000224490006E09042EF
:1045300006D3023492197B418C4201D0002BF6D075
:104540002B0080262702A0463F1B05001C0076009A
:1045500003E04346FF1A012E3DD039002800B34640
:10456000013EFDF7DFF88442F3D244465946330258
:10457000A8469946614353464A461C611B688025FC
:104580005340FF22120213408022920194466D0193
:1045900055442B60029B019A63441A60524650684E
:1045A0000222039C0726226054462468104066407D
:1045B000CF2434402C60032418600E48504404601B
:1045C00040461A60FDF7AEF805B0F0BCBB46B246F7
:1045D000A946A046F0BD44461900A846CBE7C04610
:1045E0000040FCBF00E0004000F0004008C0004078
:1045F0000430000024200000F0B5DE4657464E4649
:1046000045460122E0B5DF4F00243800DE4B83B081
:104610001A70DE4B7C6098461B681C309D68DC4B32
:10462000BC603B60FC603C617C61BC619B4601F00E
:10463000B7F8D84BD84E9A463B6001235B42994667
:104640007B6243461B683D625D6830005B46746078
:104650003360B460F46034617461B4611C3001F0A3
:104660009FF8534633604B46736243463562CB4DE9
:104670005A4628001B682A60DB686C60AC60EC60FE
:104680002C616C61AC611C30019301F089F8019BD5
:1046900052462B624B466B62C14B2A60994618000A
:1046A00012F0E6FD4B4678221C67043B9C52083210
:1046B0009C5004329C5004329C50DC67B94C390049
:1046C0002200143248461C605A6012F073FDB64F47
:1046D000380012F0CDFD3B0000227C21083B5A52ED
:1046E00004315A5004315A5004315A5004315A504E
:1046F000AE4938001960143199603A6731005A6048
:1047000012F058FDAA4E300012F0B2FD00227821BE
:10471000331F5A5208315A5004315A5004315A50FA
:104720003267B26722001432290030001C60326008
:1047300012F040FD9F4E300012F09AFD00227821C9
:10474000331F5A5208315A5004315A501C600431F8
:1047500014345A50300029003267B267346012F0C6
:1047600029FD80229449954B92019967944B954F6E
:104770001869596702431A614346002438001B68D0
:104780007C609D68904BBC603B60FC603C617C61E0
:10479000BC611C309B4601F003F88C4B8C4E9A4652
:1047A0003B6001235B4299467B6243461B683D6246
:1047B0005D6830005B4674603360B460F4603461FF
:1047C0007461B4611C3000F0EBFF534633604B461C
:1047D000736243461B683562DB687E4D984628004D
:1047E0005B466C602B60AC60EC602C616C61AC6112
:1047F0001C3000F0D5FF53462B6043462B624B46DE
:104800006B62754B9846180012F032FD43467C22CD
:104810001C675C67043B9C5404329C5004329C50DF
:1048200004329C5004329C506C4C390022001432EB
:1048300040461C605A6012F005FD694F380012F0C6
:1048400017FD3B0000228021083B5A5404315A5086
:1048500004315A5004315A5004315A5061493800D9
:104860001960143199603A6731007A675A6012F022
:10487000E9FC5D4E300012F0FBFC00227C21331F6E
:104880005A5404315A5004315A5004315A500431A8
:104890005A503267726722001432290030001C60BF
:1048A000326012F0CFFC514E300012F0E1FC0022D9
:1048B0007C21331F5A5404315A5004315A50043168
:1048C0005A501C60043114345A50300029003267A9
:1048D0007267346012F0B6FC80224549454B920164
:1048E0009967454B1869596702431A61434A13682F
:1048F0000133136003B0F0BCBB46B246A946A046E4
:10490000F0BD2D4B3E4A48465A6012F0EFFC27F0AE
:1049100001FD3C4B3C4A30005A6012F0E7FC27F0A6
:10492000F9FC354B384A30005A6012F0DFFC27F0B2
:10493000F1FC304B344A38009A6012F0D7FC27F073
:10494000E9FC2B4B304A40465A6012F0CFFC27F06E
:10495000E1FC2E4B2A4A30005A6012F0C7FC27F0C7
:10496000D9FC174B264A30005A6012F0BFFC27F0E2
:10497000D1FC124B224A38009A6012F0B7FC27F0A3
:10498000C9FCC0463C300020F811002088120020ED
:10499000C8F7031064ED0310EC2F00201430002042
:1049A0002C340020A0F60310883200201CEF0310E6
:1049B00014330020A033002028340020803200204F
:1049C00010330020B430002008F80310A4ED0310C9
:1049D000643000208C3000206C360020D0F60310AC
:1049E000BC3400204CEF03104C350020DC35002097
:1049F00068360020B4340020483500204C320020B6
:104A00006CEE0310D83500207CEE03109C330020A0
:104A1000064A10B513680400591C1160002B01D020
:104A2000200010BDFFF7E8FDFAE7C0464C32002039
:104A30007047C04610B50400FDF73CFE200010BDD5
:104A4000044A0B6812680360934202D01A6801326C
:104A50001A607047CC3100200160704710B5064CD9
:104A60002068002800D010BD20000022034928F053
:104A7000CBFF2068F7E7C046D43100209CCA031062
:104A8000004870479CCA0310416870B505000029B2
:104A900016D08368002B10D00024354EA200505849
:104AA000002805D043685A1E4260012B36D0AB68FF
:104AB0000134A342F2D8002902D00800FDF7FEFD20
:104AC000E968002916D0AB68002B10D00024284ECE
:104AD000A2005058002805D043685A1E4260012B9E
:104AE00024D0AB680134A342F2D8002902D00800D8
:104AF000FDF7E4FD2B690024002B0DD01859002888
:104B000002D0FDF7DBFD2B690434182CF6D1002B05
:104B100002D01800FDF7D2FD280070BD03685B6865
:104B2000B3420BD1FDF7C6FD6968C0E703685B6857
:104B3000B34206D1FDF7BEFDE968D2E79847696840
:104B4000B5E79847E968CCE727F080FD27F0B8FD86
:104B50006968ACE727F07AFD27F0B2FDE968C0E7A5
:104B60004B1C02D127F0F2FCFAE727F0D3FBC0463A
:104B7000354A00100A4B70B51B68056804009D4259
:104B800004D02B685A1E2A60012B01D0200070BD72
:104B90002800FFF779FF2800FDF78CFDF6E7C046F7
:104BA000CC3100200E4A0B68126870B504000D006D
:104BB000934202D01968013119602668B24204D0CC
:104BC0003268511E3160012A02D02000236070BD7E
:104BD0003000FFF759FF3000FDF76CFD2B68F4E75C
:104BE000CC310020F0B54E46DE4657464546E0B58E
:104BF00083B0161E009000D1E6E00C68002C04D1B2
:104C0000A84B1A68541C1C600C60009A671E9368BD
:104C1000013BBB425FD2E31C9A4653689B46A24BC2
:104C20009A4500D8DCE001235B4299464846FDF7EF
:104C30003DFD009B80469B689C46002B0AD0009B54
:104C4000596863469A0000234546C858E850043323
:104C50009342F9D1E24509D9534662469A1A63460E
:104C60009800002192004044FDF710FD009D484649
:104C7000EB680193FDF71AFDAB6881469C46002B5B
:104C80000AD0009BD96863469A0000234D46C85855
:104C9000E85004339342F9D1D44509D253466246D1
:104CA0009A1A63469800002192004844FDF7EEFCF2
:104CB0005346009A9360434653604B46D3605B462D
:104CC000002B02D05846FDF7F9FC019B002B02D0C7
:104CD0001800FDF7F3FC7368BF0001337360009B9D
:104CE0005B689C4667443B68B9469846002B45D0B4
:104CF0006E4A116800293AD06A480EE057683B684E
:104D0000002B03D10368013303603B609C4200D158
:104D100073E091680832002929D00B68002B03D179
:104D20000368013303600B609C42E7D151680B6854
:104D3000002B04D15B4A1368013313600B60013B05
:104D40009C0064442368002B11D030000DF08CFAD5
:104D50004368804601334360206843685A1E4260BE
:104D6000012B6FD0434623604B461B689846434651
:104D700041465B685A1E4A60012B35D04B461E6087
:104D8000009B9A68002A1FD0D968494B002400274D
:104D9000984605E01F60009B9A680134A24213D92F
:104DA000A6008B1918680028F7D04268551E456088
:104DB000012AEFD103685B6843450CD1FDF77AFC0B
:104DC000009BD9688B19E5E703B0F0BCBB46B2463F
:104DD000A946A046F0BD9847009BD9688B19D9E732
:104DE00053469B00994621E70B68314A5B68404671
:104DF000934225D1FDF75EFCC0E70B68002B04D180
:104E0000284A1368013313600B60013B9C00644423
:104E10002368002BABD0300004F0C8FC4368804608
:104E200001334360206843685A1E4260012B99D1C8
:104E300003681F4A5B6893420BD1FDF73BFC91E787
:104E400098479BE703681A4A5B689342F5D09847F6
:104E500088E7984786E727F0F9FB4046FDF72EFCE8
:104E600028F07EF827F0F2FB27F02AFC86E727F0EF
:104E7000EDFB27F025FCAFE727F0E8FB27F020FC4F
:104E800070E727F0E3FB27F01BFC6BE727F018FC2B
:104E900027F040FA4B1CFBD127F058FBFAE7F9E763
:104EA000F8E7C046D0310020FEFFFF1FBCCA031048
:104EB000354A0010F8B53A4F06003B780D00140053
:104EC000BFF35B8FDB073FD5364A1168002930D02E
:104ED000354F0EE050680368002B03D13B68013367
:104EE0003B600360013B9C4237D091680832002947
:104EF0001FD00B68002B03D13B6801333B600B6074
:104F0000013B9C42E6D152681368002B40D0F26806
:104F1000A40014192168013B00292ED0002D07D0D0
:104F20002B68224A5B682800934237D1FDF7C2FB09
:104F3000F8BDF268A40014192368002BEED16B6849
:104F400001336B602560F3E7380028F041F8002852
:104F5000BAD0380028F058F8B6E70A68002A04D119
:104F6000114B1A6801321A600A602300541EF2685D
:104F7000A400141921680029D0D16968481C686010
:104F80002560581CD4D002319B0069609D50CFE74A
:104F900005490B6801330B601360B8E79847C7E712
:104FA00048210020BCCA0310D0310020354A00102F
:104FB00003000068002804D1034A1168481C1060EF
:104FC000186001387047C046D0310020F0B5DE4689
:104FD0004E46454657463023E0B50600FD4C8360FB
:104FE00089B00160C02200212000FDF74FFB7460F2
:104FF000F94CC02200212000FDF748FBF460F74C7B
:1050000014220021201DFDF741FBF54D3461256080
:10501000FFF736FD022201002800FDF73DFBF14CB1
:10502000012300220021200005F08AFE220030002A
:10503000ED49FFF7D7FDED4C0121200028F094FD4C
:1050400022003000EA49FFF7CDFD0122E94BE94992
:105050005A60E94BE7480B6000238B60CB600B7410
:105060004B618B61CB610B628B8400216433E34C19
:10507000C154E34BA060002120006260236001F076
:10508000B3F822003000DF49FFF7ACFD0123DE4A10
:1050900030005360DD4BDE491360FFF7A3FD0123B1
:1050A000DC4A30005360DC4BDC491360FFF79AFDAB
:1050B0000123DB4C6360DB4B2360FFF7CFFCA06078
:1050C00022003000D849FFF78DFDD84B01229A46C7
:1050D00051465A60D64B50460B6000238B60CB6024
:1050E0000021038243618361C3610362436283627F
:1050F000C362036343634333CE4CC154CE4B8174CC
:105100006260A060002200212000236000F0D4FB38
:1051100022003000C949FFF765FDC94B01229946BD
:1051200049465A60C74B48460B6000238B60CB60F2
:105130000021038243618361C3610362436283622E
:10514000C362036343634333BF4CC154BF4B817499
:105150006260A060002200212000236000F05CFB60
:1051600022003000BA49FFF73DFD0123B94A300063
:105170005360B94BB9491360FFF734FD0123B84AB6
:1051800030005360B74BB8491360FFF72BFD012384
:10519000B64D80226B60B64B29002B600023AB60BC
:1051A000EB602B616B61AB61EB612B626B62AB629D
:1051B000EB622B636B63AB63EB632B646B64AB647D
:1051C000EB642B656B65AB65EB652B666B66AB665D
:1051D000EB662B676B67AB67AB500432AB500432A6
:1051E000AB500432AB500432AB500432AB500432FB
:1051F000AB500432AB500432AB500432AB500432EB
:10520000AB500432AB500432AB500432AB500432DA
:10521000AB500432AB50974C0432AB500432AB5419
:105220002000EB67C33A12F0D7FD2200300092490C
:10523000FFF7D8FC0123914A30005360904B91490D
:105240001360FFF7CFFC01238F4A300053608F4B70
:105250008F491360FFF7C6FC8E4C012120000AF035
:1052600095FD220030008C49FFF7BCFC8B4C0121DE
:10527000200005F037FD220030008949FFF7B2FC1D
:10528000884C0121200028F087FC2200300086494C
:10529000FFF7A8FC854B01229B4659465A60844B78
:1052A00058460B6000238B60CB600B744B618B61A5
:1052B000CB610B624B628B62922149007D4C43545F
:1052C0007D4BA060002120006260236001F012F895
:1052D000220030007949FFF785FC0123784A30002D
:1052E0005360784B78491360FFF77CFC0123774AC1
:1052F00030005360764B77491360FFF773FC01234E
:10530000754C6360754B2360FFF7A8FBA06022001B
:1053100030007349FFF766FC724B01229846414604
:105320005A60714B40460B6000238B60CB600B745E
:105330004B618B61CB610B624B628B62CB620B6307
:105340004B638B63CB636C21684C4354684B626046
:10535000A060002200212000236000F0B5FB2200A5
:1053600030006449FFF73EFC634F644B6C213B60A7
:1053700000230122624C7B54BB60FB603B747B6169
:10538000BB61FB613B627B62BB62FB623B637B6335
:10539000BB63FB635B4B7A606260002100222000EC
:1053A0002360A76000F040FB220030005649FFF761
:1053B00019FC0123554A30005360554B5549136081
:1053C000FFF710FC0123544A30005360534B5449FB
:1053D0001360A7E00C2F00201C2E0020042E0020BC
:1053E000F426002000270020C4310020DC2E0020FD
:1053F0002C3200206C220020C8CB03107821002022
:1054000064DD0310FC310020CC2F002040F103109C
:105410003C320020DC2F00207CF1031044320020BD
:10542000F42E002048DD0310EC3100208C250020F4
:105430005CCB03101C220020BCDD0310DC310020FB
:10544000D02500204CCB03102822002088DD03103B
:10545000E0310020C02100200CDE03100C320020BF
:10546000D021002024DE031014320020FC23002071
:10547000ACF10310E02100200C310020902100202D
:105480003CDE031004320020A0210020ACF2031007
:105490006832002058210020F4310020202900200B
:1054A000C8310020E82E002030320020D422002015
:1054B000D8CB03108421002048EA031000320020DA
:1054C000D42F002098FA031040320020E42F00204F
:1054D000D4FA031048320020002F00202CEA0310D9
:1054E000F0310020142600207CCB03103422002051
:1054F000A0EA0310E4310020842600206CCB0310C6
:10550000402200206CEA0310E8310020C82100206E
:10551000F0EA031010320020D821002008EB03101D
:1055200018320020FFF75EFB01237D4C8022636070
:105530007C4B210023600023A360E360236163614F
:10554000A361E36123626362A362E3622363636333
:10555000A363E36323646364A364E3642365636513
:10556000A365E36523666366A366E36623676367F3
:10557000A367A3500432A3500432A3500432A350B3
:105580000432A3500432A3500432A3500432A35077
:105590000432A3500432A3500432A3500432A35067
:1055A0000432A3500432A3500432A3500432A35057
:1055B0000432A3500432A3545B48E367C33A1DF09E
:1055C00033F93000584A5949FFF70CFB0123584A78
:1055D00030005360574B58491360FFF703FB01231A
:1055E000564A30005360564B56491360FFF7FAFA9B
:1055F0000121554811F0EAFA3000534A5349FFF7A8
:10560000F1FA0123524A30005360524B5249136061
:10561000FFF7E8FA0123514A30005360504B5149DB
:105620001360FFF7DFFA01234F4A300053604F4BFE
:105630004F491360FFF7D6FA01234E4A30005360FA
:105640004D4B4E491360FFF7CDFA4D4B300002939E
:10565000534603934B4604935B460593434602A986
:105660000693079701F06CFDF36846480193FFF736
:105670009FFC019B424A8000C250F368424801935C
:10568000FFF796FC5246019B8000C250F3683F48EA
:105690009A46FFF78DFC4A4653468000C250F36895
:1056A0003B489946FFF784FC4B468000C55039487B
:1056B000F568FFF77DFC5B46800043513648F5688E
:1056C000FFF776FC4346800043513448F568FFF706
:1056D0006FFC800047511548F568FFF769FC8000B2
:1056E0004451300009B0F0BCBB46B246A946A046C2
:1056F000F0BD05000E00731C0FD1280026F026FF18
:10570000050020000E00FFF793F9F4E7F8E7F7E74C
:10571000F6E7F5E7F4E7F3E7F2E726F0FBFDC0462E
:10572000C424002004FB0310F421002010310020C9
:105730009821002020EB031008320020A82100202F
:1057400004FC03106C32002068210020F831002096
:10575000B021002020CF031028320020B8210020E3
:10576000C8CE0310203200204C220020F4CE0310BB
:1057700024320020542200209CCE03101C32002032
:105780006C220020FC310020DC310020E0310020C0
:105790000C31002000320020E4310020E8310020EC
:1057A000F8B50023174E036033680400002B1AD0AD
:1057B000154D2A6822609A420AD0144E3378BFF3FE
:1057C0005B8FDB0706D52B681A68236001321A60ED
:1057D0002000F8BD300027F0FBFB0028F3D030009C
:1057E00027F012FCEFE70A4F02213800FFF7EEFB2B
:1057F000054D3900074837602F60FFF72DF93368F2
:10580000D7E7C046CC310020D83100204421002009
:1058100008220020002E002070B5040080680028B7
:1058200028D02E234374A268023B93740023A068FF
:105830001D4A1E4DC360836103628362C36282603E
:105840004261C2614262290004223030FCF724FF29
:10585000A068042229003430FCF71EFF0022144BFC
:105860001868A368815C9B183833013219700B2AC1
:10587000F7D170BD4430FCF715FF0E4B00220360DA
:10588000002343608360C360038243618361C3611B
:10589000036243628362C36203634363433382747C
:1058A000A060C254BDE7C046C0C603104C0504103A
:1058B000081200204CCB031070B50400806800284B
:1058C00028D02E234374A268023B93740023A0685F
:1058D0001D4A1E4DC360836103628362C36282609E
:1058E0004261C2614262290004223030FCF7D4FEDA
:1058F000A068042229003430FCF7CEFE0022144BAD
:105900001868A368815C9B183833013219700B2A20
:10591000F7D170BD4430FCF7C5FE0E4B002203608A
:10592000002343608360C360038243618361C3617A
:10593000036243628362C3620363436343338274DB
:10594000A060C254BDE7C046C0C603104C05041099
:10595000081200205CCB0310094B10B50400036053
:105960008068002802D003685B6898472000FFF732
:105970005FF8200010BD2000FFF75AF826F0CAFC9F
:1059800088DD03100D4B10B504000360806800280B
:1059900002D003685B6898472000FFF749F82000B1
:1059A000FCF788FE200010BD2000FFF741F8200022
:1059B000FCF780FE26F0AEFCF9E7C04688DD031058
:1059C000094B10B5040003608068002802D003680A
:1059D0005B6898472000FFF72BF8200010BD2000DF
:1059E000FFF726F826F096FCBCDD03100D4B10B532
:1059F000040003608068002802D003685B68984751
:105A00002000FFF715F82000FCF754FE200010BD21
:105A10002000FFF70DF82000FCF74CFE26F07AFC82
:105A2000F9E7C046BCDD031070B5040080680028AB
:105A300027D02E224261023A82611E4A1E498260AC
:105A400000221E4DC260C161026241628262C16277
:105A500002634263290004323830FCF71DFEA0685F
:105A6000042229003C30FCF717FEA068144B1A688A
:105A700003006C3040331178013202C38342FAD103
:105A800070BD7030FCF70EFE0E49002201606C21E3
:105A900042608260C260027442618261C2610262DD
:105AA00042628262C262026342638263C263A06036
:105AB0004254BEE7C0C60310842F04104C050410E6
:105AC000081200206CCB031070B504008068002819
:105AD00027D02E224261023A82611E4A1E4982600C
