:020000041000EA
:1000000000B5324B212058609868022188439860DF
:10001000D860186158612E4B002199600221596106
:100020000121F02299502B49196001219960352056
:1000300000F044F80222904214D00621196600F024
:1000400034F8196E01211966002018661A6600F04E
:100050002CF8196E196E196E052000F02FF8012189
:100060000842F9D1002199601B49196000215960AB
:100070001A491B48016001219960EB211966A021F2
:10008000196600F012F800219960164914480160C1
:100090000121996001BC002800D000471248134993
:1000A000086003C880F30888084703B5996A0420EC
:1000B0000142FBD001200142F8D103BD02B5186610
:1000C0001866FFF7F2FF186E186E02BD00000240BE
:1000D000000000180000070000035F00212200005C
:1000E000F4000018222000A00001001008ED00E03C
:1000F00000000000000000000000000074B24E7A12
:1001000000200420F7010010C3010010C5010010F9
:10011000C1010010C1010010C1010010C101001097
:10012000C1010010C1010010C1010010C701001081
:10013000C1010010C1010010C9010010CB01001065
:10014000CD010010CD010010CD010010CD01001037
:10015000CD010010CD010010CD010010CD01001027
:10016000CD010010CD010010CD010010CD01001017
:10017000CD010010CD010010CD010010CD01001007
:10018000CD010010CD010010CD010010CD010010F7
:10019000CD010010CD010010CD010010CD010010E7
:1001A000CD010010CD010010CD010010CD010010D7
:1001B000CD010010CD010010CD010010CD010010C7
:1001C00000BE00BE00BE00BE00BE00BEEFF3058054
:1001D000103800BEF2EB8871E0DC04100CDD041076
:1001E0003802001090A31AE71E481F49086006C88D
:1001F00081F3088810471D480068002801D019487D
:10020000F3E70DA40ECC002902D000F012F8F9E7B4
:100210001749184A002000E001C19142FCD116495B
:100220008847164988471649884700BEFDE701C937
:1002300001C29A42FBD370470CDD0410C0000020BD
:10024000102700205C03051000000420000004209B
:100250005C030510001004200010042000000000C2
:10026000704700000000000008ED00E0000000D032
:1002700010270020584E0020714F00101108001068
:100280002D4F0010F8B5C0460448054B10B5834209
:1002900003D0044B002B00D0984710BD102700203E
:1002A000102700200000000006480749091A8B109B
:1002B000C90FC91810B5491003D0044B002B00D04A
:1002C000984710BD102700201027002000000000D4
:1002D00010B5074C2378002B09D1FFF7D5FF054B4C
:1002E000002B02D0044800E000BF0123237010BDA2
:1002F0009828002000000000001F0410054B10B5D6
:10030000002B03D00449054800E000BFFFF7CCFFF5
:1003100010BDC046000000009C280020001F0410F3
:1003200070B504000D00012805D0002C02D1074B48
:100330009D4207D070BD054B9942F6D1044809F0A3
:100340006DFBF2E7024809F079FBF3E7FFFF0000DD
:100350006C3F002010B503F061FB011C03F0EEFAC6
:10036000034903F0F0FAFE21890503F0E2FA10BD1B
:1003700000C07F4410B50F4804F071FF0E490F48CC
:1003800007F08EFF0121022000F054FA0121032022
:1003900000F050FA0121042000F04CFA052000F092
:1003A00063FAD0231B0620225A625A61044804F0E3
:1003B00056FF10BD001F041040420F0000C0034054
:1003C0001C1F041030B583B00400072802D9002098
:1003D00003B030BD0322002101A803F06BFC012310
:1003E0006A461371240180204042044354710C4B2F
:1003F0001B88138000239370D02424062025A56138
:10040000033301A9074841F0F3FC65616B46587856
:100410000002C0239B0018406B469B781843D7E727
:100420001C20041000C00340F8B5CE46474680B5F6
:10043000050017001E4B9B6A98461E4801F046FEB9
:100440000600002401E00134A4B2AC4215D2002021
:10045000FFF7B8FFA3009946B944FFF77BFF4B466F
:100460001860601C70434044114B9B6AC01A0028FE
:10047000E9DDC11701F090F9E5E70D4B986A4346B5
:10048000C01A03F0CBFA0C4903F05DFA041C2800F3
:1004900003F0CAFA211C03F056FA03F0EFFA020047
:1004A0000B00064804F00AFFC0BCB946B046F8BDD0
:1004B0000040054040420F00002474492C1F0410E6
:1004C000F8B5DE4657464E464546E0B50400894637
:1004D00017009A460B9B9B461500900003F0FAFB11
:1004E0008046002304E09A004146A058885001331A
:1004F000AB42F8D34A4641460C9807F0C1FF0024AE
:1005000025E0E5004D442968081C03F032FA061C7A
:100510006868011C03F02DFA011C301C03F00EFA70
:10052000A5000A9B5E1903F0B3FA3060200003F0C7
:1005300075FA514603F01DFA061C5D44380003F0BD
:1005400073FA011C301C03F0FEF9286001347B08AB
:100550000133A342D5D84346002B02D0404603F0D6
:10056000C1FBF0BCBB46B246A946A046F8BD0000A0
:1005700010B5041C002103F035FA00281FD11149E1
:10058000201C03F0E0F903F03BFB0F4903F0F1F905
:100590000E4903F0D3F903F013FB03F067FAC4B27A
:1005A00021000B4804F08AFE0C21200001F0B6FD6A
:1005B000CCB22100074804F081FE200010BD0024C9
:1005C000FBE7C0460000DC430000404100008A42D7
:1005D0004C1F0410601F0410F8B5DE4657464E4607
:1005E0004546E0B58346894690461F000024002317
:1005F0009A4608E0012352461A4393B29A46432092
:1006000004F01FFE0134A74278DDA5004B465E5979
:10061000404603F009FA011C301C03F0EBF90028F6
:10062000F0D05B465859FFF7A3FF0B28EAD88000AB
:10063000364B1B589F46022352461A4393B29A46A2
:10064000334804F03BFEDDE7042352461A4393B2DD
:100650009A46442004F0F5FDD4E7082352461A4395
:1006600093B29A462B4804F029FECBE7102352465A
:100670001A4393B29A46452004F0E3FDC2E72023D3
:1006800052461A4393B29A46462004F0DAFDB9E77F
:10069000402352461A4393B29A461F4804F00EFE76
:1006A000B0E7802352461A4393B29A46472004F09B
:1006B000C8FDA7E780235B0052461A4392461748BD
:1006C00004F0FCFD9EE780239B0052461A439246AD
:1006D000412004F0B6FD95E78023DB0052461A4323
:1006E00092460F4804F0EAFD8CE780231B01524636
:1006F0001A439246422004F0A4FD83E75046F0BC22
:10070000BB46B246A946A046F8BDC046841F0410A9
:10071000701F0410741F0410781F04107C1F041035
:10072000801F0410F0B5DE4657464E464546E0B5FC
:1007300087B02B4804F093FDFFF71CFE0023002236
:100740000021284807F0F2FD8346274803F0C2FA4B
:100750000590264C200003F0BDFA8146200003F0EE
:10076000B9FA8046224803F0B5FA82461AE0A3009F
:100770004246D0584A46D55803F080F906000F008B
:10078000281C03F07BF90090019132003B001948CE
:1007900004F094FD0134184B9C42E8D904991748A1
:1007A00004F08CFD164804F05AFD0E4C52461549D3
:1007B0002000FFF739FE5B460293434601934B4608
:1007C0000093114B220005995046FFF779FE0F4B1D
:1007D000282249464046FFF7FFFE04900024DAE74E
:1007E000B41F0410DC05000078170000BC0B0000EB
:1007F00070170000E81F0410DB050000082004103B
:10080000C41F04109411000000A08C45EE020000EB
:1008100010B504F00FFDFA20C00000F0CFFFFFF785
:1008200081FF000010B502490120FFF779FD10BDDE
:10083000FFFF000010B58300084A9A181268402490
:100840005440C0222240064CA44663441A60C000B3
:10085000044B9C466044416010BDC04604C001404A
:1008600004D001400040014010B501238340D02254
:100870001206936293610521FFF7DCFF10BD0000B3
:1008800010B58023DB0518680205120D030B1B044D
:100890001B0C09498A4203D1022B07D1000F10BD5E
:1008A000064B074A2221074804F044FB064B044A42
:1008B0002321044804F03EFB2709000020200410F7
:1008C000A420041044200410902004100FB400B59C
:1008D00083B0084804F0C3FC049B002B07D005A993
:1008E0000191180004F0CAFC034804F0B8FC012090
:1008F00004F0C6FAB8200410C8200410EFF31080EA
:1009000072B6034B1B68002BFBD0BFF35F8F7047A1
:100910002C0100D0BFF35F8F024B00221A6080F3DE
:10092000108870472C0100D0F8B506000C001500A7
:10093000FFF7E4FFE308F718F15C072222400123E8
:1009400093400B4205D1DBB20B433B70FFF7E2FF54
:10095000F8BD21002800FFF7B9FFF0B583B006000D
:10096000019114001F00FFF7C9FF00E00134BC42F1
:100970000CD8E308F518F35C0721214001228A40D6
:100980001A42F3D1D2B21A432A7001E00124644220
:10099000FFF7C0FF002C02DB200003B0F0BD019B7D
:1009A000002BF9D00898FFF791FF0000054A107856
:1009B000431CDBB21370172B02D9130010221A70DC
:1009C0007047C0468C1B002000B583B00100044B6B
:1009D00000931F2318220348FFF7BFFF03B000BD99
:1009E000CC20041094470020002307E0054A9A1801
:1009F0009200BFF35F8F0021116001331F2BF5D9E7
:100A00007047C04640000034074B9B6810308000A0
:100A10001950BFF35F8FBFF35F8F044B0021196044
:100A200082F310887047C04600ED00E0240100D03A
:100A30000048704700E400E010B5FFF7F9FF00231D
:100A400002E0034A04C00133072BFAD910BDC046A7
:100A50008080808010B5091A081F0B4B9C466144AA
:100A60000A4A914208D8C30706D440104005400DF9
:100A7000074B184380B210BD0221064B064AFF31D6
:100A8000064804F057FAC046FC070000FE0F0000BD
:100A900000E0FFFFE82004106C230410182104106C
:100AA00010B5091A04394C08090B08D14905490D3C
:100AB000064A11430180064B2343438010BD0A219F
:100AC000044B054AFF31054804F034FA00F0FFFFFB
:100AD00000F8FFFF642104104823041018210410BB
:100AE00001238340034A10681840431E9841C0B256
:100AF0007047C04600E100E0002A05D0044BC02248
:100B00005200995019607047014A8023D150FAE78A
:100B100000E100E010B50A001F23034001219940C5
:100B20004009FFF7E9FF10BD01238340014A13602C
:100B30007047C04600E200E0024B9B681030800026
:100B4000C058704700ED00E010B5FFF7F5FF002832
:100B500005D0054BC01A2F2803D8012010BD002056
:100B6000FCE70020FAE7C046901B002070B50400A7
:100B70000D00EFF3108672B60C4B1B68002BFBD0F8
:100B8000BFF35F8F2000FFF7D7FF094B984201D0DA
:100B9000A84205D1320029002000FFF735FF70BDC3
:100BA000044B054AE121054804F0C4F9240100D0B2
:100BB000CD01001074210410A0230410182104108A
:100BC000F0B5DE4657464E464546E0B589B081460B
:100BD00001911500EFF3108B72B6754B1B68002B5B
:100BE000FBD0BFF35F8F734B0027DF57002F3FDB36
:100BF0007C00E419A400704824180622A2566D4B0C
:100C00001A706E4B9A684B4610339B00D358984627
:100C10001B1A2F2B3AD96A4B984530D105AE694B38
:100C200033807B009A46D8198000634B9846404435
:100C300002306549FFF70EFF7080644BB380FF23DD
:100C4000B371F571019B07935744BF0047440ECE23
:100C50000EC701231C43A0465A4641464846FFF7AB
:100C6000D3FE09B0F0BCBB46B246A946A046F0BDD3
:100C70006E21574B574AFF31574804F05BF9BA21B0
:100C8000564B544A4900544804F054F90123424653
:100C90009A439246101A0C2101F040FA00290FD114
:100CA00053460026DA79AA4212D90621595600295C
:100CB0000DDB4A00521892001E003F4B9B18F1E7D3
:100CC0008621474B434AFF31434804F033F91E0065
:100CD000002E3BD005AB434A1A80813A5A80062346
:100CE000F3560293002B17DA3F4805AB9A469880DB
:100CF000029A9A71DD71019A0792301D2100FFF767
:100D0000A9FEB080B7717B00DB199B002A4FFF184A
:100D1000534607CB07C79FE77800C0198000264BD2
:100D2000C0180430321DB388D90A1C2907D15B05CD
:100D30005915023149005118FFF78CFED5E71021F3
:100D40002A4B2B4AFF31244804F0F4F805AE1D4B22
:100D500033807B000293D8198000174A9046020026
:100D600042440392901C1849FFF774FE7080039A66
:100D7000101D5146FFF76EFEB0801E4B5246414695
:100D8000521A524153431B0DB371F571019A0792E8
:100D9000029B9C466744BF0047440ECE0EC7114BD2
:100DA00052461380813B538001231C43A04653E7E6
:100DB000240100D0514E0020901B002000ED00E0E7
:100DC000CD01001000A1FFFFC01B002001BDFFFFEF
:100DD000AC2104108823041018210410D42104101D
:100DE000FC2104100148000001BD00008022041015
:100DF00078230410AAAA0000F0B5CE46474680B575
:100E000083B006000D00EFF3108872B6564B1B68D6
:100E1000002BFBD0BFF35F8F544B9A683400103423
:100E2000A300D758524B9F4207D0AF4200D198E061
:100E30000197504BFB1A2F2B09D94246390030003D
:100E4000FFF7E2FD03B0C0BCB946B046F0BD3000CC
:100E5000FFF746FE814600213000FFF75BFEBFF33F
:100E60005F8FEFF30581002901D08C4211D101235E
:100E7000019C9C430022A3689D4212D00622A256E8
:100E8000002A0DDB53009B189B002200394CE4180C
:100E9000F1E7F421384B394AFF31394804F04AF878
:100EA00022009D4257D106256557002D39DB6B0086
:100EB0005B199A002F4B9B189A68A260DA79E2714D
:100EC00006229A56A2719B795BB2002B0FDA2D484D
:100ED000A0806B005B199B00264AD3182A4A117820
:100EE0009971157049463000FFF714FEA5E7201DE3
:100EF0006B005B199B001F4A9B181A1D9B88D90A1F
:100F00001C2907D15B055B15023359005118FFF707
:100F1000A1FDDDE710211D4B1D4AFF31184804F0EB
:100F200009F8002912D1002A0ED0FF239371194B22
:100F30009380154A1378A371174B0E49641A6441C4
:100F400063431B0D1370CDE7094FF2E7201D1349D2
:100F5000FFF7A6FDC6E7124B084A1249084803F0FE
:100F6000E9FF034F69E7C046240100D000ED00E02F
:100F7000CD010010901B002098220410582304106B
:100F80001821041001BD0000514E002080220410E1
:100F90007823041001BDFFFFAAAA0000CA1B00208D
:100FA000CC2204103502000070B5012101432C4B06
:100FB000CB1A2F2B28D8EFF30583002B2AD0EFF381
:100FC000108C72B6274A1268002AFBD0BFF35F8FDD
:100FD000254A0400224D641B64416243120D54B241
:100FE000224A92689B00D2588A4219D00022032AD2
:100FF00030D853009B189B001949CB189B795BB2E2
:10100000A3421DD00132F2E7194B1A4A1A491B4874
:1010100003F090FF1A4B174A1A49184803F08AFF49
:10102000124A92681849D150184B1A7882711C7074
:10103000BFF35F8F0B4B00221A608CF3108870BDDA
:101040000D005300991889006918FF268E71104A07
:101050008A80E9E70F4B074A0F49084803F06AFF07
:10106000901B0020240100D0AAAA000000ED00E09F
:10107000D42204102C2304106E0200001821041046
:10108000FC22041071020000CD010010514E00201E
:1010900001BDFFFF082304108202000000B583B0E9
:1010A0000100064B0093052300220548FFF755FC7D
:1010B000002801DB1F23181A03B000BD1023041001
:1010C000554E0020024B9C466144890001607047E8
:1010D0004000003410B50400FFF768FC0100200058
:1010E000FFF7F0FFFF232371BFF35F8F10BD10B533
:1010F0000400FFF75BFC01002000FFF7E3FFFF2384
:10110000237100236371BFF35F8F10BD10B50D4CC9
:1011100009E00D4B0D4A1A210D4803F00BFF20008A
:10112000FFF7D8FF08340B4B9C4209D22368002BF1
:10113000F5D0012BEDD12000FFF7D9FF0834F2E7FD
:1011400010BDC04608270020BC2304109C240410B6
:10115000DC23041010270020034B9C4661448900C7
:101160000160BFF35F8F70474000003410B504008A
:101170000120FFF729FC01002000FFF7EDFF10BD63
:1011800000040843704700000A4B1A68EFF310810F
:1011900072B61368002BFCD0BFF35F8F054B1B6842
:1011A000BFF35F8F00221A6081F3108840BF0020D8
:1011B00000217047284E0020F0B5DE4657464E46C7
:1011C0004546E0B585B0EFF3058303221A40934608
:1011D0009200AE4BD35898461B785B4507D101234C
:1011E0005A4693401A000393A94B1A6012E1A94B87
:1011F000A94A9221A94803F09DFE5B004B44DB0005
:101200004246526992469A4453469E68DF68A44813
:1012100000F092FB801BB941002900DA04E1002FA5
:1012200060DB53461C699F4B9C4244D043460820D8
:10123000185E5346598889B2FFF7A2FF5346596991
:10124000A04704000D0023002B434BD0002D3CDAB7
:1012500030003900001BA9410090019153460098CD
:1012600001999860D96000255D5F002D00DADBE010
:1012700043465C696B005B19DB00E3189A68DB6826
:10128000801A9941002900DACEE043461D81474685
:1012900008370023FE5E002E1FDB7500AD19ED0040
:1012A0006519009A019BA868E968121A8B41002B06
:1012B00013DB2F00EDE753465C6920002369984754
:1012C00000280FD065682468BDE7754800F034FB3E
:1012D0000019694100900191C0E753461E804B46BA
:1012E0003B80A1E0534600229B5E42461381126977
:1012F000EFF3108372B611680029FCD0BFF35F8F43
:1013000042460221525E51460A8042464946518079
:101310001269BFF35F8F0021116083F3108883E0AF
:1013200043461A69EFF3108172B61368002BFCD0A4
:10133000BFF35F8F43469B881BB2994601235B42F4
:10134000424693801369BFF35F8F00221A6081F3D6
:10135000108818E026000023F55E002D0BDB6C00E2
:101360006419E4003C19009A019BA068E168121A14
:101370008B41002BEEDA4B463380634600229B5EA6
:10138000994663461D804B46002B53DB43465F69FD
:101390004B465B004B44DB009C46BC446346DC6828
:1013A0009B680093019446460836D4E700234246E2
:1013B00093714146083143460820185E11E001222E
:1013C0005242D317A260E360434608229B5E8342E9
:1013D00006D00D80434608229B5E23804346188139
:1013E0002800431C2AD043465A6943001B18DB00DF
:1013F000D418D55E63881BB2002BE0DB2100EFE739
:101400006B1C2BD1264800F097FA241A8D41002D31
:1014100034DC31D0224B039A5A63434608229B5E48
:101420009946002B00DBE8E643469B881BB2002B65
:1014300000DB75E743469B79002BB7D14346082272
:101440009A5E002A1ADB53009B18DB004246526961
:10145000944663449C68DD68631CD1D0104B996A44
:10146000601A5A4604329200D3585B1A9842C9D285
:1014700013000B4A9C50C5E7002CCBD040BF05B0F1
:10148000F0BCBB46B246A946A046F0BD0C4C0020BD
:101490003C700540B0240410AC250410DC2404107A
:1014A00000400540B9110010F8B5CE46474680B55A
:1014B0000600884691461F00C160FFF777FA1B4B74
:1014C0009C466044800030614B463370BBB27381F0
:1014D000D022120612787270012252423281B280FA
:1014E0009B187380002406E0631E65002D19ED0033
:1014F000726953530134BC42F6D34B469A000C4BED
:10150000D65001244B469C4043461C62094948463C
:10151000FFF72CFB01214846FFF7FCFA064941443E
:101520000C60C0BCB946B046F8BDC04640000034AF
:101530000C4C0020B91100103820000010B5064BEB
:101540001B69002B01D0044810BD044B044A6521DF
:10155000044803F0EFFCC046D81B002020250410EF
:1015600094250410DC240410F0B5C64600B5040030
:101570000069EFF3108C72B601680029FCD0BFF34C
:101580005F8F0221665E7500AD19ED0061698846C6
:101590004544002E02DB0020295E61802169BFF3F3
:1015A0005F8F002008608CF31088002E2EDB0699D8
:1015B000296107996961AA60EB606B8801335B045C
:1015C000590C002B00D1012169803000FFF7D8FDB4
:1015D0002269EFF3108172B61368002BFCD0BFF3C1
:1015E0005F8FA3882B80A6802369BFF35F8F0022C3
:1015F0001A6081F31088E368217801328A40054936
:101600008C4663441A6080BCB846F0BD012040425D
:10161000F9E7C0463C20000070B582B00600140017
:101620001D0008AB1B78002B07D100F0B7F9220092
:101630002B00121A8B41002B0ADB079B0193069BA0
:10164000009322002B003000FFF78EFF02B070BD28
:101650000020FBE710B5030008145A8990422FDAE6
:1016600042001218D2005869844662441C69EFF3A4
:10167000108C72B620680028FCD0BFF35F8F5088B2
:1016800080B20904090C884212D000201A69BFF305
:101690005F8F002111608CF31088002811D0DA6868
:1016A0001B7801319940074B9C466244116008E069
:1016B0000549084380B2508001229A710120E5E774
:1016C000002010BD3C2000000080FFFF40787047E4
:1016D000F0B585B006000F00EFF30583002B1AD19B
:1016E00006246442E517A4197D418D4202D803D136
:1016F000844201D90024002500F050F922002B007B
:10170000121A8B41002B0BDC08D03000390000F09E
:1017100057F905B0F0BD1C48FFF7D8F8002AF4D0FF
:10172000FFF70CFF002302930193184B0093220054
:101730002B00FFF771FF002818DAE6E7002300E02E
:101740000023002BE1D1124B1A68EFF3108172B61F
:101750001368002BFCD0BFF35F8F0D4B1B68BFF3EA
:101760005F8F00221A6081F3108820BF094B5B6AEB
:101770009D42E5D80749896AA14203D29D42DDD046
:101780000123DEE70123DCE7442504108911001062
:10179000284E00200040054070B504000D0000F008
:1017A000FDF800196941002902DBFFF791FF70BDC8
:1017B000012040420049F8E7FFFFFF7F10B5FA2201
:1017C00092000023002102F097F8FFF7E5FF10BD1B
:1017D00070B584B005000C00EFF30583002B12D028
:1017E0003E4B5B6A8B4209D33C4A926A824208D2E2
:1017F0008B4201D0012002E0002000E0002004B074
:1018000070BD0120FBE7FFF799FEC16803788A6A83
:101810002E00A81A04339B005B589B1A984212D3DF
:1018200020BF2E4B5B6A9C4209D82C4A926A954293
:1018300007D99C4201D00120E1E70020DFE700202A
:10184000DDE70120DBE7FFF779FE00230293019338
:10185000234B00932A002300FFF7DEFE051E0BDD5D
:101860001E4B5B6A9C421BD81C4A926A96422CD93A
:101870009C4213D0012314E0184B5B6A9C4209D8A8
:10188000164A926A964207D99C4201D00120B6E7D7
:101890000020B4E70020B2E70120B0E7002300E019
:1018A0000023002B00D120BFFFF748FE2900FFF7DF
:1018B000D1FE0A4B5B6A9C420BD8084A926A964258
:1018C00009D99C4203D0012099E70123E9E70020D0
:1018D00095E7002093E7012091E7C04600400540CE
:1018E00089110010004870470040054010B50B4BAF
:1018F0001B69002B04D00A210948FFF7E3FB10BD48
:10190000FFF7F0FF0400032100F00CF8102303227E
:1019100021000248FFF7C8FDEDE7C046D81B0020B4
:10192000284E002010B5024A0248FEF7FDFF10BD08
:10193000D0250410984700200200436A906A1900DD
:10194000536A9942FAD17047416A00E0416A99426C
:10195000FCD300E0416A994202D1816A9142F9D3F5
:101960007047F0B5C64600B5804614001D00FFF76D
:10197000E3FF06000F0022002B0092197B419942E1
:1019800002D804D1904202D901225242D3174046D4
:10199000FFF7DAFF80BCB846F0BD000010B5024882
:1019A000FFF7CAFF10BDC0460040054010B5020059
:1019B0000B000248FFF7D5FF10BDC04600400540B0
:1019C00010B502000B000248FFF7BEFF10BDC04675
:1019D0000040054070B5046BE30701D4200070BDE2
:1019E0000B4BC3180B4A1A60456A826AAD01AD18E9
:1019F000AD02062000F026F9074900F08FFB010038
:101A0000280000F08BFB0021FFF7D0FFE6E7C0467F
:101A100030300000010300004E0E000070B50400DD
:101A20000E001500FFF7D6FFE16A4E403540024B2D
:101A3000E3181D60206370BD2C10000070B5050018
:101A40000C00062000F0FEF8C000210000F066FB4C
:101A50000130C60907D00E4B9E4215D8400834000D
:101A60003F26064000E001246C62AE6200220021A5
:101A70002800FFF7D3FF062000F0E4F88000A10162
:101A8000891900F04BFB70BD0026024CECE7C04604
:101A9000FEFF0000FFFF0000002909D00A22064BCC
:101AA0009C466044434258414000044BC252704738
:101AB00080225200F3E7C0460080FCBF344E002075
:101AC00070B505000C00062000F0BCF8002828D0F6
:101AD000164B9D4226D0162201239340144A1360D0
:101AE000124B9D4220D0162301229A40114B1A60BE
:101AF000114B1B6811009943FAD100212800FFF710
:101B0000CBFF21002800FFF799FFEB6A70225A40B3
:101B10007E231340094AAA181360094B2B63032341
:101B2000AB6470BD1722D7E71723DDE700800340C1
:101B300000E0004000F0004008C000402C10000011
:101B400001030000F8B5D646474680B506000D00F3
:101B50001700984644002418A400294B9C4664446E
:101B60006368089A934200D26260331FDBB29A46E0
:101B7000012B2ED980221201C0239B01E3181A6089
:101B8000B300204A9958002907D0506900F0C6FADE
:101B9000431C5800C0180338FDD27F01226857400B
:101BA000E022174080235B01E3181F605246012AA0
:101BB0001AD980239B01E318802212011A60089B26
:101BC0006360B6000F4B4246F250C0BCBA46B04606
:101BD000F8BD012DCED10322C0239B01E3181A606A
:101BE000A368DB07FCD5D8E72168694003220A40D7
:101BF0001A60A3680122AA401A42FAD0D9E7C04667
:101C0000008000409C470020F0B583B005000E0026
:101C100017001800089900F081FA0300089A1402CE
:101C200000943A0031002800FFF78CFF03B0F0BDAC
:101C300010B582B0802464000094FFF783FF02B0E7
:101C400010BD00008000014BC05870479C47002029
:101C5000F0B5C64600B504000E0017001D0036485A
:101C600000F05CFA8046354BFA18354B9A4238D86A
:101C70000100380000F052FA0200103A98235B008D
:101C80009A4234D86B1E062B37D8069B013B062B95
:101C900033D83F09474536D32D04069B1A03154315
:101CA0002368002B35DB274B9C4243D00C230122B9
:101CB0009A40254B1A60254B1A60254B1B68110072
:101CC0009943FAD12660A060224BE21821231360C9
:101CD0002368002BFCDAE5600823136080BCB8465B
:101CE000F0BD1D4B1D4A11211D4803F023F91D4B6A
:101CF0001A4A19211A4803F01DF91B4B174A1C21D7
:101D0000174803F017F9194B144A2321144803F01C
:101D100011F922683F231340B342C4D1A3681B05C5
:101D20001B0D8342BFD1E368EE22D2021340AB42C7
:101D3000B9D1D3E70D23BAE7001BB70080E84BD336
:101D400080F8A93200C0024000E0004000F00040EE
:101D500008C0004004300000F425041014270410CB
:101D60004426041090260410AC260410F826041013
:101D7000024B1A68024B5A607047C046FC4B002069
:101D80000080054010B5184B8022D2051A60174B11
:101D9000174A1A6000290AD0164BE022D2041A60B2
:101DA000002809D1134B802212061A6010BD0E4B79
:101DB000E022D2041A60F3E74201121A93001B18C2
:101DC000DB000D4A13605B001360802252049342D3
:101DD00002D3094B094A1A60FFF7CAFF054B80225C
:101DE000D2051A60E2E7C04600B005400820014075
:101DF000FCFF010000A00540FC4B0020FFFFFF009E
:101E000010B5030010000C4A8024E4051460002B78
:101E10000DD001221343094A094CD461094C5C409E
:101E20001462516293620021FFF7ACFF10BD034BB7
:101E30000022DA61F7E7C04600B0054000800540A7
:101E4000D3C007B02D3FF84F80239B000B43014ABE
:101E5000D36270470080054010B5010018231B882D
:101E600014221088984710BD10B5010018231B8854
:101E700016221088984710BDF0B5C64600B5070079
:101E80000E0000250123984600E00135B5420AD234
:101E9000AC003C192068FFF7DFFF20600028F4D178
:101EA00000239846F1E7404680BCB846F0BD0000EC
:101EB00070B504000D000648FFF7CEFF0300002CAC
:101EC00003DB0120A040290098470020FBE7C04623
:101ED00055420000064BAA2212011A602F22DA6036
:101EE000044B054A1A60024B5B68002BFBDA704713
:101EF000004002400060024000B0FA0010B504004B
:101F000001E008CC9847024B9C42FAD310BDC04672
:101F1000DC1E04107047000010B50248FFF7EEFF0A
:101F200010BDC046A01E0410054B064A1A60064BA1
:101F3000064A1A60064B1A68044B9343FAD170475D
:101F400000E00040BFCDFBFE00F00040FE7F3C0003
:101F500008C00040044BDB6C002B03D1034B8022F4
:101F6000D2021A607047C046000011504C20115038
:101F7000044B054A1A60054B1B68DB43DB01FAD1B1
:101F80007047C04600F00040FFFFFF0108C000405E
:101F9000034B40229A675A671A67DA667047C04651
:101FA00000F0014010B5FEF71FFD10BD70B5044CE8
:101FB000A168044DC022280001F082FEA56070BD1A
:101FC00000ED00E00000002070B50420FFF73AFEAD
:101FD000064900F0A3F805000024002C00DD70BDC8
:101FE000E0B22900FFF730FF0134F6E740420F006E
:101FF00030B583B0274B00229A67FFF76BFF264B63
:1020000001221A60234B5B6C012BFBD1234B032273
:102010001A60204B9B6B012BFBD1013300930433DF
:102020001F4A01211F48FFF713FE052300931E4A94
:1020300001211E48FFF70CFE1D4B00220221042047
:10204000FFF7F6FD1B4D2B00002201210520FFF7B5
:10205000EFFD194C2300002200210720FFF7E8FDC7
:102060002300002200210820FFF7E2FD8023DB008F
:1020700000932300002200210920FFF7C5FD2B005B
:10208000002200210620FFF7D3FDFFF79DFF03B0DC
:1020900030BDC046008000403CB0004030B0004041
:1020A000002F685900800240008C864700C0024023
:1020B000001BB70040597307006CDC020148042183
:1020C000014B1847F01B0020791E0010124A936F35
:1020D0009B0815D29066D166002905D0FFE7FFE77F
:1020E000FFE7516F106F704704B580210906C217D2
:1020F0005140002800D0C8433FF042FE002104BDFB
:10210000F0B5146E556E576F166FFFF7E3FF146648
:10211000556657671667F0BD000000D0114A936FEF
:102120009B0813D210665166002905D0FFE7FFE730
:10213000FFE7516F106F704704B5002801D00020F1
:10214000C0433FF01DFE002104BDC046F0B5146E33
:10215000556E576F166FFFF7E5FF146655665767A4
:102160001667F0BD000000D094464A4A926F92086C
:10217000624601D228E0C046F0B5464E346E756E18
:10218000776F366F00F020F89446424A1466556621
:10219000576716676246F0BD94463E4A926F9208B2
:1021A000624601D254E0C046F0B53A4E346E756EC8
:1021B000776F366F00F04CF89446364A14665566D1
:1021C000576716676246F0BD002B24DB11D000294B
:1021D0003EDA00B5C943404200D1013100F038F881
:1021E000C943404200D10131DB43524200D10133A7
:1021F00000BD002AEBD1002801D1002905D0002024
:10220000C90FC90701D1C043410800B53FF090FD97
:102210000022002300BD00B500290ADBDB43524247
:1022200000D1013300F014F8C943404200D101311C
:1022300000BDC943404200D10131DB43524200D1CD
:10224000013300F005F8DB43524200D1013300BDF9
:10225000002923D1002B18D1002A0CD0BC460D4FE9
:1022600038667A6600210023FFE7FFE7FFE77A6F11
:10227000386F67467047002801D00748010000B555
:102280003FF056FD0022002300BD02000B0000209D
:1022900000217047000000D0FFFFFFFF002B00D09F
:1022A000BFE0130C28D1002AE7D080B4114F396663
:1022B0007A66FFE7FFE730B4040C7B6F396F1B04CD
:1022C00023433B667A66FFE7FFE7FFE7C04684B239
:1022D0007B6F3D6F1B0423433B667A66FFE7FFE796
:1022E000C04600232C042D0C7A6F386F0019694109
:1022F000B0BC7047000000D0F0B594460025140E25
:1023000001D112020835140F01D112010435940FC6
:1023100001D192000235D40F01D152000135D40B06
:102320000134254F7C66254C3C660E0C93B2FFE7CA
:10233000FFE7FFE73C6F6643360C7703BE46734307
:10234000DF0B5B04C01AB941130C7343DB18C91AC5
:10235000CE086643360CB64493B273431F0F1B017D
:10236000C01AB941130C73431F0B1B05C01AB941A6
:10237000860D8F023E436643360C092D24DB520A3C
:102380007243801A7703460A6643360C16235B1B9A
:10239000DE40DF40BF1964466643821B7046043549
:1023A00006330100D940A840C01900D30131A24230
:1023B00006D20023F0BD0000000000D0FFFFFFFFA9
:1023C000121B0130F3D3F1E709277F1BFE4064465F
:1023D000A2B27243801A00D20139220C7243130C4C
:1023E0001204821A99410B0070460435133701001C
:1023F000F940A840801900D30131002B02D1A2423C
:102400000AD2F0BD013000D30131121BFAD2013BD8
:10241000F8D1A24200D2F0BD013000D30131121B2D
:10242000F7E7F0B51C0C00D080E00CB400251C0AC6
:1024300004D11B02160E3343120208351C0B04D1C3
:102440001B01160F3343120104359C0B04D19B0072
:10245000960F334392000235DC0B02D192185B4198
:1024600001351C00971864410134464F7C66464C88
:102470003C660E0CFFE7FFE7FFE7C0463C6F664394
:10248000360C7703BE4697B27743C01B00D20139A2
:10249000C01B00D201399FB27743C91BC91B170C5F
:1024A00077437E04FF0B801BB941CE086643360C90
:1024B0000C2D33DBB644120B1F053A431B0B97B2AE
:1024C0007743C01B00D201399FB27743C91B170C59
:1024D00077433E043F0C801BB941860D8F023E437B
:1024E000664329277F1BFE400C3D7746AF40BF194E
:1024F00030BCA2B2ABB272437343801A9941220C32
:102500007243130C1204801A994102000B00013728
:10251000001BA941F9D2781E0021F0BD0C277F1BBA
:10252000FE4077467F0BAF40FF19E0E700245D1CBB
:1025300007D0144F7D663966FFE7FFE7FFE7FFE747
:102540003C6F95B29EB265436643401BB141150C8A
:102550001E0C6543664336042F0C3E432D04401B7E
:10256000B141994204D202000B0020000021F0BDCD
:1025700001D19042F7D3801A994101349942F2D3A4
:10258000F6E70000000000D0FFFFFFFF44464D4685
:1025900056465F46F0B47047F0BCA046A946B24626
:1025A000BB46704748404140484018B41B4B5B68ED
:1025B000FC46019308BD04DF072D001018B4174B2B
:1025C0001B68FC46019308BD00DF112D00109446E6
:1025D000134A926F920809D2624618B40F4BDB6817
:1025E000FC46019308BD0CDFC92F00100C4AF0B562
:1025F000146E556E576F166F6246FFF7EEFF084A6E
:102600001466556657671667F0BD18B4034B9B6890
:10261000FC46019308BD08DF6D2E0010244C0020FD
:10262000000000D0FFB550404240504059404B4060
:10263000594000E0FFB5154F4C00640D03D0BC427B
:1026400004D10C0314D80020090D09055C00640DA9
:1026500003D0BC4204D11C030AD800221B0D1B0569
:1026600001264B4009D44B4003D58B4200D1824216
:10267000FFBD9942FCD19042FFBD0B43DB180343E1
:102680001343F5D0C9434918FFBD0000FF07000000
:1026900000B5FFF7CFFF01D0002000BD012000BD35
:1026A00000B5FFF7C7FF804100BDC04600B5FFF78A
:1026B000C1FF01D9002000BD012000BD00B5FFF71A
:1026C000B1FF01D9002000BD012000BD00B5FFF71A
:1026D000A9FF804100BD012040054A00121804D81E
:1026E0005A00121801D800207047012070470000DE
:1026F0000021002805D17047C1174840401AFAD080
:10270000C90713B5064B1B6898470CBC441CA24074
:102710001005120B0349091B09051943114310BD8C
:10272000244D00201F04000010B54C00620D8023D2
:10273000D218DB00D21A5B057E2A10DD9E3A13DA2E
:10274000CC170903490819435242D14064000134AF
:102750001532202A05DAD0400843604310BD00201E
:1027600010BD0846604310BDC80FC018013810BD29
:1027700018B4044B5B6AFC46019308BD24DFA53303
:1027800000100000244C002018B4044B1B6EFC46C3
:10279000019308BD60DFB33400100000244C00201A
:1027A00018B4044BDB6DFC46019308BD5CDFB1340B
:1027B00000100000244C0020C94211D300B549008C
:1027C0004908002200F018F8002904D400224042F1
:1027D0008A41114600BD80210906002000BD00008D
:1027E00018B4044BDB6EFC46019308BD6CDFB333B9
:1027F00000100000244C002018B4044B9B6FFC46D2
:10280000019308BD78DFCF3300100000244C002076
:1028100018B4044BDB6FFC46019308BD7CDF3D34EC
:1028200000100000244C002018B4044B9B69FC46A7
:10283000019308BD18DF953100100000244C0020E2
:10284000024A034B00B500F039FA00BD182D44547C
:10285000FB2119408A0002D3920D092A08DA18B424
:10286000064BDB6BFC46019308BD3CDFE7350010EF
:1028700000B5FFF7E5FF04BC9646F0E7244C0020C6
:102880008A0002D3920D092A08DA18B4064B1B6C91
:10289000FC46019308BD40DFF735001000B5FFF797
:1028A000CFFF04BC9646F0E7244C002070B51323FC
:1028B0001C78012C14D0012C14DC022C02DC1F4AE1
:1028C0001F4B9A641F48FFF7C7FA1F4B186070BD73
:1028D00099001A481A4A885001331F2BF8D9EAE7A1
:1028E0000023FAE71948FFF7BFFA05001848FFF779
:1028F000BBFA023803789B007F2B19DD8022290068
:102900000F4801F0DDF9022CD7D1124B1A88B523FC
:102910001B029A4209D1104B1A88104B9A4204D1DB
:102920000F4B1A880F4B9A42C7D00020FDF7CEFFFD
:102930000D4B0E4A33210E4802F0FCFACD2C00104C
:10294000244C00204C330000244D00205344000050
:102950005346000054380000D838000049460000B3
:102960009C3800005946000020270410C02704109E
:1029700064270410F0B5DE4657464E464546E0B59E
:1029800085B004000D00009201930E9B9A46002B27
:1029900045DD019B191101204042FFF7BFFB039069
:1029A00000239B4629E00C239946AB11039A53431D
:1029B0001D224946521A134101335B1098462022CA
:1029C00052428B1821D422009A40170023004A4615
:1029D00093401E004346D917009A019B404600F0E1
:1029E0008BFF34003D00241A8D415B464A469340DC
:1029F00043449B4653469B1A9A465346002B11DD8F
:102A000053460C2BCFDCD146CFE720235B1A2200A4
:102A1000DA4013002A008A4017001F43D6E700233C
:102A20000393BDE7009A019BAB4209DC01D1A242AE
:102A300006D8009A019BA41A9D4101239C46E344B9
:102A4000009A019BAB4209DC01D1A24206D8009A50
:102A5000019BA41A9D4101239C46E344002D0FDBFA
:102A6000002D16DB0F9B002B01D05A461A60200068
:102A7000290005B0F0BCBB46B246A946A046F0BD51
:102A8000009A019BA4185D4101235B429C46E344EC
:102A9000E6E7009A019BA4185D4101235B429C4636
:102AA000E344DFE7F0B5C64600B506000F000B0DA6
:102AB0005B055A0D002B27D01F4BD2182CD4342481
:102AC000A31A9846002B24DD203B9C4629D40125DF
:102AD0006446A5402B0001254446A5402A00012458
:102AE0006442E517A4185D41002903DA24184D411A
:102AF00026002F00002554429D413300234018003A
:102B00003B002B40190004E00022C90FCB07100046
:102B1000190080BCB846F0BD002909DA0020074939
:102B2000F7E720254346ED1A0124EC402300D2E7C5
:102B300000200021EDE7C04601FCFFFF0000F0BFD0
:102B4000F0B5C64600B58AB007900F0011001A0014
:102B5000FE0F3B0D5B055B0D3D032D0B80246403D5
:102B6000049025430595D50FA846150D6D056D0DEF
:102B70001203120B029114430394109A002A02D0FC
:102B8000002210990A604A4A934200D17DE0002D4C
:102B900000D17DE0002B00D182E0954200D182E09F
:102BA0006A1E9A4200DD80E044D0002E06D0049ECA
:102BB000059F00227142BA410491059209AA01922F
:102BC0005B1B0093029A039B04980599FFF7D2FEC2
:102BD00006000F0003000C009B197C4122000298A4
:102BE00003998C420BDC01D1834208D802998B42B5
:102BF0000CD1039B9A4209D1099BDB0706D5029BA6
:102C0000039CF61AA741099B013309934346002B05
:102C100002D0099B5B420993109B002B01D0099ABB
:102C20001A60244A521B30003900FFF7ADFD060040
:102C30000F002FE0039B059999420FDD002E17D15D
:102C4000029C039D24196D4104980599001BA9411C
:102C500006000F00012309931500D7E7029B039C90
:102C60000598A04202D104999942E7D8079E11E045
:102C7000029E039FB6197F41049B059CF61AA7414B
:102C800001235B4209931500C0E700260A4F01E0CB
:102C90000026094F300039000AB080BCB846F0BDAC
:102CA00000260027F6E7079EF4E7079EF2E7C046F6
:102CB000FF070000330400000000F07F10B582B071
:102CC00000240094FFF73CFF02B010BD07B560463A
:102CD000002800D100BE01880A0A0230DF2AFAD19A
:102CE000C9B2820804D3028840880004104300E07F
:102CF0000068024A5050039007BD0000244C002099
:102D00000FB403BC0CBCF0B50124E407634000E041
:102D1000F0B50C0DCF0F661E3605891B640503D375
:102D2000C943404200D30131640D03D0661CF60A4A
:102D300007D0E41B00207F00791C89078912803CA2
:102D400024031D0DDF0F6E1E36059B1B6D0503D37F
:102D5000DB43524200D301336D0D03D06E1CF60AE3
:102D600007D0ED1B00227F007B1C9B079B12803D40
:102D70002D032F1B661B58D4A446202E46DA20377D
:102D80001400BC401D00BD40F24033412A4380186E
:102D90005941CB0F05D0C943C04300226442504182
:102DA000514162464D0D28D10D0D07D100281FD08D
:102DB000241940414941013A0D0DF9D0640006D370
:102DC000013000D30131002C01D140084000013A0C
:102DD0000BD4941CE40A04D112051144DB071944F6
:102DE000F0BDD907204B194300E0D9070020F0BD02
:102DF0000029DDD1002CDBD1F0BD0132C60740082F
:102E0000CD0728434908002EE1D0D9E73C2E29DA26
:102E1000203E40371400BC4000D00124F24014434F
:102E20001A00BB401C43D317ACE7AC46202F08DA8E
:102E300020360400B4400D00B540F8403941284325
:102E4000A5E73C2F0CDA203F40360400B44000D008
:102E50000124F84004430800B1400C43C117EAE7DD
:102E600010001900002494E70000F07FF0B50C0D6D
:102E7000661E3605891BE60A6405640D02D0651CD2
:102E8000ED0A04D0002001210905803C2403A4465A
:102E90001C0D671E3F05DB1BE70A6405640D02D0AD
:102EA000651CED0A04D0002201231B05803C24038D
:102EB0007740644497B484B296B27443070C7E435F
:102EC000150C6F4380B26843361802D3012000040A
:102ED0003F183004350C00197D41844688B29AB2FF
:102EE00050430C0C62431F0C7C438EB27E439219FC
:102EF00002D301263604A4191604170C36186741AC
:102F000001BC81B29AB25143040C62431B0C5C4376
:102F100080B25843121802D3012000042418100470
:102F2000130C401863412D185E410020474106BC38
:102F300088B293B258430C0C6343120C544389B2C9
:102F400051435B1802D301210904641819041A0CB7
:102F5000091862416D1856410020474118BCF9021A
:102F6000720D1143F0026A0D1043ED020A0D03D1F8
:102F70006D1940414941013B124E9B1B7600B34203
:102F80000ED26D0007D301300026714166463543ED
:102F900001D1400840001B05C918E4072144F0BDD9
:102FA0000BDA013306D1013004D101314F0D01D0CC
:102FB0004908F2E7E1070020F0BD013631050020A5
:102FC000EBE70000FF030000F0B51C0D671E3F0596
:102FD000DB1BE70A6405640D02D0661CF60A04D008
:102FE000002201231B05803C2403D0252D0600264A
:102FF000F6432E661E096E66CE0FF619B4464900DA
:103000004F0D02D07E1CF60A03D000200021403F65
:103010003F033E1BB600B444013F7F05C91B49086E
:103020002E6F013676089C02950D25437543ED13EE
:103030007543AD1301356D10F603761B0CB4CC024D
:10304000450D2C43A2B2B3B25A43270C7B43350C37
:103050006F43A4B26C431B1902D3012424043F190B
:103060001C041D0CA4187D4124196D41009A91B2D5
:10307000ACB26143170C7C432B0C5F4392B25A43B2
:10308000A41802D301221204BF182204230C5218E0
:103090007B41019C6C431B19520ED9010A43440128
:1030A000A01A81B2B2B2514303145A43360C73438F
:1030B00087B27743D617D21900277E4136049B1971
:1030C0001704160C7F185E417316ED18F3010026E5
:1030D00080337541A90F06D16400690AE8055B0ACF
:1030E000184309D22FE00422944480337541A90A81
:1030F000A8059B0A184326D3404149412404009A5D
:10310000019B0D005543641B4343E41A95B286B2FC
:103110007543170C7E43030C5F4392B25A43B618B3
:1031200002D301221204BF183204330C52197B411E
:1031300052429C41002C02D40022013051414008EF
:10314000CA071043490802B06246D7079210084BDD
:10315000D218084B9A4203D212058918C919F0BD3A
:103160000020002A01DC3900F0BD01331905F5E724
:10317000FD030000FE07000007DA002107E0C90F89
:10318000C907520D03D0C91201E04C4909050020BE
:103190007047C0464A00F2D2520D013A484B9A425B
:1031A000EAD2F0B51405091B520801D300184941B1
:1031B0009B08D2181205944640A44A0CA25C0B0945
:1031C000534353431B1353435B131202D21A13008E
:1031D0005B435B0B4C086343DB135343DB15013349
:1031E0005B10D21A130CD21A13005B438902840DB0
:1031F00021438DB29EB275430F0C7E431B0C5F437F
:103200008CB25C43361902D3012424043F193404E0
:10321000330C64197B419D01A40E2C432034A5B2CC
:103220005543241454432D0C6419A411D203121BCA
:1032300095B28EB27543170C7E430C0C674393B264
:103240006343F61802D301231B04FF183304340C24
:103250005B197C41DB186441DB18002363419EB29B
:1032600076439DB21F0C7D437F436C04ED0BA41984
:103270007D4106028F08361BAF417D07F6086E417F
:10328000B4B295B26C4337147D43120C5743B6B2B7
:103290005643EA17AD19002672411204BF182E04D6
:1032A0002A0C36197A410832521117D29D0A9C0510
:1032B000D117101969416144F0BD0000FF070000FB
:1032C000FE070000F8EBDFD6CDC5BEB8B2ADA8A4AE
:1032D000A09C9995928F8D8A8885838152415D0A41
:1032E000DC05D11714194D412B006343A6B2764378
:1032F000A2B2270C7A437F435104D20B89197A4139
:10330000D218D21880054942904102D400230134DA
:103310005D4160086908ED0728436144F0BDC0467F
:10332000624618CA94465A46002A20DB04E06246E8
:1033300018CA944600291ADAC01861415B463B411D
:103340005C46B4405246FA40224344464D466241F0
:103350006B41904699462B46B3403D41FC401C438F
:1033600052465B46A241AB4192469B467047C01A0B
:10337000A1414B463B414C46B4404246FA402243B1
:1033800054465D4662416B4192469B462B46B34094
:103390003D41FC401C4342464B46A241AB41904656
:1033A00099467047002200B5203200F010F808005E
:1033B00000BD002200B500F00CF8CA179A4200D1F7
:1033C00000BDD8430121C907414000BD00220B15B3
:1033D0000AD410B5944600F0A7F81414013400DAAA
:1033E0000021CB17144C2047002000217047624475
:1033F000343A0CD40C2A07DA04009140904052422F
:103400002032D440214310BDD843D94310BD2032CF
:1034100007D40C469440524220321141D040204300
:1034200010BD0800C917203203D452422032104187
:1034300010BD1800190010BDEF3300104A00520DE6
:10344000144BD21A13DDFF2A1EDAD205CB0FDB078D
:103450001A43C300400F0903490A084310435B00A5
:1034600001D301D0013070474308FBD2704702D02E
:10347000C80FC00770470A0312130132F8D1420F78
:10348000072AF5D1012200E0FF22C80F00028018B0
:10349000C00570478003000000210A00002104E0FD
:1034A00000210A00C11704E00022002306E0C04604
:1034B0000022CB1758405940C01A994130B5184CDA
:1034C000A21A002903D1010010D00020203A4C1587
:1034D00012D104D2013A001849414C0DFAD3114CD3
:1034E000A24204D212058918DB07C91830BDD243A5
:1034F000520D00200021F5E703D4013A001849419C
:10350000FBD50B324405C00A4D052843C90A6400A7
:1035100003D0002460416141E1E7E0D34408F8E7CB
:1035200032040000FE0700000A0DCC0F531E1B05DD
:10353000C91A520503D3C943404200D30131520D89
:1035400003D0531CDB0A07D0121B00206400611C4F
:1035500089078912803A1203014BD21A7047000082
:10356000FF030000023225D40C2A1CDA1125AD1A03
:103570000B002B41083207350600EE409040914089
:103580003143F0CC63431A1500235A415543564347
:103590005743BF02F412760576196741ED177F197C
:1035A000801BB94170470C220020C9174900013126
:1035B0000905DBE70902030E1943000253422032DA
:1035C00008D40C0019419440D840204300225041B7
:1035D000514170470800C917203B2032F1D5002027
:1035E000002100227047F0B5FEF7D0FF00F00EF882
:1035F00000F030F806E0F0B5FEF7C8FF00F006F87E
:1036000000F046F8FEF7C8FFF0BD000000B5FFF778
:103610008BFF30A4FFF7A6FF00242C4D2C4ED207C1
:1036200002D3F6436D426641520004D2A246A3463D
:10363000A846B14603E0A046A146AA46B3466EA4FA
:10364000A44601271F26FFF772FE0137013E212FF6
:10365000F9D100BD594684B28DB26C43061475434E
:103660000B145E4382B25A43AD18EA1700D7D24317
:103670001204B6182A042B0C12197341404649460D
:103680009D009B17920F2A43904199413E2210E7DB
:10369000494684B28DB26C43061475430B145E43E5
:1036A00082B25A43AD18EA1700D7D2431204B618B3
:1036B0002A042B0C12197341504659469D009B1742
:1036C000920F2A43504159413E22F2E6BB4DF09DF4
:1036D000C556F6367D5100001A61140085880A002F
:1036E000FB211900F0B5FEF751FF404D0C002C40B6
:1036F00001D0AC4202D1090D090500201C002C406C
:1037000001D0AC4202D11B0D1B0500220026ED02A8
:10371000002B04D502266B40694000D476424F1935
:1037200004D599420CDD0136694003E0BB4207DA5B
:10373000013E6B40070010003A000F0019003B00EB
:1037400040B4002A0FD1002B0AD05C00641501346C
:1037500009D14C006415013402D10139013B02E06A
:10376000002000212EE0FFF72FFC3E22FFF722FE73
:1037700082468B4600200021804601229207914616
:103780001DA4A44601271F26FFF7CAFD0137013EED
:10379000212FF9D14A4653460C3A012464070027E9
:1037A00052081B0005D49341001979416408F7D1F0
:1037B00004E05341001BB9416408F1D1CE07491020
:1037C0004008304340BC002E0AD0094C094D01D5B9
:1037D000E443ED43F60701D100196941001969413D
:1037E0003D22FFF766FEFEF7D7FEF0BD0000F07F3A
:1037F0008D305A88A8F64332694FBB610567AC1D0E
:10380000B16E4096FCBAAD0F72DB0BABA66EF5073E
:1038100039BD9FE576ABFE034B6297BA5BD5FF01DE
:10382000D694DBDDAAFAFF005DEAEE5655FF7F0075
:103830006E77B7AAEAFF3F00BCBB5555FDFF1F00DE
:10384000DEADAAAAFFFF0F006F5555F5FFFF070079
:10385000ABAAAAFEFFFF03005555D5FFFFFF0100ED
:10386000ABAAFAFFFFFF00005555FFFFFF7F0000E6
:10387000ABEAFFFFFF3F000055FDFFFFFF1F000009
:10388000ABFFFFFFFF0F0000F5FFFFFFFF0700008A
:10389000FFFFFFFFFF030000000000000002000028
:1038A0000000000000010000000000008000000097
:1038B00000000000400000000000000020000000A8
:1038C00000000000100000000000000008000000E0
:1038D00000000000040000000000000002000000E2
:1038E0000000000001000000000000800000000057
:1038F000000000400000000051434343C9188C46BB
:10390000110C83B24B4310B4040C614392B280B2E9
:10391000504362431C041B0C001910BC5941130492
:10392000120CC018514161447047000048404140AA
:10393000484000239C46114B5B68184700239C4677
:103940000E4B1B6818470E4A936F9B0804D2002346
:103950009C460A4BDB681847F0B5146E556E576FDE
:10396000166FFFF7F4FF064A146655665767166729
:10397000F0BD00239C46014B9B681847284D002052
:10398000000000D007B548404140484001E0C04633
:1039900007B54200120E03D0FF2A03D1420218D805
:1039A000C00DC0054A00120E03D0FF2A03D14A02FF
:1039B0000FD8C90DC9050122414005D4414001D5A8
:1039C000814207BD884207BD0143491801D0C04369
:1039D000001807BD00B5FFF7DBFF01D0002000BDD8
:1039E000012000BD00B5FFF7D3FF01D9002000BDC5
:1039F000012000BD00B5FFF7C5FF01D9002000BDC3
:103A0000012000BD01231B064200D21804D84A0041
:103A1000D21801D80020704701207047491A0028A9
:103A200008D1084670470000C10FC90700D54042C1
:103A3000002817D0F44603B40B4B1B68984706BC0C
:103A400081409E384042803107D20B0607D04900A2
:103A5000490AC0051043084360470130F8E7490AA6
:103A60008902F5E770470000244D002000239C46A2
:103A7000014B5B6A18470000284D0020034BDB6FA9
:103A8000FC4618477CDF493C00100000284D002010
:103A9000C11504D400239C46054B9B691847C843B5
:103AA000FF2801D1C0077047C817C0057047000044
:103AB000284D002000239C46014B1B6D1847000039
:103AC000284D002070B513231D782A48FEF7CCF945
:103AD0000400012D11D0012D09DDA31E1B789B00D0
:103AE0007F2B40DD80222100234800F0E9F82348A5
:103AF000FEF7B2F9224B186070BD542201001E4837
:103B000000F0DEF81F4B1A881F4B9A421CD1A723E6
:103B10009B011A881D4B9A4216D11D4B1A881D4BCA
:103B20009A4211D11C4B1A8894239B019A420BD1C3
:103B30001A4B1A881A4B9A4206D11A4B1A681A4B1A
:103B40009A4201D1152307E01848FCF7BFFE9900FF
:103B50001748094A885001331F2BF8D9144A064BDD
:103B60001A62DA61B7E7134B134A4221134801F096
:103B7000E1F9C04653460000284D00204C330000B8
:103B8000244D0020EE290000C40F0000C20D0000EB
:103B9000962B0000C0B50000182B0000CC2A0000B6
:103BA00010B50000FC2C000051ED87645C1F041070
:103BB000153C0010D42704106428041008280410B1
:103BC000C20DFF2313407F3B5A1C0FDB5A1C10D041
:103BD0001722D21A002A08DD1621C91A01228A40AA
:103BE000101802238B405B4218407047C00FC0077B
:103BF000FBE7C00FC007FE239B051843F5E7000055
:103C000010B5FFF757FF0249FFF7B3FE10BDC046DE
:103C10003BAAB83F07B56046002800D100BE018826
:103C20000A0A0230DF2AFAD1C9B2820804D3028814
:103C300040880004104300E00068024A505003909E
:103C400007BD0000284D0020C30FDB0741000A0E0E
:103C500007D0FF2A08D00909054A891819434007E7
:103C600070471900002070470249C918FAE70000A0
:103C7000000000380000F07F10B5040031F09EFC19
:103C8000002804D00419034B9C4200D810BD024800
:103C9000FCF71CFE000004207828041010B531F059
:103CA00097FC10BD01480421014B1847001C00205F
:103CB000791E0010014B1B6818470000001C0020F3
:103CC000014B5B6818470000001C002010B5FFF78F
:103CD000D3FF10BD10B5FFF7CFFF10BD10B5FFF734
:103CE000DDFF10BD10B5FFF7D9FF10BD10B5FFF710
:103CF000D5FF10BD9A4200D288547047704710B566
:103D0000002802D00B684968984710BD01000020C8
:103D100007E083001B185B00501C08601078C01877
:103D200030380A681378303BDBB2092BF1D9704781
:103D3000F0B5DE4657464E464546E0B583B093465D
:103D40001F000C9B9A460D9C0E9B99460F9B9B0750
:103D500003D0B8460F00060022E00192A346884631
:103D60004E46B9460700B44207D2551C4B46414661
:103D70002020B84701342A00F5E73D004F465C4655
:103D8000019B9B46B1464646B84637002E0007E0E9
:103D9000013C551C5346185D43463900B0472A0084
:103DA000002CF5D135003E0047460F9B9B0707D4FA
:103DB000100003B0F0BCBB46B246A946A046F0BD19
:103DC000B0464E46B9462F005D46531BB342EFD274
:103DD000541C4B4641462020B8472200F5E7F0B579
:103DE000CE46474680B585B0944698460C9D0D9CBE
:103DF0000EAB1B789946109A119B129EB7071CD4E4
:103E0000002B0CD0F7070AD54F46002F02D10C37F4
:103E1000374204D0013B02E030272F550134944251
:103E200001D21F2CF8D9F70707D59C4205D21F2CC9
:103E300003D830272F550134F5E7F70615D5770558
:103E400005D4002C03D0944224D09C4222D00F9A57
:103E5000102A2BD00F9A102A30D00F9A022A35D070
:103E60001F2C02D830222A5501341F2C05D84A466F
:103E7000002A31D02D222A55013403960293019451
:103E8000009543466246FFF753FF05B0C0BCB946F4
:103E9000B046F0BD621E012C06D00F9F102F01D03E
:103EA0001400D4E7023CD2E71400D0E7B206D1D424
:103EB0001F2CCFD878222A550134D1E7B206CCD5B1
:103EC0001F2CCAD858222A550134C9E71F2CC7D83D
:103ED00060322A550134C3E7720703D52B222A55D5
:103EE0000134CAE73207C8D520222A550134C4E775
:103EF000F0B5DE4657464E464546E0B593B081469E
:103F00008A46089209931CAB10CB1B789B461E9DDA
:103F1000219B9846002C03D1102342469A43904699
:103F20008023DB0046461E4042461A4212D0002C37
:103F300022D000260EE03033D9B2771C0AAB995557
:103F400029002000FEF7EAF8AC4216D31F2F14D840
:103F50003E00040029002000FEF7E0F8CBB2092B58
:103F6000E9D94246920605D54121C918C9B20A3994
:103F7000C9B2E2E76121F8E7270043460693209B98
:103F800005931F9B049303955B46029301970AAB2D
:103F90000093099B089A51464846FFF720FF13B04B
:103FA000F0BCBB46B246A946A046F0BDF0B5DE4621
:103FB00057464E464546E0B595B0089009910A929D
:103FC0000B931E9E1F9C20AB1B789B46229B994601
:103FD000239D269B9A463300234303D11033524638
:103FE0009A4392468023DB0057461F4052461A42AE
:103FF00019D0330023432DD0002714E03033DAB238
:104000007B1C98460CABDA554A462B003000210049
:10401000FEF7C2F8A5421FD819D043461F2B1BD864
:10402000474606000C004A462B0030002100FEF7F0
:10403000B3F8D3B2092BE1D95246920605D54122F5
:10404000D218D2B20A3AD2B2DAE76122F8E7B14521
:10405000E3D901E00023984653460693259B059338
:10406000249B04934B4603935B4602934346019380
:104070000CAB00930B9B0A9A09990898FFF7AFFEC7
:1040800015B0F0BCBB46B246A946A046F0BD000044
:10409000F0B5DE4657464E464546E0B591B08346FC
:1040A0008A460C9298461A9C08941B9D09952200FA
:1040B0002B0020002900FEF70EFB002800D0E5E0D1
:1040C00001225242D74B20002900FEF7FFFA0028B8
:1040D00000D0DBE001225242D34B20002900FEF742
:1040E000DFFA002800D0D1E000220023089E300033
:1040F000099D2900FEF7D4FA002800D0DDE00898D9
:104100000999069007918023DB001E9A1A400D92B0
:104110001E9A1A4201D106231C930698079904009F
:104120000D000A000600024300D1D1E0080D400551
:10413000400DBE4CA44660440A03120BBC4B134313
:104140001F00FEF7D9FABB4ABB4BFEF75EFABB4A2B
:10415000BB4BFEF733FA04000D000022B94B3000D0
:104160003900FEF722FAB84AB84BFEF74EFA0200C1
:104170000B0020002900FEF721FAFEF7D5FA814650
:10418000FEF7BAFA04000D00B14AB24BFEF73DFA51
:104190000022B14BFEF712FAFEF7C6FA0600AF4A4C
:1041A000AF4B20002900FEF730FA04000D0030006C
:1041B000FEF7A2FAAB4AAC4BFEF727FA02000B005F
:1041C00020002900FEF7F1F904000D0002000B00A9
:1041D000FEF71BFA0A900B91A44BF31800261F055B
:1041E00022002B0020002900FEF7E8F90E900F9125
:1041F00022002B0000208021C905FEF7D6F904001B
:104200000D0000229A4B0A980B99FEF7E0F9002264
:10421000984BFEF7D3F902000B000A980B99FEF7B2
:10422000D6F90022944BFEF7C9F902000B000A9858
:104230000B99FEF7CCF902000B0020002900FEF7D5
:10424000BDF902000B000E980F99FEF7C0F900228D
:10425000774BFEF7B3F932003B00FEF7D6F90600C4
:104260000F0004000D00069A079BFEF72FFA0028A6
:1042700030D001235B429C46E14400227D4B30005C
:104280003900FEF7A4F904000D0023E01E9B0493FF
:104290001D9B03931C9B0293089A099B0092019318
:1042A00043460C9A5146584600F0FCF811B0F0BC59
:1042B000BB46B246A946A046F0BD002300240693A3
:1042C0000794069680231B069C46654407951AE7CB
:1042D000002399464B466333C62B1ED804261E9BEB
:1042E0001B0526D52B0023430FD0644A644B069848
:1042F0000799FEF7E3F9002879D00022614B069870
:104300000799FEF7CDF9002871D01C9B4B4506DDBF
:104310004A46981A431E1C9303E00526DFE7002354
:104320001C938023DB001E9A1A431E920026002352
:1043300099461D9B9E4264D29F1B02231E9A1A40DF
:104340000A921E9A134202D0002E00D000274B463C
:10435000002B07D022002B0006980799FEF737F9AB
:10436000069007910022002308980999FEF798F912
:10437000002848D1444B1E9A1340049303971C9B7A
:104380000293069B079C0093019443460C9A514666
:10439000584600F087F8002E00D187E71E9B9B0649
:1043A0003DD54525441C4346020051462800D847C8
:1043B0004B46DA179B18534005220592013E04969E
:1043C000002203920A3202924A46D00F01900093D3
:1043D0004346220051465846FFF78AFD0A9B002BB0
:1043E00000D163E702005F460C9E1D9D54E01C9BBC
:1043F000002B9ED00D9B002B9BD01C9B013B1C9344
:1044000097E7002799E7069C079D22002900802056
:104410000006844661440B0006920793AAE76525CF
:10442000C0E7C046FFFFEF7FFFFFEFFF01FCFFFF8C
:104430000000F03FFB799F501344D33FB3C8608B1B
:10444000288AC63F0000F83F61436F63A787D23FC9
:1044500071A379094F930A400000E03F1655B5BBA0
:10446000B16B0240EF39FAFE422EE63FFF03000037
:1044700000002C4000002440000018402D431CEB9D
:10448000E2361A3F80842E41FFF7FFFF541C43465B
:1044900051462020B8472200931BAB42F6D31000B0
:1044A00004E7C046F0B5DE4657464E464546E0B501
:1044B00095B00690079193469946209F1E9A1F9BA0
:1044C00010001900FEF707F9002831D101225242ED
:1044D000BF4B1E981F99FEF7E3F8002837D1012241
:1044E0005242BC4B1E981F99FEF7F0F800283DD1B0
:1044F0000022B94B1E981F99FEF7E8F8002850D10A
:104500000022B64B1E981F99FEF7CAF8002848D122
:10451000002200231E981F99FEF7C2F8002850D1F0
:1045200000239846229B5B0500D4B6E0002458E0A7
:10453000229B0393219B029303230193A84B009397
:104540004B465A4607990698FFF7F2FB0EE1229B6D
:104550000393219B029304230193A24B00934B46A8
:104560005A4607990698FFF7E3FBFFE00423229AD7
:104570001A4022990B4210D09B4B002A0FD00422E4
:104580002299039121990291019200934B465A4638
:1045900007990698FFF7CCFBE8E0944BEDE7032280
:1045A000EEE7229B0493219B039302971E9B1F9C83
:1045B000009301944B465A4607990698FFF768FD09
:1045C000D4E01E9A1F9B00200021FDF7EEFF1E90F5
:1045D0001F9101239846A5E70CAB30221A55013FE5
:1045E00001341F2C01D8092FF6D81E981F99FEF709
:1045F0009BF80500FEF780F802000B001E981F993B
:10460000FDF7D3FFFA007A4B9B181A685B680A9291
:104610000B93FDF7FAFF08900991FEF7A9F8060041
:10462000FEF766F802000B0008980999FDF7BDFF38
:104630000890099100226F4BFEF748F800282ED011
:1046400001363000FEF754F802000B000A980B996F
:10465000FEF72CF8002801D001350026002F2CD1C0
:104660002800FEF749F802000B001E981F99FDF77D
:104670009CFF06000F0000225E4BFEF711F8002899
:1046800046D100225B4B30003900FEF71FF80028AE
:104690003ED1EB073CD501353AE0062746E700223C
:1046A000544B08980999FDF7FBFF0028D6D1002E3E
:1046B00001D0F307D2D50136D0E7AA461F2C11D876
:1046C000013F0A213000FDF729FD651C30310CAB9C
:1046D00019550A213000FDF721FD092E0ED90600DB
:1046E0002C00EBE755461F2C0CD87B1E002F09D061
:1046F0000CAA302111551F000134F4E72B00554658
:104700001C00F0E71F2C03D80CAB2E221A550134E5
:104710001F2C10D80A212800FDF7D8FC661C303168
:104720000CAB19550A212800FDF7D0FC051E01D05D
:104730003400EDE734000323229A1340012B1CD0F0
:104740001F2C06D84346002B32D00CAB2D221A5515
:104750000134229B0393219B029301940CAB0093A1
:104760004B465A4607990698FFF7E2FA15B0F0BC97
:10477000BB46B246A946A046F0BD219B002B13D0F4
:104780004346002B02D10C3313420FD0219B013B37
:104790002193190003E00CAB30221A5501348C42EE
:1047A000CED21F2CF7D9CBE72199F8E72199F6E76C
:1047B000229B5B0704D50CAB2B221A550134C8E7AA
:1047C000229B1B07C5D50CAB20221A550134C0E72C
:1047D000FFFFEFFFFFFFEF7F65CDCD4165CDCDC181
:1047E000282904102C290410202904101C29041045
:1047F000182B04100000E03FF0B5DE4657464E4649
:104800004546E0B593B082468B4690461193002909
:1048100000D1EBE200275546119B1878002800D103
:10482000E7E2252809D07C1C43463A005946A847B0
:10483000119B013311932700EEE7013311930024FC
:10484000119A11780B00203BD8B2102803D88300AE
:10485000D048C3589F460B00303BDBB2092B2CD904
:104860002A292FD000230A93119B1A782E2A39D097
:1048700000239A46119A1378683BD9B2122976D848
:104880008B00C549CB589F4601231C43013211922E
:10489000D6E702231C4301321192D1E704231C43C3
:1048A00001321192CCE708231C4301321192C7E771
:1048B00010231C4301321192C2E711A8FFF726FA18
:1048C0000A90D1E71C9B1A1D1C921868002804DB73
:1048D0000A90119B01331193C6E702231C43434204
:1048E0000A93F6E78022D20014435A1C11925A7898
:1048F0001300303BDBB2092B04D92A2A07D000234E
:104900009A46B7E711A8FFF701FA8246B2E71C9B67
:104910001A1D1C921868002804DB8246119B013383
:104920001193A7E70020F8E780235B002343511C85
:10493000119152786C2A01D01C0018E0C0239B0012
:104940001C430131119112E080232343511C11912A
:104950005278682A01D01C0009E0C0231C430131B1
:10496000119104E080235B001C4301321192119BE2
:1049700018780300253BDAB2532A00D92CE29300C1
:10498000864AD3589F4680239B001C4301321192D4
:10499000EDE780235B001C4301321192E7E77828A2
:1049A00009D0582838D06F2838D0622838D0102342
:1049B0009C430A2600E01026582833D0692803D0EB
:1049C000642801D00C229443630501D5012294434D
:1049D00069282AD0642828D0A30500D59FE0E305E4
:1049E00000D5B8E0630600D4CAE01C9A111D1C91E2
:1049F0001168FF220A4005940A9B049353460393CF
:104A0000029600230193009243463A00594628003B
:104A1000FFF76EFA070027E01026CDE70826CBE760
:104A20000226C9E720221443C8E7A30520D4E305E2
:104A300050D4630666D51C9A111D1C911168FF2283
:104A40000A40D317D118594005940A9B0493534642
:104A500003930296D20F0192009143463A005946C1
:104A60002800FFF745FA0700119B01331193D3E6A5
:104A70001C9BDA1D07218A43110008311C91116823
:104A800053689C46DB170C930D930C9A0D9B1000FA
:104A900048400E90624653400F930E980F990C9A1F
:104AA0000D9B801A99410E900F9108940A9B0793D1
:104AB000534606930496002305936346DA0F029249
:104AC0000090019143463A0059462800FFF76EFADC
:104AD0000700C9E71C9A111D1C911268D317D11841
:104AE000594005940A9B0493534603930296D20FB0
:104AF0000192009143463A0059462800FFF7F8F921
:104B00000700B1E7230605D51C9A111D1C9100234F
:104B1000D25E96E71C9A111D1C91126891E71C9BAE
:104B2000DA1D07218A43110008311C9108940A9B61
:104B30000793534606930496002305930293136844
:104B400054680093019443463A0059462800FFF701
:104B50002DFA070088E71C9A111D1C9105940A9BE9
:104B60000493534603930296002301931368009322
:104B700043463A0059462800FFF7BAF9070073E7A1
:104B800023060DD51C9A111D1C9112681204120CDB
:104B900031E7C0463429041078290410C4290410D0
:104BA0001C9A111D1C91126825E746281AD01C9BDF
:104BB0000733072293431A0008321C9204940A9A7E
:104BC0000392524602925C681B680093019443462C
:104BD0003A0059462800FFF765FC0700119B013396
:104BE000119319E620231C43E1E7672801D04728E9
:104BF00002D180231B011C43452801D0472801D145
:104C000020231C431C9B0733072293431A000832BE
:104C10001C9204940A9A0392524602925C681B68A2
:104C20000093019443463A0059462800FFF730FAB2
:104C30000700119B01331193EEE502231A00224075
:104C4000924623421FD001241C9B1A1D1C927A1CE1
:104C50009146187843463A005946A8475346002BD8
:104C600016D1119B013311934F46D5E5561C43468F
:104C700059462020B847230032005C1C9D42F5D8DD
:104C80003D001700E0E701233A002F000A9DF4E7FA
:104C90004A46A9460A9D06E0571C4346594620202D
:104CA000C84734003A00661CA542F5D84D469146E7
:104CB000D7E71C9B1A1D1C921B6899465346002B74
:104CC00000D1013B4E4601E0013613003278002A44
:104CD00002D05A1E002BF7D14B46F21A10928023B5
:104CE000DB0026001E401C4203D0524501D953462A
:104CF000109302231A0022400B92234205D03A005F
:104D000037004C46A946554620E03A00109B5F46C6
:104D1000B3462E0006E0551C434639002020B0471C
:104D200023002A005C1C0A999942F4D835005E469B
:104D3000BB46109437004C46A946554606E01D0078
:104D40000134561C43465946C84732002078002893
:104D500004D0002FF4D06B1E002DF0D117004D466B
:104D60000B9B002B03D1119B0133119354E50A9F38
:104D7000109B06E0561C434659462020A8472300B6
:104D800032005C1C9F42F5D81700ECE721231C433E
:104D90001C9B1A1D1C921B68009305940823049306
:104DA00053460393102302930023019343463A0092
:104DB00059462800FFF79CF80700119B0133119317
:104DC0002AE57C1C43463A0059462520A847119BFA
:104DD0000133119327001FE57C1C43463A005946D6
:104DE000A847119B01331193270015E50A4B9A46FA
:104DF00010E5AA46474502D343465A1E00E03A0052
:104E0000434659460020D047380013B0F0BCBB469B
:104E1000B246A946A046F0BDFD3C00100EB410B548
:104E200085B0010007AC08CC0394012200945242E3
:104E30000348FFF7E1FC05B010BC08BC03B01847FD
:104E4000F53C001000B583B0009313000A00010088
:104E50000248FFF7D1FC03B000BDC046F53C00108E
:104E600000B585B0029003910121009313004A42DE
:104E700002A90248FFF7C0FC05B000BDFF3C0010CE
:104E800000BEFDE703000A4A1268002A08D0084A5B
:104E90001068C318074A9A4206D3054A1360704740
:104EA000034A05491160F2E701204042F7E7C04696
:104EB000F847002000000420584E002000207047D2
:104EC000012040427047000010B5030008001100A7
:104ED000002B05D1044B1A685B6800F041F910BD46
:104EE00001204042FBE7C046C825041010B503006E
:104EF00008001400013B012B06D8012300222100E9
:104F000000F0E4F8200010BD01204042FBE7012042
:104F100040427047012040427047012040427047A4
:104F20000300002002229A424041704710B5FFF76B
:104F3000A7FF000010B582B00C001900002A0CD0A9
:104F4000084B002A0BD00192009323000200064870
:104F500000F0B4F90120FFF793FF044BF1E7034A97
:104F6000F1E7C046682B0410782B04105C1F041076
:104F700010B5EFF30583002B00D000BEFCF7CCFF8B
:104F8000034C01E008CC9847024B9C42FAD310BD79
:104F9000DC1E0410001F041010B5030008001100EF
:104FA0001B68984710BD0000F8B507000D001600FB
:104FB000437D002B02D0002400200CE00368110088
:104FC000280098472DE03B7D10E0022115483B6802
:104FD0009847601C0134B44214DA002CF3DD2B191D
:104FE000013B1B780D3B5A425341DBB22A5D0A2A32
:104FF000F0D1002BEED1A042E7DA211A28183B6845
:105000009847E2E7B04203DA311A28183B6898471C
:10501000002E06DDAD19013D2B780D3B5A42534160
:105020003B75F8BDA82B041070B505000368002B74
:1050300016D00C4B1C6805E0290004C92000FFF7BE
:10504000B3FF2469002C09D02368002BF9D0064B4C
:105050001B68002BF0D0A342F3D1EDE700232B60B7
:1050600070BDC046EC470020F447002070B5050035
:105070000C000B68802B05D021684B1C2360641842
:10508000257170BD0800FFF7CFFFF5E710B5FCF7FD
:1050900085FC074A002312184B41002B03DB05480F
:1050A0003CF0B6FE10BD01225242034BF7E7C0466A
:1050B00040420F0008270020FFFFFF7F10B5024885
:1050C0003CF02EFE10BDC04608270020F0B5CE46AD
:1050D000474680B583B006000D0090461C00FFF7E0
:1050E000D5FF81466B1C05D0002C08D0184F194BFA
:1050F0001C6807E0300032F009FB0500F4E7164FAA
:10510000F5E72469002C17D02368002BF9D0134B46
:105110001B68002B01D0A342F3D12A0031002000EC
:10512000B8474346002BECD06B46D91D0A230B70C1
:1051300001222000B847E4E74B46002B05D12800A8
:1051400003B0C0BCB946B046F0BDFFF7B7FFF6E705
:10515000A94F0010EC470020994F0010F4470020A1
:10516000F0B5CE4600B582B006000F00914601931F
:1051700028E0A368002B04D03900300098470028AD
:1051800027DC2469002C06D0144D2D68002DF0D0AA
:10519000A542F6D1EDE701990A00114B5B6A9942ED
:1051A00009D80F49896A49450FD29A4201D0012393
:1051B00002E0002300E00023002B08D101200021A1
:1051C000FCF7F4FB074B1C68DCE70123F4E7022043
:1051D000404202B080BCB946F0BDC046F447002052
:1051E00000400540EC470020094A01E010331A0056
:1051F0001368002B08D08342F8D1002907D1036936
:1052000013600023036102E0002900D010607047A2
:10521000EC47002010B5064B1C6801E09847246954
:10522000002C03D06368002BF8D1F8E710BDC0460E
:10523000EC47002010B500F04FF900F0CBFA012048
:1052400010BD10B582B004006B46D81D0470012358
:1052500000220121FFF73AFF200002B010BD70B517
:10526000050032F053FA0400012301220100280056
:10527000FFF72CFFFFF7CEFF200070BD70B5A2B086
:1052800004000E00FFF702FF050000230193330026
:10529000220001A90848FFF7E3FD040001A8FFF779
:1052A000C3FEFFF7B7FF002D02D1200022B070BD72
:1052B000FFF704FFF9E7C0466D5000100FB400B5CA
:1052C00083B004A901C90191FFF7D8FF03B008BC5E
:1052D00004B01847F0B583B005000E0000240FE0BD
:1052E0006B46D91D0D230B700020002816D1936941
:1052F0009B06FCD40B78136001300131F5E70134D3
:10530000B44219DA0D4B1A682F5D0D4BD318594270
:105310004B415B000B495B5EBB42E1D06B46D91D44
:105320000F7000200028EAD193699B06FCD40B780B
:10533000136001300131F5E703B0F0BD384E0020B5
:105340000080FCBF344E0020F0B583B006000F0093
:10535000002504E06B4607331B782B702500BD4207
:1053600015DA164B1A6893691024210019401C4263
:105370000DD16C1C75196B46D81D0029EAD19369B3
:10538000DB06FCD41368037001310130F5E70C4BE8
:105390001B68002B0AD0094B1B6850229A63596B7B
:1053A000183A0A4007498C4663441A60002D02D01F
:1053B000280003B0F0BD033DFAE7C046384E002098
:1053C000844700203410000010B5064B1B68002BEA
:1053D00006D0054A126800219163044A1068984774
:1053E00010BDC04684470020384E00208C47002066
:1053F000024B1A6893691B07FCD47047384E002093
:1054000070B51E4B1B681E4A934209D01424002815
:1054100003D01C4A1268002A04D000281AD070BD9C
:105420001524F4E7174B1860174B19601749200033
:10543000FBF79CFB01212000FBF76CFB0F4B1B686B
:1054400050229A63596B183A0A4011498C466344BA
:105450001A60E4E70B4A1268002AE0D000259D6339
:1054600000212000FBF756FB08492000FBF7C4FC95
:10547000044B1D60044B1D60D1E7C046384E002030
:1054800000800340844700208C470020C95300104F
:105490003410000070B50D001C000D4B1860002A80
:1054A0000BDA002C0EDA0A4B18682900FCF708FB0F
:1054B00001210848FFF798FE70BD02211000FBF79C
:1054C000B9F9EEE702212000FBF7B4F9EBE7C0469B
:1054D000384E0020101C002010B5074B1B78074BDE
:1054E0001B78074B1B78E121012300224902054864
:1054F000FFF7D0FF10BDC046FCDC041000DD041037
:1055000004DD04100040034070470000014B0022FE
:105510001A707047524E00204B79FF2B0CD18B79BB
:10552000002B0BD1CB79012B0AD1082A0AD98A7812
:10553000054B1A70092000E0002070470020FCE7AE
:105540000020FAE70020F8E7524E002001207047C3
:1055500010B5012928D1117953791B020B43134946
:1055600009788B4201D000201FE05378012B03D033
:10557000022B12D0002018E09178D3781B02194337
:10558000DB0507D5480A4A0A01231A407E33194031
:10559000FCF78EFC01204042F5E764220021002048
:1055A000FCF72EFC012000E0012010BD524E00202F
:1055B00000487047142C041010B51400012910D1B4
:1055C0005378012B0FD1127963791B021343072BF8
:1055D00001D0002006E09F33044A210001F02AFB9D
:1055E00000E0012010BD0020FCE7C046382C04106C
:1055F0000123037000487047F42B041010B50B789A
:105600004878000218438A7812041043CB781B06AE
:1056100003439622D200934200D010BD0120002205
:1056200011004042FCF744FC024B1860024B196029
:105630007047C046884700209047002010B5FCF70F
:10564000ADF90E4A002312184B41002B12DB0C4817
:105650003CF0DEFB00280CD001200021404201F08C
:10566000B1F9002001F056FC0028F5D104483CF0C7
:1056700057FB10BD01225242024BE8E740420F00A7
:105680002C4E0020FFFFFF7F10B5024B1878FBF770
:105690004BFA10BD534E002010B584B000212B48AA
:1056A0003CF07EFB002821D1294B1B68002B1BD02E
:1056B000274B1968EFF3108272B60B68002BFCD0F1
:1056C000BFF35F8F22494A60224803780124634078
:1056D000DBB2012404700968BFF35F8F002008600B
:1056E00082F31088002B17D104B010BD01200021D7
:1056F000404201F067F9002001F0E4FB0400134888
:105700003CF00EFB002CEFD0134B1B68002BEBD0B2
:10571000124A10689847E7E7FBF710FF0400FCF710
:105720003DF9FA229200002312184B41002B09DBAD
:105730000121029100210191094900912000FBF70C
:105740006BFFD1E701225242064BF1E72C4E0020BD
:10575000044C0020544E0020884700209047002031
:1057600069570010FFFFFF7F70B5174B1B68002BB8
:1057700021D0154B1968EFF3108372B60A68002A1E
:10578000FCD0BFF35F8F10494B6000220F480270BE
:105790000968BFF35F8F0A6083F310880024002537
:1057A0000B4B1878FBF79CF9002808D10024002542
:1057B0002000290070BDFA24A4000025F0E7044B66
:1057C0001878FBF7B1F9F3E7044C0020544E0020A1
:1057D000534E002010B584B0D0231B061C68FBF785
:1057E000ADFEFBF773FFA0422CD12D4B1B7802F0CE
:1057F00071F82C4B1B68002B2AD00120FBF74EFCC4
:10580000C0B2294C20702949FBF7B0F9207801215A
:10581000FBF780F90520FBF797F9041E1CD0012047
:10582000FBF7D2F801002248FBF796FC0022214941
:105830000520FBF7C5F901211F48FFF7D5FC200023
:1058400004B010BD1D4B1E4AC1211E48FFF772FB5C
:105850001448FBF73FFCD0E7082200211448FEF76C
:1058600029FAFBF76BFE0400FCF798F8FA22920085
:10587000002312184B41002B0DDB01210291002166
:105880000191114900912000FBF7C6FEC043C40FEF
:105890000028D4DACFE7012252420C4BEDE7C04694
:1058A00008DD04102C4E0020534E002099560010A5
:1058B000044C002089560010281C0020CC22041023
:1058C000542D0410E02C041069570010FFFFFF7FD7
:1058D00010B5002001F0D4FA10BD000070B505002D
:1058E0000C00FFF7F5FF002834D0002001F0EAFAA1
:1058F000002832D0FCF752F81B4A002312184B4103
:10590000002B19DB19483CF083FA002828D0FFF758
:10591000DFFF002804D0002001F0D4FA00280FD1C6
:1059200001200021404201F04DF8032464420F4859
:105930003CF0F6F9200070BD012252420C4BE1E729
:1059400022002900002001F0C9FA041EEFD103242F
:105950006442ECE703246442ECE703246442E9E791
:1059600003246442E6E7C04640420F002C4E00206C
:10597000FFFFFF7FF0B5C64600B580460C00FCF780
:105980000DF8314A002312184B41002B07DB2F483A
:105990003CF03EFA002806D180BCB846F0BD01229A
:1059A00052422B4BF3E7FFF793FF002849D1294BD5
:1059B000002000211860596024483CF0B1F9EBE761
:1059C00001200021404200F0FDFF002001F0A2FA7A
:1059D000FFF77EFF0028EFD0002001F025FB002814
:1059E00020D0A542E8DA661B002001F01DFB020072
:1059F000864200DC3200002AE2D0434659190020DA
:105A000001F0EEFA060001200021404200F0DAFF2A
:105A1000002001F07FFAAD19FBF7C0FF0D4B1860B5
:105A20005960DEE7FBF7BAFF0A4B1E685F680A4A57
:105A3000002392197B419942BED8D2D19042D0D94D
:105A4000BAE70025CDE7C04640420F002C4E0020AB
:105A5000FFFFFF7F9028002020A10700004870472B
:105A6000E42D041000487047902D041010B5040078
:105A7000154B1B78002B0ED0002C11D1134B144A60
:105A80005A80012301335B001BB2C02292001343F2
:105A90000E48038010BD11210B4800F025F8EBE7FC
:105AA000052C0ED8A4000B4BE4580023122BE9D888
:105AB000E25C002AE6D00133590004484252DBB2CE
:105AC000F4E70020E6E7C0463C4E0020C447002033
:105AD00009040000F82D041010B5024800F034F855
