:020000041000EA
:1000000000B5324B212058609868022188439860DF
:10001000D860186158612E4B002199600221596106
:100020000121F02299502B49196001219960352056
:1000300000F044F80222904214D00621196600F024
:1000400034F8196E01211966002018661A6600F04E
:100050002CF8196E196E196E052000F02FF8012189
:100060000842F9D1002199601B49196000215960AB
:100070001A491B48016001219960EB211966A021F2
:10008000196600F012F800219960164914480160C1
:100090000121996001BC002800D000471248134993
:1000A000086003C880F30888084703B5996A0420EC
:1000B0000142FBD001200142F8D103BD02B5186610
:1000C0001866FFF7F2FF186E186E02BD00000240BE
:1000D000000000180000070000035F00212200005C
:1000E000F4000018222000A00001001008ED00E03C
:1000F00000000000000000000000000074B24E7A12
:1001000000200420F7010010C3010010C5010010F9
:10011000C1010010C1010010C1010010C101001097
:10012000C1010010C1010010C1010010C701001081
:10013000C1010010C1010010C9010010CB01001065
:10014000CD010010CD010010CD010010CD01001037
:10015000CD010010CD010010CD010010CD01001027
:10016000CD010010CD010010CD010010CD01001017
:10017000CD010010CD010010CD010010CD01001007
:10018000CD010010CD010010CD010010CD010010F7
:10019000CD010010CD010010CD010010CD010010E7
:1001A000CD010010CD010010CD010010CD010010D7
:1001B000CD010010CD010010CD010010CD010010C7
:1001C00000BE00BE00BE00BE00BE00BEEFF3058054
:1001D000103800BEF2EB887144CC041070CC0410CF
:1001E0003802001090A31AE71E481F49086006C88D
:1001F00081F3088810471D480068002801D019487D
:10020000F3E70DA40ECC002902D000F012F8F9E7B4
:100210001749184A002000E001C19142FCD116495B
:100220008847164988471649884700BEFDE701C937
:1002300001C29A42FBD3704770CC0410C00000206A
:10024000D02A002080F604100000042000000420C2
:1002500080F60410001004200010042000000000AC
:10026000704700000000000008ED00E0000000D032
:10027000D02A002018920020254B0010A90300105E
:10028000E94A0010F8B5C0460448054B10B5834252
:1002900003D0044B002B00D0984710BDD02A00207B
:1002A000D02A00200000000006480749091A8B10D8
:1002B000C90FC91810B5491003D0044B002B00D04A
:1002C000984710BDD02A0020D02A0020000000004E
:1002D00010B5074C2378002B09D1FFF7D5FF054B4C
:1002E000002B02D0044800E000BF0123237010BDA2
:1002F000582E00200000000088230410054B10B584
:10030000002B03D00449054800E000BFFFF7CCFFF5
:1003100010BDC046000000005C2E002088230410A1
:1003200010B5114804F0A4FD1049114807F06CFA0B
:100330000121022000F04AF80121032000F046F8D4
:100340000121042000F042F8052000F059F8D023E4
:1003500020221B065A6207485A6104F089FD0648AC
:1003600004F086FD10BDC0468823041040420F00F3
:1003700000C00340A4230410B4230410802010B54F
:10038000002300220021C00009F0AEF80400044A56
:10039000044909F0B7FA200003F012F810BDC04676
:1003A000CC710020B851002010B5FFF7B9FF04F060
:1003B0000BFDFFF7E3FF002010BDC04610B502485B
:1003C0000AF052F910BDC0462845002010B540245F
:1003D000084A83009A181268C0005440C022224084
:1003E000054CA44663441A60044B9C46604441603B
:1003F00010BDC04604C0014004D00140004001408F
:100400000123D02283404021120693629361094A5E
:1004100083009A181268C0005140C0220A40064961
:100420008C4663441A60054B9C4605236044436038
:100430007047C04604C0014004D001400040014064
:100440008023DB051868000F7047C0460FB400B565
:10045000084883B004F00CFD049B002B07D005A9CD
:100460001800019104F0D0FA034804F001FD0120C6
:1004700004F0E2FAC4230410D423041070B5EFF39F
:10048000108C72B60D4D2B68002BFCD0BFF35F8F24
:100490000724CB08C618C05C01230C40A3401C00F5
:1004A0000440034207D103433370BFF35F8F2C60D6
:1004B0008CF3108870BD1000FFF7C8FF2C0100D02E
:1004C000F8B54746CE46884680B5EFF3108C72B635
:1004D000214D2C68002CFCD0BFF35F8F9A422CD8A2
:1004E000D4080727055D061901241740BC402C429B
:1004F0001FD007210127894609E0D408055D0619A8
:100500004C4639001440A1400C00294211D0013260
:100510009342F2D201204042BFF35F8F00220E4B84
:100520001A608CF3108800280FDBC0BCB946B046B7
:10053000F8BD2C4310003470EEE7BFF35F8F00234B
:100540002B608CF31088012040424346002BECD0F6
:100550000898FFF77BFFC0462C0100D0044A1078B2
:10056000431CDBB2172B00D9102313707047C04611
:10057000441F002000B5054B83B0010000931822F2
:100580001F230348FFF79CFF03B000BDD8230410CE
:10059000504D00200021044B044ABFF35F8F02C37B
:1005A0009342FAD17047C046000100D0800100D0CC
:1005B000054B064A1360064A136053609360D3608C
:1005C00013615361936170478080808000E400E094
:1005D00004E400E01F2318401E3B8340002905D09F
:1005E000C021044A490053501360704780220149DA
:1005F0008B50FAE700E100E001228240034B1B68C8
:1006000013405A1E9341D8B27047C04600E100E043
:1006100001238340014A13607047C04600E200E0B6
:10062000084B10309B688000C358002B07D0064A47
:1006300000209B1A2F229A424041C0B270470020EE
:10064000FCE7C04600ED00E0481F002070B50D003B
:10065000EFF3108672B60F4A1368002BFCD0BFF37D
:100660005F8F0D4B10309B6884001B590B4A9342DF
:1006700003D09D4201D001F0F5F8074B9B681D5156
:10068000BFF35F8FBFF35F8F0022024B1A6086F3C8
:10069000108870BD240100D000ED00E0CD010010F5
:1006A000F0B557464E46DE464546E0B585B00600F5
:1006B00002911700EFF3108B72B6674A1368002B94
:1006C000FCD0BFF35F8F0025644B5D579A46002D29
:1006D00000DAA4E06B00624C03935B199B00984620
:1006E000A146C1444B4652469B79103613705D4B70
:1006F000B2009B68019299580B1B2F2B34D95A4B8F
:10070000994200D0A4E0039B584A9C46584B65444C
:10071000AD006353434602336519E418554B01217C
:10072000043B1B1B1B055B0D13436B80524BEF718E
:10073000AB80FF23AB71029BAB604B460B431900B0
:10074000484B019A9B689950BFF35F8FBFF35F8F4F
:100750000022414B1A608BF3108805B0F0BCBB46F9
:10076000B246A946A046F0BD01200A008243D379D3
:10077000BB422FD845464E46130040491B1B5B41E8
:100780005943090D3A4B63533A4B02356519043B03
:100790005B1B1B05354D5B0D2B4373800426B44654
:1007A000E0444444131F1B1B4C46A17102991B05D6
:1007B000A16049465B0D2B43A380314BE771014398
:1007C0001360BDE75800C01880002018C679BE42EB
:1007D0002BD902000623D356002BF3DA101D8246D4
:1007E0002848804604267642B446E14450464E46A8
:1007F000361A3005400D824656461C489571064310
:100800009680039A944665441D4AAD00641922609F
:100810004246A371029BA280E771A36090E701F0BA
:1008200021F8002553465D5754E7101D82469088F5
:100830004005001584464046D444664604302018DE
:10084000301AE0260005400D360230438046C9E7E5
:1008500001F008F857E7C046240100D011920020AB
:10086000481F002000ED00E0CD01001000E0FFFF78
:1008700000A1FFFF781F002001BDFFFFAAAA000012
:100880000148804701BD0000F0B5DE4657464E46A0
:100890004546E0B50C0083B0EFF3108972B65F4AAD
:1008A0001368002BFCD0BFF35F8F5D4B9A68030089
:1008B00010339F00D5595B4A904695423DD0A542E2
:1008C0004ED0594EAA1B2F2A37D8584A9346126841
:1008D0009446012261469246824011401F221040F8
:1008E000524682409246019180225146584681509C
:1008F000BFF35F8FEFF305829346002A32D10123C5
:100900002A009A439068844208D17CE04B005B182F
:100910009B00F318986884422ED01A000621515685
:100920000029F3DA84424DD0019B002B1FD0C02256
:1009300051463E4B520099501960394B9B68DD512E
:10094000BFF35F8FBFF35F8F0022344B1A6089F3D0
:10095000108803B0F0BCBB46B246A946A046F0BD25
:100960001500EAE79342CAD000F07CFFC7E7802376
:1009700051462E4AD150E0E706215956002922DB84
:100980004A005018800034188046A0689860E079CA
:10099000D871062020569871002825DBA488F01A0B
:1009A0006405241544440019E0240005400D240288
:1009B0002043988052181E4B9200B6181A7819706E
:1009C000B271B1E71300594600290FD1FF3191717F
:1009D0001849918016490A789A71174A9B1B5B4106
:1009E0005A43120D0A709FE71448E2E7144A15496A
:1009F000D21A083A5002400D014399801249520818
:100A00000A43DA8090E70621515613000029B7DA2D
:100A10005A46002AEAD14546DCE7C046240100D008
:100A200000ED00E0CD010010481F002000E100E0D3
:100A30001192002001BDFFFFAAAA000001BD000025
:100A4000821F002000F0FFFF00F8FFFF70B50124B7
:100A50000443EFF30581EFF3108C72B6214A13685B
:100A6000002BFCD0BFF35F8F1F4B05001F4AED1A10
:100A70006D416A43120D1E4D8900AE6852B2765820
:100A8000A6421CD00621595691421CD0122159561B
:100A9000914222D01E215956914220D02A215956E6
:100AA0000324914210D0134B19781A708171BFF34F
:100AB0005F8F00220B4B1A608CF3108870BDAB68FF
:100AC0000D4C5C50EFE700246100091989005B18A8
:100AD000FF21997109499980E5E70124F4E702248F
:100AE000F2E7C046240100D0481F0020AAAA000057
:100AF00000ED00E011920020CD01001001BDFFFFCC
:100B000000B5074B83B00100009300220523054880
:100B1000FFF7D6FC002801DB1F23181A03B000BD25
:100B2000F423041015920020024B9C466144890076
:100B30000160704740000034F8B5134D134E2C008F
:100B4000FF27B5421ED22368002B0FD0FFF706FD0A
:100B500001002800FFF7E8FFA780BFF35F8F08348C
:100B6000B4420FD223682500002BEFD1FFF7F6FC2B
:100B700001002800FFF7D8FF2771BFF35F8F08340B
:100B8000B442EFD3F8BDC046C82A0020D02A0020C6
:100B900010B50400FFF7E2FC01002000FFF7C4FFDE
:100BA000FF232371BFF35F8F10BDC04610B5040053
:100BB0000120FFF7DFFC044B9C466044800020606E
:100BC000BFF35F8F10BDC04640000034034B9C460E
:100BD000614489000160BFF35F8F704740000034BB
:100BE0000A4B1968EFF3108072B60A68002AFCD02D
:100BF000BFF35F8F1B68BFF35F8F00221A6080F323
:100C0000108840BF002000217047C046E8910020B6
:100C1000F0B5DE4657464E464546E0B585B0EFF3A3
:100C20000582032313409A0011000392B64A5258DA
:100C3000904601229A40B54B91461A6031E04346F6
:100C40009B881BB2002B00DB9DE043469B79002B69
:100C500000D0EFE0434608241C5F002C00DA17E1C7
:100C600042465269630094461B19DB0063449C684A
:100C7000DD68631C00D113E1A54B03999C466144D8
:100C80009A6A0B69A01A9B1A984200D20C61A0487C
:100C900000F02AFB241A8D41002D00DDF8E000D180
:100CA0002EE14B469A484363434608229B5E9A4690
:100CB000002BC4DB424652695B0093465344DB0081
:100CC0009B445B469E68DF6800F00EFB801BB941C9
:100CD0000029B4DB002F00DAEDE05B468D4A1B698A
:100CE000934200D1E0E041465A460820085E52880F
:100CF000000410435A465169984704000D00230030
:100D00002B4300D1D7E0002D00DBF0E0361BAF41D4
:100D100034003D005B469C60DD600021595E002987
:100D20008DDB43465B6922009C462B00480040183F
:100D3000C00060448668C768921BBB41002B00DA84
:100D40007DE74346664602000094019519810CE058
:100D50007B00DB19DB00F318009801999C68DD68C3
:100D6000001BA941002904DB1A000023D75E002FD5
:100D7000EEDA5B461F805346138043469B881BB2C6
:100D8000002B00DA61E743461A69EFF3108172B66F
:100D90001368002BFCD0BFF35F8F43469B8842460D
:100DA0001BB29A4601235B4293801369BFF35F8FA6
:100DB00000221A6081F310885346002B00DA44E7C2
:100DC00043465B699C46082343449B4653465F0069
:100DD00043465744FF0008229A5E67445E46BC685B
:100DE000FD68002A19DB3B000094019567469C468C
:100DF00004E01E000023F25E002A0BDB009801993C
:100E000053009B18DB00FB189C68DD68001BA941A0
:100E10000029EEDA6346BC461F00534633800021AA
:100E20007B5E3A809A46002BD0DA43469B79002BB2
:100E300000D10FE7002342469371434646460821FE
:100E4000595E08364B1C23D047468C46556902E054
:100E500006004B1C17D04B005B18DB00E8180A009B
:100E6000E95E43881BB2002BF2DA01235B42DC17F8
:100E70008360C4606245ECD031803B899446038036
:100E80003A814B1CE7D16446B846002C00DBE7E60C
:100E900040BF05B0F0BCBB46B246A946A046F0BD77
:100EA0006B1C00D0E8E6F2E65B465C692000236933
:100EB0009847002821D15B4642461B88138112695E
:100EC000EFF3108372B611680029FCD0BFF35F8F77
:100ED0004246594652880A8042465146518012691C
:100EE000BFF35F8F0021116083F31088A7E60848E5
:100EF00000F0FAF924184D410CE765682468FEE615
:100F0000002C00D1CDE6C3E7CC9100203C70054019
:100F100000400540110C001070B52E4C2569002DC5
:100F200004D00A212C48FFF7FFFD70BD2B4E032192
:100F3000300000F0CFF9E660FFF710FB284B0322EA
:100F40009C46D02322701B061B6801216370254B31
:100F50006044A3600F2380002061022063806369E6
:100F60004942A18019800231198647311D835852A8
:100F700018315A5275325C399952183201319952EE
:100F8000183201319952183201319952083518320C
:100F90009D52023118329952183201319952183249
:100FA0000131995218320131995218320131995256
:100FB0001832013199520C4B0C49DC60013035621A
:100FC000FFF744FB01210320FFF704FB084B1D60E2
:100FD000A7E7C046901F0020E89100200040054090
:100FE00040000034FFFF1000CC910020110C0010D5
:100FF0003860054000487047901F0020F8B51F007A
:1010000008AB1B7804001600002B07D100F074F920
:1010100032003B00121A8B41002B4CDB2269EFF3AC
:10102000108072B61368002BFCD0BFF35F8F62692B
:101030000223E15E94464B005B18DB006344002909
:1010400001DB1A8862802269BFF35F8F002515607B
:1010500080F31088002930DB069A9E60DF601A61F9
:10106000079A5A615A8801325204520C161C002AFF
:101070001FD0B0B20A045E8010432669EFF31085DA
:1010800072B63268002AFCD0BFF35F8FA2881A8044
:10109000A1802369BFF35F8F00221A6085F3108857
:1010A000074923788C4601329A40E36863441A600A
:1010B000F8BD0126DDE70020FAE701204042F7E70E
:1010C0003C20000070B5C646010000B50469EFF38E
:1010D000108C72B620680028FCD0BFF35F8F02200E
:1010E0000D5E48696C0080466419E4004444002D9C
:1010F00001DB208848800869BFF35F8F0026066007
:101100008CF31088002D30DBE36063880598013391
:1011100020615B0406985B0CA26060611A1C002BC6
:1011200021D090B22B04628018430A69EFF3108635
:1011300072B61368002BFCD0BFF35F8F8B882380BF
:101140008D800B69BFF35F8F00221A6086F31088D1
:101150000B7801329A40CB6805498C4663441A608B
:1011600040BCB04670BD0122DBE701204042F7E7FA
:101170003C20000010B543890A14934233DD53002C
:101180009B184269DB00944604696344EFF3108CBA
:1011900072B62268002AFCD0BFF35F8F5A88090418
:1011A00094B2090C8A4208D00369BFF35F8F002212
:1011B0001A608CF31088002010BD802212021443A4
:1011C0005C80012302698371BFF35F8F002111608E
:1011D0008CF31088054902788C469340C268012040
:1011E00062441360E8E70020E6E7C0463C200000C8
:1011F00040787047F0B5CE46474680B504000D00F4
:1012000083B0EFF30587002F3BD12F4E8146337813
:10121000F26804339B00916A9B58421A5B1A9A4207
:101220000ED320BF294A0020536AAB4203D3926AEF
:10123000013091453CD803B0C0BCB946B046F0BDC2
:1012400000F05AF822002B00121A8B41002B26DBEB
:101250001F4B2200009330002B000197FFF732FF55
:10126000011E1CDD194BA8465A6A954225D920BF9C
:101270003000FFF77FFF154A0020536A9845DAD8FF
:10128000D5E7124A0020536A8B42D4D3926A0130C8
:10129000A242D0D2581A421E9041C0B2CBE70B4AAC
:1012A0000020536AAB42C6D3926A01209145C2D94D
:1012B000E81A421E9041C0B2BDE79B6A9C42D7D952
:1012C0009542D5D1D3E7C046901F0020004005408D
:1012D000E10B001010B5024A0248FFF7CFF810BD2D
:1012E00018240410544D00200300416A0A00986A33
:1012F000596A8A42FAD17047034B596A0A00986AC0
:10130000596A9142FAD170470040054070B5040017
:101310000D00124A536A1900966A536A8B42FAD139
:101320003000190024184D41AB4211D80ED02B00CB
:101330000A494A6A9A42FCD307D1084A02E0516A34
:10134000994202D1916AA142F9D370BDA642EED969
:10135000012301246442E5175B42E9E700400540B0
:10136000F8B5040006200D0000F076F9002842D000
:10137000364B3749E21853425A418023DB039C46DF
:101380009205344B62441A60334B1A6010000B68AC
:101390009843FBD12D4B8021E3185A4253412F4AE9
:1013A0005B0049009952062000F056F92900C00060
:1013B00000F05EFB0130C3091ED1402701226262AA
:1013C000A362266BF30722D4E36A254B0620E518B7
:1013D00000232B60266300F03FF93900800000F005
:1013E00047FB7022E36A5A407E2313402B601D4B5B
:1013F00023630323A364F8BD1B4A93421ED9002331
:101400001A4A1B4F6262A362266BF307DCD5194BA5
:10141000144AE3181A60656AA26A0620AD01AD1885
:1014200000F01AF9144900F023FBAD020100280076
:1014300000F01EFB0021FFF769FFC5E74006800EA4
:101440009F011A003F180300B9E7C0460080FCBFA7
:1014500008C0004000E0004000F00040F49100208F
:101460002C10000001030000FEFF0000FFFF000041
:10147000C0FF3F00303000004E0E0000F8B5DE46E1
:101480004E4657464546E0B58B4605000A9918007A
:10149000160000F0EDFA0A9B6C001F02324B641933
:1014A0009C46A4006444636881469F4200D96760FB
:1014B0002B1FDBB29846012B30D9C02380229B0121
:1014C000E31812011A60294BAD0059599A460029B8
:1014D0001BD1226876017240E026802316404246E6
:1014E0005B01E3181E60012A30D9802380229B0112
:1014F000E31812011A6053464A4667605A51F0BC1D
:10150000BB46B246A946A046F8BD586900F0B0FAFD
:10151000431C5800C0180338FDD2DAE75B46012BA4
:10152000CBD1C02303229B01E3181A60023AA368BF
:101530001A42FCD0E0232268760156401E408023E8
:101540000A4A5B019246E3181E60AD005A462168C4
:10155000514003220A401A6001225B469A40A36868
:101560001A42FCD0C1E7C04600800040584D002020
:10157000F0B546464F46D646C0B51F00344B440032
:101580009C462418A4006444636888461600FF2B18
:1015900002D880235B006360031FDBB29A46012BF5
:1015A00030D9C02380229B01E31812011A60294B15
:1015B00085005959994600291BD12268760172404D
:1015C000E0268023164052465B01E3181E60012A84
:1015D00030D9802380229B01E31812011A608023F6
:1015E0005B0063604B465F51E0BCBA46B146A8461B
:1015F000F0BD586900F03CFA431C5800C01803388D
:10160000FDD2DAE74346012BCBD1C02303229B0155
:10161000E3181A60023AA3681A42FCD0E023226859
:10162000760156401E4080230A4A5B019146E3182A
:101630001E60850042462168514003220A401A601C
:10164000012342469340A2681342FCD0C1E7C04642
:1016500000800040584D0020014B8000C05870476A
:10166000584D0020F8B5040020481D0017000E005A
:1016700000F0FEF90100380000F0FAF9069B290499
:101680001B0319432368002B1EDB194B194DE2186D
:1016900053425A4180235B019C461203164B62441D
:1016A0001A60164B1A6017002B689F43FBD1144B2E
:1016B0002660E2182123A06013602368002BFCDA67
:1016C0000823E1601360F8BD3F2322681340B34252
:1016D000DBD1A3681B051B0D8342D6D1EE22E36844
:1016E000D20213408B42D0D1EDE7C046001BB700B9
:1016F0000040FDBF08C0004000E0004000F0004096
:101700000430000010B5140080221B4BD2051A6073
:1017100000281AD00123194A1843194BDA61194AD3
:1017200042401A62596298628022134BD2051A60B5
:101730001549164A1160E022D2041A60002C07D124
:101740008022134B12061A6010BD0D4BD861EBE7D7
:1017500063011B1B9A008023121912015B049A4239
:1017600000D30C4A0C4B1A60054B5A608022084B80
:10177000D2051A60E8E7C04600B00540D3C007B004
:10178000008005402D3FF84FFCFF0100082001407C
:1017900000A00540FFFFFF00BC7100208023024A2B
:1017A0009B000B43D362704700800540142310B5A3
:1017B0000100188804331B88984710BD162310B504
:1017C0000100188802331B88984710BDF8B54746BA
:1017D000CE4680B50F1E19D0142399460433040059
:1017E0000025012698464B461888434621681B88E9
:1017F000984701C4431E9841013540420640AF421C
:10180000F1D13000C0BCB946B046F8BD0126F8E7BA
:10181000142370B50400188804331B880D00054993
:10182000984703000020002C01DB0130A040290074
:101830009847C04655420000AA23064A1B01136080
:101840002F230549D360054B19605368002BFCDA40
:101850007047C0460040024000B0FA0000600240FD
:101860007047C04610B50148FEF7F0FD3C24041057
:1018700070B5074D074EB54209D20024013E761BD4
:10188000B60808CD984723000134B342F9D170BDA2
:101890002823041064230410054B064A06491A60E5
:1018A000064A074B1A6010000B689843FBD170473B
:1018B00000E00040BFCDFBFE08C00040FE7F3C00C2
:1018C00000F00040044BDB6C002B03D18022034B63
:1018D000D2021A607047C046000011504C201150CF
:1018E000044A054B1A60054A1368DB018033FBD1BB
:1018F0007047C046FFFFFF0100F0004008C00040F5
:101900004022034B9A675A671A67DA667047C046E7
:1019100000F0014010B5FEF73DFE10BD70B5044D5E
:10192000044C2800C022A16801F05CFDA56070BDD8
:101930000000002000ED00E0002310B5294C82B02B
:10194000A367FFF779FF0122274B1A60636C012B15
:10195000FCD10322254B1A60224A936B012BFCD148
:10196000013300930121224A22480433FFF77AFE13
:10197000052301210093204A2048FFF773FE00222F
:10198000022104201E4BFFF7F3FD00220121052058
:101990001C4BFFF7EDFD0022002107201A4BFFF73B
:1019A000E7FD002200210820174BFFF7E1FD80230F
:1019B000DB000093002200210920134BFFF75EFD9E
:1019C0000022104B00210620FFF7D2FD0420FFF774
:1019D00043FE0E4900F04CF801000020FFF7DEFE48
:1019E00002B010BD008000403CB0004030B000406C
:1019F000002F685900800240008C864700C00240DA
:101A0000001BB70040597307006CDC0240420F0016
:101A100001480421014B1847B01F0020CD170010CA
:101A2000124A936F9B0815D29066D166002905D0A3
:101A3000FFE7FFE7FFE7516F106F704704B58021A4
:101A40000906C2175140002800D0C84340F0F4FBFB
:101A5000002104BDF0B5146E556E576F166FFFF779
:101A6000E3FF1466556657671667F0BD000000D0A7
:101A7000114A936F9B0813D210665166002905D056
:101A8000FFE7FFE7FFE7516F106F704704B50028CD
:101A900001D00020C04340F0CFFB002104BDC04670
:101AA000F0B5146E556E576F166FFFF7E5FF1466AD
:101AB000556657671667F0BD000000D094464A4A45
:101AC000926F9208624601D228E0C046F0B5464EB9
:101AD000346E756E776F366F00F020F89446424A88
:101AE00014665566576716676246F0BD94463E4ACF
:101AF000926F9208624601D254E0C046F0B53A4E69
:101B0000346E756E776F366F00F04CF89446364A37
:101B100014665566576716676246F0BD002B24DBD6
:101B200011D000293EDA00B5C943404200D101314D
:101B300000F038F8C943404200D10131DB43524242
:101B400000D1013300BD002AEBD1002801D10029CA
:101B500005D00020C90FC90701D1C043410800B515
:101B600040F03AFB0022002300BD00B500290ADB4B
:101B7000DB43524200D1013300F014F8C943404224
:101B800000D1013100BDC943404200D10131DB43E6
:101B9000524200D1013300F005F8DB43524200D13C
:101BA000013300BD002923D1002B18D1002A0CD00D
:101BB000BC460D4F38667A6600210023FFE7FFE739
:101BC000FFE77A6F386F67467047002801D00748F3
:101BD000010000B540F000FB0022002300BD020020
:101BE0000B00002000217047000000D0FFFFFFFF26
:101BF000002B00D0BFE0130C28D1002AE7D080B41E
:101C0000114F39667A66FFE7FFE730B4040C7B6F4B
:101C1000396F1B0423433B667A66FFE7FFE7FFE764
:101C2000C04684B27B6F3D6F1B0423433B667A66DC
:101C3000FFE7FFE7C04600232C042D0C7A6F386FB6
:101C400000196941B0BC7047000000D0F0B594465F
:101C50000025140E01D112020835140F01D1120112
:101C60000435940F01D192000235D40F01D15200F6
:101C70000135D40B0134254F7C66254C3C660E0C97
:101C800093B2FFE7FFE7FFE73C6F6643360C77034D
:101C9000BE467343DF0B5B04C01AB941130C734398
:101CA000DB18C91ACE086643360CB64493B27343A8
:101CB0001F0F1B01C01AB941130C73431F0B1B05E7
:101CC000C01AB941860D8F023E436643360C092D7A
:101CD00024DB520A7243801A7703460A6643360CA5
:101CE00016235B1BDE40DF40BF1964466643821B40
:101CF0007046043506330100D940A840C01900D30E
:101D00000131A24206D20023F0BD0000000000D045
:101D1000FFFFFFFF121B0130F3D3F1E709277F1B01
:101D2000FE406446A2B27243801A00D20139220CEE
:101D30007243130C1204821A99410B007046043549
:101D400013370100F940A840801900D30131002B5E
:101D500002D1A2420AD2F0BD013000D30131121BE0
:101D6000FAD2013BF8D1A24200D2F0BD013000D33B
:101D70000131121BF7E7F0B51C0C00D080E00CB469
:101D800000251C0A04D11B02160E3343120208352B
:101D90001C0B04D11B01160F3343120104359C0B9D
:101DA00004D19B00960F334392000235DC0B02D125
:101DB00092185B4101351C00971864410134464F6D
:101DC0007C66464C3C660E0CFFE7FFE7FFE7C0462B
:101DD0003C6F6643360C7703BE4697B27743C01B11
:101DE00000D20139C01B00D201399FB27743C91B11
:101DF000C91B170C77437E04FF0B801BB941CE082B
:101E00006643360C0C2D33DBB644120B1F053A43E8
:101E10001B0B97B27743C01B00D201399FB27743A7
:101E2000C91B170C77433E043F0C801BB941860D3C
:101E30008F023E43664329277F1BFE400C3D7746B9
:101E4000AF40BF1930BCA2B2ABB272437343801A29
:101E50009941220C7243130C1204801A994102001A
:101E60000B000137001BA941F9D2781E0021F0BDFB
:101E70000C277F1BFE4077467F0BAF40FF19E0E742
:101E800000245D1C07D0144F7D663966FFE7FFE72D
:101E9000FFE7FFE73C6F95B29EB265436643401B88
:101EA000B141150C1E0C6543664336042F0C3E43AE
:101EB0002D04401BB141994204D202000B002000C6
:101EC0000021F0BD01D19042F7D3801A994101342D
:101ED0009942F2D3F6E70000000000D0FFFFFFFFB9
:101EE00044464D4656465F46F0B47047F0BCA046A7
:101EF000A946B246BB46704748404140484018B4E6
:101F00001B4B5B68FC46019308BD04DF17260010DD
:101F100018B4174B1B68FC46019308BD00DF21264F
:101F200000109446134A926F920809D2624618B480
:101F30000F4BDB68FC46019308BD0CDFD92800106D
:101F40000C4AF0B5146E556E576F166F6246FFF768
:101F5000EEFF084A1466556657671667F0BD18B459
:101F6000034B9B68FC46019308BD08DF7D270010EA
:101F7000582C0020000000D0FFB550404240504097
:101F800059404B40594000E0FFB5154F4C00640DDF
:101F900003D0BC4204D10C0314D80020090D09055C
:101FA0005C00640D03D0BC4204D11C030AD800229B
:101FB0001B0D1B0501264B4009D44B4003D58B421A
:101FC00000D18242FFBD9942FCD19042FFBD0B433C
:101FD000DB1803431343F5D0C9434918FFBD000084
:101FE000FF07000000B5FFF7CFFF01D0002000BDC4
:101FF000012000BD00B5FFF7C7FF804100BDC0460E
:1020000000B5FFF7C1FF01D9002000BD012000BDD0
:1020100000B5FFF7B1FF01D9002000BD012000BDD0
:1020200000B5FFF7A9FF804100BD012040054A002F
:10203000121804D85A00121801D800207047012045
:10204000704700000021002805D17047C1174840A3
:10205000401AFAD0C90713B5064B1B6898470CBC49
:10206000441CA2401005120B0349091B0905194322
:10207000114310BDE49100201F04000010B54C0076
:10208000620D8023D218DB00D21A5B057E2A10DD98
:102090009E3A13DACC170903490819435242D1403A
:1020A000640001341532202A05DAD0400843604329
:1020B00010BD002010BD0846604310BDC80FC018F9
:1020C000013810BD18B4044B5B6AFC46019308BD8F
:1020D00024DFB52C00100000582C002018B4044B4D
:1020E0001B6EFC46019308BD60DFC32D001000008D
:1020F000582C002018B4044BDB6DFC46019308BD3E
:102100005CDFC12D00100000582C0020C94211D303
:1021100000B549004908002200F018F8002904D44D
:10212000002240428A41114600BD8021090600205C
:1021300000BD000018B4044BDB6EFC46019308BDE3
:102140006CDFC32C00100000582C002018B4044B86
:102150009B6FFC46019308BD78DFDF2C0010000068
:10216000582C002018B4044BDB6FFC46019308BDCB
:102170007CDF4D2D00100000582C002018B4044BBB
:102180009B69FC46019308BD18DFA52A00100000DA
:10219000582C0020024A034B00B500F01BFA00BD8A
:1021A000182D4454FB2119408A0002D3920D092AAC
:1021B00008DA18B4064BDB6BFC46019308BD3CDF24
:1021C000F72E001000B5FFF7E5FF04BC9646F0E7D8
:1021D000582C00208A0002D3920D092A08DA18B47C
:1021E000064B1B6CFC46019308BD40DF072F001017
:1021F00000B5FFF7CFFF04BC9646F0E7582C00204F
:10220000132370B51D78012D19D014DD1E48FFF77A
:10221000D5FA06001D48FFF7D1FA1D4C8022310087
:10222000200001F0DFF8022D06D01A48FFF7BEFAB1
:10223000194B186070BD164C184BA364F5E7174B8B
:10224000134C23606360A360E36023616361A36157
:10225000E36123626362A362E36223636363A36354
:10226000E36323646364A364E36423656365A36534
:10227000E36523666366A366E36623676367A36714
:10228000E367A364D1E7C04653440000534600000F
:10229000582C00204C330000E4910020E52500106C
:1022A000F0B5C6460B000D0049000200040000B561
:1022B000490D30D01D48091827D43426711A884694
:1022C000464610001900002E1CDD202149427718D7
:1022D00025D40126BE40310001274646B7403800CC
:1022E000002B06DA01246442E517A4185D41241886
:1022F0004D41002342428B4126002C0016401C40D9
:102300003000210080BCB846F0BD00200021002B29
:10231000F8DA0749F6E7DB0F0020D907F2E72027B4
:10232000BF1B0126FE403100D6E7C04601FCFFFF7F
:102330000000F0BFF0B557464E464546DE46E0B5D4
:1023400087B002925A009A46530D9946109B4D0051
:1023500004006D0D002B01D000221A609A4A9542AC
:102360007DD04B46002B7AD0002D00D182E0270093
:102370000E00914575D0013B0393AB4271DCCB0F4E
:102380000E039846330B9B4680235B039C465B46BB
:10239000624613431F005346060018036346000BB2
:1023A0000343029A0193039B0092AB4200D1AAE03F
:1023B0004346002B00D1B7E033003C0000275E42CB
:1023C000A7414B46ED1A002D00DCC0E00120019B27
:1023D00040421911FFF74CFB002398464B460393EC
:1023E0005346AB46029004931BE032009A4015001E
:1023F0003300524693401C004B464846D917009A7A
:10240000019B00F001FF4346524693404B449846DF
:102410005B4626002F009B1A361A8F419B46002BE5
:102420002BDD5B46DA460C2B01DD0C239A46029A23
:10243000BB11534351461D22521A1341202201332E
:102440005B10524299468B18CFD5202332005B1A7D
:10245000DA4013003A008A4015001D43C8E7002700
:102460005A4E3800310007B0F0BCBB46B246A94610
:10247000A046F0BD00270026F3E7039B9946049B86
:102480009A46009B019CBC4200DD83E000D17DE0C8
:10249000009B019CF61AA741BC4200DD8BE000D1F5
:1024A00085E0009B019CF61AA74102239C46E0446C
:1024B0003200009801993B0092197B418B421ADC53
:1024C00017D000998A425AD05346002B02DA43466D
:1024D0005B429846109B002B01D042461A604B4647
:1024E0003B4A30003900D21AFFF7F8FD07000E0012
:1024F000B7E78242E5D9009B019CF61AA741012368
:102500009C46E044E0E7019B9F422FDD0098019943
:10251000434600184941002B3FD1039B361A8F4197
:10252000994601239846CFE74B46ED1A002D00DD72
:102530004CE7019BBB42BBDC009B019CBC4201D130
:10254000B342B5D8009B019CF61AA74133E00023A3
:102550009846009B019CF6186741002F2FDAF61869
:10256000674102235B429C46E044A1E7009A019B3D
:102570009F4201D19642C9D827000E0071E7019A07
:102580009342A1D14346DB079ED5B4E7009BB342FB
:1025900000D87DE7002FDCDB8AE7039B801BB94175
:1025A000994601235B4206000F0098468CE7009B8A
:1025B000B34200D875E701239C46E04478E7012345
:1025C0005B429C46E04473E7FF0700000000F07F99
:1025D0003304000010B5002482B00094FFF7AAFE77
:1025E00002B010BD07B5604601880A0A0230DF2A32
:1025F000FAD1C9B2820804D302884088000410438B
:1026000000E00068014A5050039007BD582C00209C
:102610000FB403BC0CBCF0B50124E407634000E038
:10262000F0B50C0DCF0F661E3605891B640503D36C
:10263000C943404200D30131640D03D0661CF60A41
:1026400007D0E41B00207F00791C89078912803C99
:1026500024031D0DDF0F6E1E36059B1B6D0503D376
:10266000DB43524200D301336D0D03D06E1CF60ADA
:1026700007D0ED1B00227F007B1C9B079B12803D37
:102680002D032F1B661B58D4A446202E46DA203774
:102690001400BC401D00BD40F24033412A43801865
:1026A0005941CB0F05D0C943C04300226442504179
:1026B000514162464D0D28D10D0D07D100281FD084
:1026C000241940414941013A0D0DF9D0640006D367
:1026D000013000D30131002C01D140084000013A03
:1026E0000BD4941CE40A04D112051144DB071944ED
:1026F000F0BDD907204B194300E0D9070020F0BDF9
:102700000029DDD1002CDBD1F0BD0132C607400825
:10271000CD0728434908002EE1D0D9E73C2E29DA1D
:10272000203E40371400BC4000D00124F240144346
:102730001A00BB401C43D317ACE7AC46202F08DA85
:1027400020360400B4400D00B540F840394128431C
:10275000A5E73C2F0CDA203F40360400B44000D0FF
:102760000124F84004430800B1400C43C117EAE7D4
:1027700010001900002494E70000F07FF0B50C0D64
:10278000661E3605891BE60A6405640D02D0651CC9
:10279000ED0A04D0002001210905803C2403A44651
:1027A0001C0D671E3F05DB1BE70A6405640D02D0A4
:1027B000651CED0A04D0002201231B05803C240384
:1027C0007740644497B484B296B27443070C7E4356
:1027D000150C6F4380B26843361802D30120000401
:1027E0003F183004350C00197D41844688B29AB2F6
:1027F00050430C0C62431F0C7C438EB27E439219F3
:1028000002D301263604A4191604170C36186741A2
:1028100001BC81B29AB25143040C62431B0C5C436D
:1028200080B25843121802D3012000042418100467
:10283000130C401863412D185E410020474106BC2F
:1028400088B293B258430C0C6343120C544389B2C0
:1028500051435B1802D301210904641819041A0CAE
:10286000091862416D1856410020474118BCF90211
:10287000720D1143F0026A0D1043ED020A0D03D1EF
:102880006D1940414941013B124E9B1B7600B342FA
:102890000ED26D0007D301300026714166463543E4
:1028A00001D1400840001B05C918E4072144F0BDD0
:1028B0000BDA013306D1013004D101314F0D01D0C3
:1028C0004908F2E7E1070020F0BD0136310500209C
:1028D000EBE70000FF030000F0B51C0D671E3F058D
:1028E000DB1BE70A6405640D02D0661CF60A04D0FF
:1028F000002201231B05803C2403D0252D06002641
:10290000F6432E661E096E66CE0FF619B4464900D0
:102910004F0D02D07E1CF60A03D000200021403F5C
:102920003F033E1BB600B444013F7F05C91B490865
:102930002E6F013676089C02950D25437543ED13E5
:102940007543AD1301356D10F603761B0CB4CC0244
:10295000450D2C43A2B2B3B25A43270C7B43350C2E
:102960006F43A4B26C431B1902D3012424043F1902
:102970001C041D0CA4187D4124196D41009A91B2CC
:10298000ACB26143170C7C432B0C5F4392B25A43A9
:10299000A41802D301221204BF182204230C5218D7
:1029A0007B41019C6C431B19520ED9010A4344011F
:1029B000A01A81B2B2B2514303145A43360C734386
:1029C00087B27743D617D21900277E4136049B1968
:1029D0001704160C7F185E417316ED18F3010026DC
:1029E00080337541A90F06D16400690AE8055B0AC6
:1029F000184309D22FE00422944480337541A90A78
:102A0000A8059B0A184326D3404149412404009A53
:102A1000019B0D005543641B4343E41A95B286B2F3
:102A20007543170C7E43030C5F4392B25A43B618AA
:102A300002D301221204BF183204330C52197B4115
:102A400052429C41002C02D40022013051414008E6
:102A5000CA071043490802B06246D7079210084BD4
:102A6000D218084B9A4203D212058918C919F0BD31
:102A70000020002A01DC3900F0BD01331905F5E71B
:102A8000FD030000FE07000007DA002107E0C90F80
:102A9000C907520D03D0C91201E04C4909050020B5
:102AA0007047C0464A00F2D2520D013A484B9A4252
:102AB000EAD2F0B51405091B520801D300184941A8
:102AC0009B08D2181205944640A44A0CA25C0B093C
:102AD000534353431B1353435B131202D21A130085
:102AE0005B435B0B4C086343DB135343DB15013340
:102AF0005B10D21A130CD21A13005B438902840DA7
:102B000021438DB29EB275430F0C7E431B0C5F4375
:102B10008CB25C43361902D3012424043F193404D7
:102B2000330C64197B419D01A40E2C432034A5B2C3
:102B30005543241454432D0C6419A411D203121BC1
:102B400095B28EB27543170C7E430C0C674393B25B
:102B50006343F61802D301231B04FF183304340C1B
:102B60005B197C41DB186441DB18002363419EB292
:102B700076439DB21F0C7D437F436C04ED0BA4197B
:102B80007D4106028F08361BAF417D07F6086E4176
:102B9000B4B295B26C4337147D43120C5743B6B2AE
:102BA0005643EA17AD19002672411204BF182E04CD
:102BB0002A0C36197A410832521117D29D0A9C0507
:102BC000D117101969416144F0BD0000FF070000F2
:102BD000FE070000F8EBDFD6CDC5BEB8B2ADA8A4A5
:102BE000A09C9995928F8D8A8885838152415D0A38
:102BF000DC05D11714194D412B006343A6B276436F
:102C0000A2B2270C7A437F435104D20B89197A412F
:102C1000D218D21880054942904102D400230134D1
:102C20005D4160086908ED0728436144F0BDC04676
:102C3000624618CA94465A46002A20DB04E06246DF
:102C400018CA944600291ADAC01861415B463B4114
:102C50005C46B4405246FA40224344464D466241E7
:102C60006B41904699462B46B3403D41FC401C4386
:102C700052465B46A241AB4192469B467047C01A02
:102C8000A1414B463B414C46B4404246FA402243A8
:102C900054465D4662416B4192469B462B46B3408B
:102CA0003D41FC401C4342464B46A241AB4190464D
:102CB00099467047002200B5203200F010F8080055
:102CC00000BD002200B500F00CF8CA179A4200D1EE
:102CD00000BDD8430121C907414000BD00220B15AA
:102CE0000AD410B5944600F0A7F81414013400DAA1
:102CF0000021CB17144C204700200021704762446C
:102D0000343A0CD40C2A07DA040091409040524225
:102D10002032D440214310BDD843D94310BD2032C6
:102D200007D40C469440524220321141D0402043F7
:102D300010BD0800C917203203D45242203210417E
:102D400010BD1800190010BDFF2C00104A00520DD4
:102D5000144BD21A13DDFF2A1EDAD205CB0FDB0784
:102D60001A43C300400F0903490A084310435B009C
:102D700001D301D0013070474308FBD2704702D025
:102D8000C80FC00770470A0312130132F8D1420F6F
:102D9000072AF5D1012200E0FF22C80F00028018A7
:102DA000C00570478003000000210A00002104E0F4
:102DB00000210A00C11704E00022002306E0C046FB
:102DC0000022CB1758405940C01A994130B5184CD1
:102DD000A21A002903D1010010D00020203A4C157E
:102DE00012D104D2013A001849414C0DFAD3114CCA
:102DF000A24204D212058918DB07C91830BDD2439C
:102E0000520D00200021F5E703D4013A0018494192
:102E1000FBD50B324405C00A4D052843C90A64009E
:102E200003D0002460416141E1E7E0D34408F8E7C2
:102E300032040000FE0700000A0DCC0F531E1B05D4
:102E4000C91A520503D3C943404200D30131520D80
:102E500003D0531CDB0A07D0121B00206400611C46
:102E600089078912803A1203014BD21A7047000079
:102E7000FF030000023225D40C2A1CDA1125AD1AFA
:102E80000B002B41083207350600EE409040914080
:102E90003143F0CC63431A1500235A41554356433E
:102EA0005743BF02F412760576196741ED177F1973
:102EB000801BB94170470C220020C917490001311D
:102EC0000905DBE70902030E1943000253422032D1
:102ED00008D40C0019419440D840204300225041AE
:102EE000514170470800C917203B2032F1D500201E
:102EF000002100227047F0B5FEF7F2FF00F00EF857
:102F000000F030F806E0F0B5FEF7EAFF00F006F852
:102F100000F046F8FEF7EAFFF0BD000000B5FFF74D
:102F20008BFF30A4FFF7A6FF00242C4D2C4ED207B8
:102F300002D3F6436D426641520004D2A246A34634
:102F4000A846B14603E0A046A146AA46B3466EA4F1
:102F5000A44601271F26FFF772FE0137013E212FED
:102F6000F9D100BD594684B28DB26C430614754345
:102F70000B145E4382B25A43AD18EA1700D7D2430E
:102F80001204B6182A042B0C121973414046494604
:102F90009D009B17920F2A43904199413E2210E7D2
:102FA000494684B28DB26C43061475430B145E43DC
:102FB00082B25A43AD18EA1700D7D2431204B618AA
:102FC0002A042B0C12197341504659469D009B1739
:102FD000920F2A43504159413E22F2E6BB4DF09DEB
:102FE000C556F6367D5100001A61140085880A0026
:102FF000FB211900F0B5FEF773FF404D0C002C408B
:1030000001D0AC4202D1090D090500201C002C4062
:1030100001D0AC4202D11B0D1B0500220026ED029F
:10302000002B04D502266B40694000D476424F192C
:1030300004D599420CDD0136694003E0BB4207DA52
:10304000013E6B40070010003A000F0019003B00E2
:1030500040B4002A0FD1002B0AD05C006415013463
:1030600009D14C006415013402D10139013B02E061
:10307000002000212EE0FFF72FFC3E22FFF722FE6A
:1030800082468B460020002180460122920791460D
:103090001DA4A44601271F26FFF7CAFD0137013EE4
:1030A000212FF9D14A4653460C3A012464070027E0
:1030B00052081B0005D49341001979416408F7D1E7
:1030C00004E05341001BB9416408F1D1CE07491017
:1030D0004008304340BC002E0AD0094C094D01D5B0
:1030E000E443ED43F60701D1001969410019694134
:1030F0003D22FFF766FEFEF7F9FEF0BD0000F07F0F
:103100008D305A88A8F64332694FBB610567AC1D04
:10311000B16E4096FCBAAD0F72DB0BABA66EF50735
:1031200039BD9FE576ABFE034B6297BA5BD5FF01D5
:10313000D694DBDDAAFAFF005DEAEE5655FF7F006C
:103140006E77B7AAEAFF3F00BCBB5555FDFF1F00D5
:10315000DEADAAAAFFFF0F006F5555F5FFFF070070
:10316000ABAAAAFEFFFF03005555D5FFFFFF0100E4
:10317000ABAAFAFFFFFF00005555FFFFFF7F0000DD
:10318000ABEAFFFFFF3F000055FDFFFFFF1F000000
:10319000ABFFFFFFFF0F0000F5FFFFFFFF07000081
:1031A000FFFFFFFFFF03000000000000000200001F
:1031B000000000000001000000000000800000008E
:1031C000000000004000000000000000200000009F
:1031D00000000000100000000000000008000000D7
:1031E00000000000040000000000000002000000D9
:1031F000000000000100000000000080000000004E
:10320000000000400000000051434343C9188C46B1
:10321000110C83B24B4310B4040C614392B280B2E0
:10322000504362431C041B0C001910BC5941130489
:10323000120CC018514161447047000048404140A1
:1032400048400E4B5B6818470C4B1B6818470C4AEC
:10325000936F9B0802D2094BDB681847F0B5146ED8
:10326000556E576F166FFFF7F6FF054A14665566E1
:1032700057671667F0BD014B9B681847582D002013
:10328000000000D007B548404140484001E0C0463A
:1032900007B54200120E03D0FF2A03D1420218D80C
:1032A000C00DC0054A00120E03D0FF2A03D14A0206
:1032B0000FD8C90DC9050122414005D4414001D5AF
:1032C000814207BD884207BD0143491801D0C04370
:1032D000001807BD00B5FFF7DBFF01D0002000BDDF
:1032E000012000BD00B5FFF7D3FF01D9002000BDCC
:1032F000012000BD01231B064200D21804D84A0059
:10330000D21801D80020704701207047132310B550
:1033100012481C78FEF752FA0100012C0AD003DD96
:1033200080220F4800F05EF80E48FEF73FFA0E4B81
:10333000186010BD0A4C5422200000F053F80B4BCB
:103340006365A365E36523666366A366E366236737
:103350006367A367E3672362E361E5E75346000021
:10336000582D00204C330000E491002071330010F0
:1033700007B5604601880A0A0230DF2AFAD1C9B2CD
:10338000820804D3028840880004104300E00068EB
:10339000014A5050039007BD582D002010B504007D
:1033A00032F058FB002804D0034B04199C4200D88B
:1033B00010BD0248FDF74AF800000420482404101C
:1033C00010B532F051FB10BD01480421014B1847E4
:1033D000C01F0020CD170010014B1B6818470000CC
:1033E000C01F0020014B5B6818470000C01F002071
:1033F00010B5FFF7D3FF10BD10B5FFF7CFFF10BD1D
:1034000010B5FFF7DDFF10BD10B5FFF7D9FF10BDF8
:1034100010B5FFF7D5FF10BD9A4200D2885470470F
:103420007047C046F8B557464E464546DE46E0B5BD
:1034300099460A9B07009A460D9B884693461500BD
:103440000B9E9B0710D10C9B9E420DD29D1B14001E
:103450000E005D4422004B46013431002020B84765
:10346000A542F7D1B0460B9E002E27D044467519D1
:103470005346AA1B013E985D21004B46B847002EDB
:10348000F6D123002C0098460D9B9B070FD55B4679
:10349000E51A0C9BAB420AD94646984622004B4699
:1034A000310020200135B8470134A845F6D8200066
:1034B000F0BCBB46B246A946A046F8BD2C00E3E7E7
:1034C000F0B54F464646D646C0B584B098460EABDA
:1034D0001B78129F994694460D9C109B119EBA072B
:1034E00025D4002E4BD19C4200D3BFE001223A40AC
:1034F00092461F2C00D9B8E00C9A551E302201E0EC
:10350000202C03D001342A55A342F9D85246002A70
:103510000DD0A6420BD9202C44D00C9A551E302237
:1035200001E0202C3ED001342A55B442F9D1FA06EC
:103530004DD57A053FD4002C39D10F9B102B00D1EB
:1035400079E00F9B022B00D18AE030230C9A0124F2
:1035500013704B46002B3FD02D230C9A135501348A
:103560000C9B624600930397434602960194FFF733
:1035700059FF04B0E0BCBA46B146A846F0BD0122EE
:1035800015003D40AA463A422FD04A46002A02D1B1
:103590000C323A4200D0013E9C42BAD21F2CABD929
:1035A000202E27D92024FA06DAD57A0503D4A3429F
:1035B0002DD0A6422BD00F9B102B32D0022B20D027
:1035C000202CCDD030220C9B1B191A700134202CDA
:1035D000C6D04B46002BBFD17B070DD43B07BFD5D0
:1035E00020230C9A13550134BAE79C429FD21F2C1A
:1035F00000D881E720249AE72B230C9A1355013435
:10360000AEE7202CACD00C9B1B1901343AE0631EB2
:10361000012C92D00F9A102A2AD0022A2FD01C00F7
:10362000D0E7BB060ED4202C9AD00C9B1A1901347B
:1036300078231370C4E7BB060DD478230C9A0124B9
:103640001370BFE7202C00D18AE758220C9B1B196E
:103650001A700134B4E758230C9A01241370B1E7AF
:103660000C9A603301241370ACE7202400265EE737
:10367000023CBA06E9D40C9A12191C00D8E70C9A3D
:103680009246534462221A709AE7C04610B5002849
:1036900000D110BD01F0A0FBFBE7C046F0B5DE464F
:1036A00057464E464546E0B59BB09B46249B89460F
:1036B0009846259B0B900C924046424619009A462C
:1036C000FEF7B3FC002800D0D8E001224046514666
:1036D000774B5242FEF7A4FC002800D0CEE0012236
:1036E00040465146734B5242FEF784FC002800D0FE
:1036F000C4E00022002340465146FEF77BFC002830
:1037000000D0B9E1424653460A9209938023289A91
:10371000DB001A400E92289A1A4201D10623269302
:103720000A9A099B1600134300D0C7E0289B002586
:1037300000261B0500D49BE100230D93269A0D9BC8
:103740009A4200DC9FE1D01A431E26938023289AD8
:10375000DB001A430023002728920D93279B0024A7
:10376000BB4200D9DC1B0223289A1A400E92289AE9
:10377000134203D07B427B415B421C400D9B002BDC
:1037800007D00A9809992A003300FEF7CAFB0A906D
:1037900009910022002340465146FEF72BFC0028E9
:1037A00005D0802000068446099961440991289A31
:1037B000414B0B9D13400493269B0A9A0293099B4D
:1037C00003940092019349465B4628000C9A00F04E
:1037D0008BF90400002F62D0289B220098061F233B
:1037E000C0179843631C984649465B466530A84716
:1037F0000D9B0025DA179C18DB0F9A465440013FB9
:1038000001E0202D13D00AAA94461F232000634410
:103810000A2101355E19FEF72BF930313170200095
:103820000A21FEF725F926000400092EE9D8052310
:103830000693002304930A330393534605970B9F83
:10384000029312AB009342465B464946380001950D
:10385000FFF736FE0E9B0400002B20D00C9BC51AF0
:10386000279BAB421BD91E0022005B464946202005
:103870000135B8470134AE42F6D810E0289B4246E5
:103880000493279B49460393269B0B980293534628
:10389000009201935B460C9A00F026F90400200088
:1038A0001BB0F0BCBB46B246A946A046F0BDC04620
:1038B000FFFFEF7FFFFFEFFFFFF7FFFF734B099F56
:1038C0009C467800400D6044FEF7C0FB704A714B87
:1038D000FEF745FB704A714BFEF71AFB3B03704A3B
:1038E0001B0B1A4304000D00300011006D4B002229
:1038F000FEF705FB6C4A6D4BFEF731FB02000B0037
:1039000020002900FEF704FBFEF7B8FB0D90FEF740
:103910009DFB674A674B04000D00FEF720FB002269
:10392000654BFEF7F5FAFEF7A9FB644A0600644B07
:1039300020002900FEF713FB040030000D000F9655
:10394000FEF784FB5F4A604BFEF709FB02000B00A9
:1039500020002900FEF7D3FA02000B0006000F003A
:10396000FEF7FDFA320004000D003B003000390084
:10397000FEF7CEFA002210901191544B200029003E
:10398000FEF7CFFA0022524BFEF7C2FA02000B00FC
:1039900020002900FEF7C5FA00224E4BFEF7B8FAC8
:1039A00002000B0020002900FEF7BBFA0D00802169
:1039B000040032003B000020C905FEF7A0FA020017
:1039C0000B0020002900FEF7A3FA02000B0010985C
:1039D0001199FEF7A6FA0022314BFEF799FA3E4BF9
:1039E0000F9C9C46644400222305FEF7B8FA0500AC
:1039F0000E0002000B000A980999FEF7FBFA002856
:103A00000AD00D9B2800013B31000D930022304B62
:103A1000FEF787FA05000E00C6270D992B006331CB
:103A20008F42BF4128997F420437090500D495E6AB
:103A3000334300D182E6099C284A2100284B0A988A
:103A4000FEF7E6FA002808D000222100254B0A984C
:103A5000FEF7D0FA002800D070E6269B002B00D19C
:103A60007CE60E9B5A1E9341269AD31A269375E63E
:103A7000002304270D9371E643460A9380231B0617
:103A80005344099342E6002326935FE601FCFFFFBF
:103A9000FB799F501344D33FB3C8608B288AC63F3D
:103AA0000000F03F0000F83F61436F63A787D23FFB
:103AB00071A379094F930A400000E03F1655B5BB4A
:103AC000B16B0240EF39FAFE422EE63F00002C4077
:103AD0000000244000001840FF0300002D431CEBB1
:103AE000E2361A3F80842E41F0B54E46DE465746F8
:103AF0004546E0B597B09946209E219F229B83467C
:103B0000984607910C923B00320030003900FEF7D6
:103B10008CFA002800D0A9E1012230003900CA4BFC
:103B20005242FEF767FA002800D0E1E0012230009F
:103B30003900C64B5242FEF773FA002800D0B7E0B6
:103B4000002230003900C24BFEF76AFA002800D08C
:103B500099E0002230003900BE4BFEF74BFA0028F6
:103B600000D090E00022002330003900FEF742FA36
:103B7000002800D0B1E000230D93249B5B0501D405
:103B80000623984608AB9C46172200243023414662
:103B9000624404E0013413550139202C01D0092975
:103BA000F8D8884630003900FEF768FA4346DA0054
:103BB000A94B05009B181A685B6808920993FEF7E9
:103BC00045FA02000B0030003900FEF798F9089A18
:103BD000099BFEF7C4F90A900B91FEF773FA82462F
:103BE000FEF730FA02000B000A980B99FEF787F9EE
:103BF00000229A4B0A900B91FEF712FA002800D18E
:103C0000C0E001239C46E2445046FEF71BFA020046
:103C10000B0008980999FEF7F3F9002802D0002359
:103C20009A4601354346002B6AD008AB17269C46BE
:103C300008956644554614E001235B4243440A213B
:103C400028009A46FDF714FF0134303137193970D6
:103C500028000A21FDF70CFF092D00D8D0E0D0463E
:103C60000500202CE8D10EAB98460323249A13407C
:103C7000012B00D196E02023249A01930392239AEA
:103C8000434602921EE0249B58460493239B0096D1
:103C90000197039343460C9A029307994B46FFF70B
:103CA000FDFC17B0F0BCBB46B246A946A046F0BD2D
:103CB000249B5B070ED40322694B24990192039144
:103CC00023990291009358464B460C9A0799FFF7A7
:103CD000A9FBE6E70422634BEFE73B00320000203C
:103CE0000021FEF70CF9012306000F000D9344E7B5
:103CF000249B0393239B0293042301935A4BE1E7F4
:103D00002800FEF7A3F902000B0030003900FEF78F
:103D1000F6F8524B002206000F00FEF76BF90EABCF
:103D2000984600280AD10022300039004B4BFEF79C
:103D300077F9002802D1EB0700D50135202C94D06B
:103D400008AA94461723280063440A2101341E1947
:103D5000FDF766FE3031280031700A21FDF760FE64
:103D6000051EEBD10323249A1340012B1BD0202CDA
:103D700000D180E70D9B002B35D02D224146631CDE
:103D80000A5579E700220A980B99344BFEF732F96D
:103D9000002800D046E75346002B51D101239C4612
:103DA000E2443FE72024239B002BE0D00D9B002B17
:103DB00003D1249A0C33134202D0239B013B23935B
:103DC000239BA342D3D908AB9C46172230236244DD
:103DD000202C00D14FE72399013413558C42C6D0D3
:103DE000202CF8D147E7249B5B0724D4249A230096
:103DF000120700D440E72022414601330A553BE731
:103E00005746089D202C00D12DE722003021404646
:103E1000002F09D00132B154202A00D123E7D34327
:103E20001B191B18002BF5D10EAB98462E234146CB
:103E3000541C8B5482E72B224146631C0A551BE716
:103E4000DB0700D4EEE6A9E7FFFFEFFFFFFFEF7F00
:103E500065CDCD4165CDCDC1E82604100000E03F21
:103E6000EC240410F0240410FC240410249B03937D
:103E7000239B029303230193004B23E7F8240410B0
:103E8000F0B5DE464E4657464546E0B59FB01C00AD
:103E9000289B91460993C94AC94B8B4608901A60E2
:103EA000002900D118E2002320789A46002800D18A
:103EB0001AE226001D005C460AE02A006F1C4B46F1
:103EC000089D2100A8473D0001363078002870D0B9
:103ED0002528F2D110239B46083B9A46043B98467E
:103EE000023B00219C46721C107816000300203B08
:103EF000DBB2102B03D8B34F9B00FB589F46030047
:103F0000303B092B32D900230A932A2868D000239A
:103F100098462E283ED00300683BDBB2122B1CD8FB
:103F2000A94A9B00D3589F46012301321943DBE77E
:103F3000634601321943D7E7434601321943D3E7B9
:103F40005B4601321943CFE7534601321943CBE7B1
:103F500080235B007078194301360300253BDBB2F8
:103F6000532BAAD8994A9B00D3589F460027030099
:103F7000B800C01901364000C018337830381A0034
:103F8000303A0700092AF3D90A901800002398460E
:103F90002E28C0D180237078DB0019430300303B0A
:103FA000721C092B00D8A1E12A2800D1B2E1160029
:103FB000B1E7A346AA462C00D14503D801235B42B2
:103FC0004B449A464B46524659460020089DA84706
:103FD00020001FB0F0BCBB46B246A946A046F0BDCB
:103FE000099B40CB0A96002E03DB50780993561CA0
:103FF0008DE72838014370420A9009935078561C87
:1040000085E7782800D1DFE1582800D14CE26F28FD
:1040100000D14FE3622801D100F030FC10230A00E8
:104020009A430B92692801D000F0A9FC0A230C9353
:104030004B0500D5D0E10B9A802311009B0019405D
:104040008B461A4200D0A1E2802311005B00194088
:104050008A461A4200D0B6E313005B0600D5EDE2B3
:10406000130009991B0601D400F076FC08C91BB2A5
:10407000D8171A18424092B209919346DA0F129259
:10408000002B09D1802310220B99DB000B409143B8
:104090000B91002B00D0E4E20B9A6123920600D52D
:1040A00041230EA91F228C46DBB262440A3B5F46C5
:1040B0001395A34655460C9CB2460D9316000AE094
:1040C0003033DBB201357355A74200D2EDE2202D2B
:1040D00000D1EAE2070021003800FDF7C9FCCBB2AD
:1040E0000929EDD90D9A94466344DBB2EAE78023AF
:1040F0009B007078194301362FE77078682800D14B
:10410000CDE180230136194327E770786C2800D170
:10411000BFE180235B00194301361EE7462800D12A
:104120009BE10722099B0491073393430A9A1900E4
:104130000392424602920CC9089800920193099199
:104140002A004B462100FFF7CFFC01360500BCE6F4
:104150002A006F1C4B46089D21002520A8470136E8
:104160003D00B2E68B0700D4ADE1099B2A009A46D8
:104170006B1C9846534601CB21009A46089F4B463C
:10418000C0B2B8470A9B9C466544012B00D886E222
:10419000089B4746B04626004C4699463A00230005
:1041A000013731002020C847AF42F7D1A14653461E
:1041B000340046460993013687E6C046813E00102A
:1041C000B87100200425041048250410942504101B
:1041D000099B04CB9B4643460992002B00D1C6E0C5
:1041E00013789C46002B00D1BDE34346013B099A5E
:1041F0000133D0180A9F130001E0834203D05A789C
:104200000133002AF9D1099A0A979B1A0B9380234C
:104210000A00DB001A400C92194204D00B9B434564
:1042200001D943460B9302231A000A400D920B4218
:1042300000D187E16046002800D168E10C9B002B8B
:1042400000D10DE1A844C246099B57465B1B984626
:10425000089BB2462A0026004C46994609E02300F6
:104260003100551CC8474346585D002800D126E15F
:104270002A009742F3D1A1463D00340056460D9BDB
:10428000002B00D043E15B46013609931DE6099BF4
:104290001A0008CA9246002B48D0212211438B46AF
:1042A0000EA884461F216144099500220F27A446C9
:1042B0000D0002E0202A0CD00B003C001C40200026
:1042C0003730092C00D807380132A85419090F2BB0
:1042D000F0D86446099D32E0DC4B20780893002337
:1042E0009A46002800D0E4E5002465E6434606002F
:1042F0000A9F9800C0180132400080191678030008
:1043000030003038303B0928F3D930009846160089
:104310000A9700E6099B023604CB9046D2434046FA
:10432000D2171040804609933078F4E51022080037
:10433000904311321043834600224905B0D55B46B5
:104340000693082305934346049310230393002305
:10435000029316AB019200932A004B462100089865
:10436000FFF7AEF85346050001360993ADE5137823
:104370009C46002B00D1F7E202235B4237E7202363
:1043800002009A43472A04D180231B0119430223C8
:104390009843452801D1202319430722099B049102
:1043A000073393430A9A19000392424602920CC9BA
:1043B00008980092019309912A004B462100FFF7CB
:1043C0006DF90136050080E510230C930C230A00DB
:1043D0009A430B924B0503D501230B9A9A430B92F8
:1043E000692800D127E6642800D124E60B9A8023AF
:1043F00011009B0019408B461A4200D066E18023D1
:1044000011005B0019408A461A4200D039E21300BD
:104410005B0600D53CE113001B0600D4A6E2099B15
:1044200004CB1204120C934609935B46002B00D078
:104430009AE10B9A1033110099430B91520500D465
:1044400092E100239A460B9B06930A9B05934346F1
:1044500004930C9B039300230CE12023194360E693
:10446000099B0A9A5B1B98464B4691461F00B24631
:104470002600089C2A003B003100A0474346013536
:10448000585D0028F6D14A463400B94656460A928D
:10449000F5E6C0239B00B078194302365DE5C023E2
:1044A000B0781943023658E50C230A009A431433B6
:1044B0001A43103B0B920C934B058DD496E7A14603
:1044C00034005646DBE60A9A012A00D853E26B1EF6
:1044D0009F18089BB04626004C4699462A002300A8
:1044E000013531002020C847BD42F7D1A146340034
:1044F0004646099B3A0001CB210098467D1C4B465D
:10450000089FC0B2B847434601360993DDE40B9BD0
:104510000A9AA8469A4200D8B5E694466544ED1A30
:10452000089B4746B04626004C4699463A00230071
:10453000013731002020C847AF42F7D1A1463400EF
:104540004646A0E60B9A0A99531C914200D814E201
:104550004B199B1A1F00089BB24626004C469946F1
:104560002A002300013531002020C847BD42F7D181
:104570000A9BA14601330B93099B34001B785646D6
:104580009C466046002800D058E67CE60722099B3E
:1045900007339343013294469C4462465F68099214
:1045A0001A68FB1710931193109811990300534048
:1045B0000E930B007B400F9394460E9A0F9B121A9A
:1045C0008B410E920F93FB0F6246129300233A43E6
:1045D0009B463DD00B9A6123920600D541230022D1
:1045E000DBB20EA90A3B8C4692460D9343461F321E
:1045F00062441395159655460E9E0F9FA24690460F
:104600000C9C14930CE03032D2B2434601355A551B
:10461000BB4500D18AE1202D00D18AE106000F00C0
:104620002200002330003900FDF760FAD2B2092AD7
:10463000E9D90D9B9C466244D2B2E6E7FF23099973
:1046400004C913401A00099117E5C046213400102F
:104650000B9A1033110099430B915205BAD50023E0
:104660009A460B9B06930A9B0593434604930C9B27
:104670000393129B02935346019316AB2A000093B7
:1046800021004B460898FEF71BFF013605001CE48D
:10469000FF22099B02CB11408B460993C5E6534686
:1046A000454609930136FFF710FC56465C46AA467C
:1046B000139DD6E708230C930B910B99642800D027
:1046C00084E60B9B5B0500D586E6B4E40722099BD4
:1046D00007339343013294469C44624609921A6818
:1046E0005B6810009B4613005A46134307D10B9A90
:1046F0001033110099430B91520500D5A1E60B9A96
:104700006123920600D541230022DBB20EA90A3BA9
:104710008C4692460D9343461F3262445F46129583
:10472000A34655460400B24690460C9E13930DE0F6
:104730003032D2B2434601355A550023BB4200D134
:1047400000E1202D00D100E104000F003200002321
:1047500020003900FDF7CAF9D2B2092AE8D90D9B29
:104760009C466244D2B2E5E70B9A6123920600D5DB
:104770004123DBB20EA90A3B1F228C460D93230076
:1047800062445C461295170055469B46B2460C9E05
:1047900008E03033DBB201357B55B4420ED3202D17
:1047A0000CD0040031002000FDF762F9CBB20929DA
:1047B000EFD90D9A94466344DBB2ECE756465C466B
:1047C000AA46129D3FE6099B1A0008CAD917139200
:1047D0005A184A409246DA0F1292002B08D18023D1
:1047E00010220B99DB000B4091430B91002B2BD136
:1047F0000B9A6123920600D541230EAA1F279446E7
:10480000DBB20A3B0D9567445D460993A3465446C7
:10481000B2460C9E08E03033DBB201357B55B44222
:104820000ED3202D0CD0040031002000FDF720F91C
:10483000CBB20929EFD9099A94466344DBB2ECE77D
:1048400056465C46AB460D9D0B9B2A0006930A9B81
:1048500021000593434604930C9B08980393129BF5
:10486000013602935B46019316AB00934B46FEF76D
:1048700027FE139B05000993FFF727FB02230C93E8
:104880001AE7099B04CB92461293002A08D1802391
:1048900010220B99DB000B4091430B91002B2BD185
:1048A0000B9A6123920600D541230EAA1F27944636
:1048B000DBB20A3B0D9567445D460993A346544617
:1048C000B2460C9E08E03033DBB201357B55B44272
:1048D0000ED3202D0CD0040031002000FDF7C8F8C5
:1048E000CBB20929EFD9099A94466344DBB2ECE7CD
:1048F00056465C46AB460D9D0B9B2A0006930A9BD1
:1049000021000593434604930C9B089803930023CE
:1049100002935B46019316AB00934B46FEF7D0FD26
:10492000129B050009930136FFF7CFFAB44200D875
:1049300071E6149B54460E960F97AA469846159E0C
:10494000139D8EE6A64200D8FBE6139B564698467A
:10495000AA465C46129D76E508C9D8171A18424047
:104960000991FFF78AFB00230B9350E4099B04CBCA
:104970009346099359E52F00BBE50B9301E6063BEF
:104980000C939AE60EB4012210B585B007AC08CCA2
:1049900001000094524204480394FFF771FA05B0F5
:1049A00010BC08BC03B018471934001000B583B020
:1049B000009313000A0001000248FFF761FA03B0F8
:1049C00000BDC046193400100FB410B50C4984B0B6
:1049D00006AA08CA0C680392002C0BD00092012290
:1049E0000848524202A9A047012004B010BC08BCEC
:1049F00004B01847180000F03BFA0020F5E7C04665
:104A0000B87100208D36001010B5094A03001468F3
:104A100084B0002C08D0012200910648524203A91C
:104A2000A047012004B010BD00F022FA0020F9E7F1
:104A3000B87100208D36001000BEFDE7094A030062
:104A40001068002805D00849C3188B4207D81360A6
:104A5000704706480449C31810608B42F7D90120FB
:104A60004042F5E7B44D00200000042018920020D9
:104A700000207047012040427047C046030010B537
:104A800008001100002B05D1044B1A685B6800F088
:104A900041F910BD01204042FBE7C046102404103C
:104AA0000300013B10B508001400012B06D80123B8
:104AB0000022210000F0AEF8200010BD012040428D
:104AC000FBE7C046012040427047C04601204042FB
:104AD0007047C046012040427047C0460300022292
:104AE00000209A424041704710B5FFF7A5FFC0462D
:104AF00010B50C0082B01900002A0AD0064B0192B2
:104B00000093020023000548FFF75EFF0120FFF736
:104B100093FF034B1A00F2E73827041048270410CC
:104B2000D057041070B5FCF7A3FE074D074EB542F1
:104B300009D20024013E761BB60808CD9847230011
:104B40000134B342F9D170BD6423041088230410EA
:104B5000030010B5080011001B68984710BDC0463F
:104B6000F0B546464F46D646C0B5437D80460E005A
:104B70001700002B46D0002A3FDD4B1E9946244BE0
:104B80000125002400209A460DE04B461B5D0D3B9D
:104B90005A425341325DDBB20A2A0BD02B0001345A
:104BA00001359F421ADD002CEFD14346325D1B7D5B
:104BB0000A2AF3D1002BF1D1A04204DA4346211A8C
:104BC0001B6830189847434650461B680221984797
:104BD000013428002B0001359F42E4DC874204DDCC
:104BE0004346391A1B6830189847F619013E337846
:104BF0000D3B5A42534142461375E0BCBA46B1469A
:104C0000A846F0BD0368110030009847F5E7C0469C
:104C100078270410F0B5DE4657464E464546E0B5C7
:104C200085B017001C0006000D00FCF765FB002393
:104C3000314A12184B41002B59DB304908008A4693
:104C40003DF032FB01906B1C03D1300032F0AAFF23
:104C50000500002C26D12A4B98462A4B1C68002CB4
:104C600015D0002F21D1284F02E02469002C0ED04E
:104C70002368002BF9D03B68002B01D0A342F4D16C
:104C800020002A003100C0472469002CF0D1019B8C
:104C9000002B28D1280005B0F0BCBB46B246A9467F
:104CA000A046F0BD194B9846D7E7174B994602AB83
:104CB000DF1D0A239B4602E02469002CE7D023680D
:104CC000002BF9D04B461B68002B01D0A342F3D137
:104CD0002A0031002000C0475B4601223900200035
:104CE0003B70C047E8E750463DF06EFAD2E701223C
:104CF000074B5242A1E7C04640420F00C82A00209D
:104D0000514B0010A84D0020B04D0020614B001009
:104D1000FFFFFF7FF8B557464E464546DE469846AC
:104D20001A4BE0B59A461A4B07000E009346994677
:104D3000184D53461C68002C03D115E02469002C43
:104D400012D02B68002B01D0A342F7D1A368002B0F
:104D5000F4D03100380098470028EFDDF0BCBB46A6
:104D6000B246A946A046F8BD4B465B6A984508D8AE
:104D70004A46926A5A4501D2984502D002204042E2
:104D8000ECE701200021FCF7C1FAD2E7A84D002092
:104D900000400540B04D00200A4A1368002B05D1A1
:104DA0000CE01A001B691032002B07D09842F8D192
:104DB000002902D103691360016170470029FCD00A
:104DC0001060FAE7A84D002010B500F039F900F0A6
:104DD0007FFB012010BDC046F0B5CE46474680B5EA
:104DE00083B06B460600DD1D2870FCF785FA0023B2
:104DF0001A4A12184B41002B2BDB19490800884630
:104E00003DF052FA174B81461C68002C14D0164F07
:104E100002E02469002C0FD02368002BF9D03B68F6
:104E2000002B01D0A342F4D1200001222900FFF77A
:104E300097FE2469002CEFD14B46002B05D13000A2
:104E400003B0C0BCB946B046F0BD40463DF0BCF929
:104E5000F5E70122054B5242CFE7C04640420F0022
:104E6000C82A0020A84D0020B04D0020FFFFFF7F82
:104E700070B5040032F096FE012301000500012206
:104E80002000FFF7C7FE084B1C68002C06D06368A3
:104E9000002B05D098472469002CF8D1280070BD5C
:104EA0002469002CF3D1F9E7A84D0020F0B50D1EC0
:104EB00015DD0E4B0D271A680D4B4519D3185942B5
:104EC0004B410C495B005E5E20210478A64207D06E
:104ED00093691942FCD101301460A842F5D1F0BDAC
:104EE00093691942FCD11760F2E7C046F89100209F
:104EF0000080FCBFF491002030B504000D1E24DDBD
:104F0000002010211A4B013C1A689369194217D1ED
:104F1000013093691942FCD1136823548542F4D1BE
:104F2000144B1B68002B0AD050239363516B183B22
:104F30000B4011498C4662441360002814D030BDE8
:104F40000C4B1B68002BEFD1F7E70A4B1B68002BBB
:104F50000AD05022064B1B689A63596B183A0A40D4
:104F600005498C4663441A6003204042E7E7C04687
:104F7000F8910020404D002034100000064B10B581
:104F80001B68002B06D00021044A12689163044A72
:104F90001068984710BDC046404D0020F891002091
:104FA000484D00200822034B19688B691A42FCD136
:104FB0007047C046F891002070B51B4E1B4B3268FD
:104FC0000500D3185842434114331C00002D04D06F
:104FD000174B1A68002A11D070BD154E3368002B8C
:104FE000FAD0002120009563FBF7F4FA2000114964
:104FF000FBF74AFC104B35601D60EDE71D600E4B62
:10500000200019600B49FBF721FB01212000FBF771
:10501000E1FA502233689A63596B183A0A400749FB
:105020008C4663441A60D7E7F89100200080FCBFEB
:10503000404D00207D4F0010484D002034100000EE
:105040000D4B10B51B780D4B0D4C1B780D4B0221F1
:105050001B780D4B00202360FBF7B8F902210120DB
:10506000FBF7B4F9E12120684902FCF779F9012145
:105070000648FFF791FE10BD60CC041064CC04100C
:10508000F891002068CC041000400340D01F00209D
:105090007047C0460022014B1A70704712920020E0
:1050A0004B790020FF2B0BD18B79002B08D1CB79CA
:1050B000012B05D1082A03D98A78024B09301A70CE
:1050C0007047C046129200200120704710B5012998
:1050D00009D115495379107909781B02034300203F
:1050E000994202D010BD0120FCE75378012B08D073
:1050F000022BF7D1002064220021FCF703FB0120E2
:10510000F0E7D37891781B021943DB0507D54A0AEB
:10511000100001231A407E331940FCF779FB01206F
:105120004A0A4042F5E7C046129200200048704704
:10513000E427041070B5050014000120012909D1ED
:1051400053780020012B05D1637912791B02134398
:10515000072B00D070BD21002800024A9F3301F0C8
:105160004FFAF7E70828041001230370004870473E
:10517000C427041048780B788A7800021843120478
:1051800010439622CB7810B51B060343D2009342FE
:1051900000D010BD0022012011004042FCF738FB76
:1051A000024B1860024B19607047C046444D002006
:1051B0004C4D002010B5024B1878FBF729FA10BDB2
:1051C00013920020154B70B51A68002A22D0EFF315
:1051D000108172B610680028FCD0BFF35F8F0022E8
:1051E0000F48596002701B68BFF35F8F1A6081F32C
:1051F0001088002400250B4E3078FBF7FDF90028BD
:1052000004D1002400252900200070BD3078FBF770
:10521000FFF9F8E7FA240025A400ECE7C4710020A8
:10522000149200201392002070B5040000200E009C
:1052300001F008FB002835D0002001F01BFB0028FE
:1052400030D0FCF759F80023184A12184B41002BB4
:1052500024DB174D28003DF027F8002822D000203D
:1052600001F0F0FA00280BD1012000210324404274
:1052700000F0F8FC644228003CF0A6FF200070BD5E
:10528000002001F0F7FA0028EED0210032000020C3
:1052900001F0FCFA041EEED1033CECE70122054BC1
:1052A0005242D6E703246442E8E7C04640420F007A
:1052B000EC910020FFFFFF7F10B5FCF71DF80023E5
:1052C0000E4A12184B41002B13DB0D4C20003CF012
:1052D000EBFF00280CD001200021404200F0C2FC6E
:1052E000002001F01FFB0028F5D120003CF06CFFEE
:1052F00010BD0122034B5242E7E7C04640420F0077
:10530000EC910020FFFFFF7FF8B5DE46574680B5E1
:1053100005000C00FBF7F0FF0023364A12184B4142
:10532000002B5ADB344908008A463CF0BDFF0028B8
:1053300003D1C0BCBB46B246F8BD002001F082FAE2
:1053400000284ED00026002C43DD2C4B9B4614E059
:10535000A919002001F022FB070001200021404292
:1053600000F080FC002001F0DDFAFBF7C5FF234BC5
:10537000F61918605960B4422BDD002001F030FBB3
:10538000A71B0200B84200DD3A00002AE0D101204C
:105390000021404200F066FC002001F0C3FA00202A
:1053A00001F050FA002814D0002001F019FB002869
:1053B000E1D1FBF7A1FF5B460F001A685B68002193
:1053C00084460F4812184B419F4202D8D3D19445CE
:1053D000D1D950463CF0F8FEABE70122094B5242CE
:1053E000A0E700200021054B1860596050463CF0B2
:1053F000EBFE9EE740420F00EC910020502C002075
:1054000020A10700FFFFFF7F30B52A4C85B00021A7
:1054100020003CF021FF00281CD1274B1A68002AED
:1054200016D0EFF3108172B610680028FCD0BFF3DD
:105430005F8F01242148596002781B68D2B2047042
:10544000BFF35F8F0020186081F31088002A17D007
:1054500005B030BD01200021404200F003FC0020D7
:1054600001F008FA050020003CF0AEFE002DEFD060
:10547000134B1B68002BEBD0124A10689847E7E7E4
:10548000FBF7B8FD0400FBF737FFFA220023920078
:1054900012184B41002B09DB0121029100210191DF
:1054A000094920000091FBF7A9FDD1E70122074B34
:1054B0005242F1E7EC910020C471002014920020C8
:1054C000444D00204C4D0020C5510010FFFFFF7FD0
:1054D000D02310B51B0684B01C68FBF78BFDFBF7CF
:1054E00087FEA04202D0002004B010BD284B1B78DC
:1054F00001F078FD27480368002B41D00120FBF71D
:10550000FFFAFF23244C254920701840FBF79EF832
:1055100020780121FBF75EF80520FBF781F80028D1
:1055200021D1082200211E48FDF756FFFBF762FD3E
:105530000400FBF7E1FEFA220023920012184B410F
:10554000002B20DB0121029100210191154920004F
:105550000091FBF753FD0028C5DB13480121FFF73D
:105560001BFC0120C0E70120FBF704F801000C48F8
:10557000FBF72CFB002205200C49FBF791F8ECE728
:10558000FBF706FBBAE70122094B5242DAE7C046B5
:105590006CCC0410EC9100201392002009540010F0
:1055A000C4710020C5510010E81F0020B551001043
:1055B000FFFFFF7F004870475029041000487047E4
:1055C000FC28041070B5040017480378002B21D084
:1055D000002C06D1C1241548154BA400438004803B
:1055E00070BD052C1DD8134B1048A400E558811C34
:1055F000002304E001330A800231132B0ED0EA5C51
:10560000DCB2002AF6D1C0230134E4B264009B006E
:105610001C43E4E7112100F017F8D9E7CA24A400DD
:10562000DDE70020DCE7C046FC910020804D002033
:10563000090400006429041010B5024800F0D8F8ED
:1056400010BDC046DC91002030B54B1E012900D1B1
:10565000A7E0664A11780D112C0030349F2900D93B
:10566000A2E00470012B00D1BEE00F21147821408C
:105670000C003034092900DD98E04470022B00D181
:10568000B2E054782511290030319F2C00D990E0E8
:105690008170032B00D1A7E00F2121400C00303492
:1056A000092900DD87E0C470042B00D19CE09478C8
:1056B0002511290030319F2C00D97FE00171052B85
:1056C00000D191E00F2121400C003034092900DD88
:1056D00076E04471062B00D186E0D47825112900AC
:1056E00030319F2C00D96EE08171072B00D17BE017
:1056F0000F2121400C003034092966DCC471082BCD
:1057000000D171E014792511290030319F2C5FD828
:105710000172092B68D00F2121400C003034092977
:1057200058DC44720A2B5FD054792511290030319E
:105730009F2C52D881720B2B56D00F2121400C0088
:10574000303409294BDCC4720C2B4DD094792511CF
:10575000290030319F2C00D9073101730D2B43D024
:105760000F2121400C003034092901DD37310C00B4
:1057700044730E2B38D0D1790C11220030329F297E
:1057800000D9073282730F2B2ED00F220A4011004E
:105790003731092A01DC30321100C173102B23D0BC
:1057A00010300023037030BD07345AE737310C0046
:1057B00063E707316CE737310C0074E707317DE7A9
:1057C00037310C0085E707318EE737310C0095E75C
:1057D00007319DE737310C00A3E70731AAE73731DE
:1057E0000C00C4720C2BB1D1C018DAE7DC91002098
:1057F00030B5002589B004000922002101A80095D8
:10580000FDF7EAFD0922002105A80495FDF7E4FD56
:105810004B236A466846137004A90D223CF0C4FC71
:105820001521082220006944FDF7DCFD09B030BDD8
:10583000F8B500F03DF90C23184DFF22AB670520A9
:105840001749FAF72DFF174C402200212000FDF7E1
:10585000C3FD4027002301262121134A66702783B8
:10586000A260136063545F316184453963540F4A09
:105870000F496360E2602787A1620B606362E262A6
:105880003CF09AFC80239B052E64EB649023094A2C
:10589000EA508022084B5202DA64F8BD0000115031
:1058A000F9040020B84D0020840010500001105071
:1058B0008000105010D001000020115010B50121BF
:1058C0000520FAF787FE10BD10B50022002102481E
:1058D00000F00EF910BDC046D84D0020044B1970E1
:1058E000002904D080219023024A8902D1507047B8
:1058F0000E920020002011500B785B0602D14B78ED
:10590000052B00D070478A78014B1A60FAE7C04631
:1059100000001150F0B5C64600B54B790C791B025A
:1059200088782343CC787F21A4070140C509A20FC2
:105930004F001400324E7A195201B21890700120B3
:105940006840507000205B055B0DD0701383D476E7
:105950008046CA00012D33D02A488446880162441B
:105960008446B4446046826040461060002933D0CB
:10597000254AC90090466246414451603F223F3368
:105980009343022C00D15B0020487A190168520130
:10599000B218D1601E4ACB18036051405340802298
:1059A00088465201934228D84346A4061C438023CC
:1059B0007F197F011B06F6191C4373681C6011E0F8
:1059C00014488446880162448446B4446046826236
:1059D00040461060002909D100236D0176197360DB
:1059E0000D4BF360012080BCB846F0BD084AC900E9
:1059F0009046624641445162C0E7FBF733FFD3E76C
:105A0000B84D00208400105004001050C0710020D8
:105A100000001050800010500001105010B53CF0F4
:105A2000CBFB10BD10B57F200C0020404000E409E6
:105A3000110000191A00034B4001C01800F058F87B
:105A4000012010BDB84D00207F22130010B50B407F
:105A50000A420BD0C909802258004018064940016B
:105A60004018120100213CF04FFC10BD02220348F7
:105A7000C909521A8266EEE7B84D00200020115085
:105A80007F22100010B508400A4200D110BD00234B
:105A9000C909400040180449400108180022034980
:105AA000C3703CF031FCF1E7B84D0020FFF7FFFF79
:105AB00080220A4B520410B51A60094B09491A603A
:105AC00010000B689843FBD1802200215201064848
:105AD000FDF782FC0922054B5A6710BD00E000402B
